{
  "contractName": "Rent",
  "abi": [
    {
      "anonymous": false,
      "inputs": [
        {
          "indexed": false,
          "internalType": "address",
          "name": "bidder",
          "type": "address"
        },
        {
          "indexed": false,
          "internalType": "address",
          "name": "bidded",
          "type": "address"
        },
        {
          "indexed": false,
          "internalType": "enum Up_Conditions.update_comps",
          "name": "parameter",
          "type": "uint8"
        }
      ],
      "name": "Accepted_request",
      "type": "event"
    },
    {
      "anonymous": false,
      "inputs": [
        {
          "indexed": false,
          "internalType": "uint256",
          "name": "id_rent",
          "type": "uint256"
        },
        {
          "indexed": false,
          "internalType": "address",
          "name": "landlord",
          "type": "address"
        },
        {
          "indexed": false,
          "internalType": "address",
          "name": "tenant",
          "type": "address"
        },
        {
          "indexed": false,
          "internalType": "uint256",
          "name": "extension",
          "type": "uint256"
        }
      ],
      "name": "Cancel_Rent",
      "type": "event"
    },
    {
      "anonymous": false,
      "inputs": [
        {
          "indexed": false,
          "internalType": "uint256",
          "name": "id_rent",
          "type": "uint256"
        },
        {
          "indexed": false,
          "internalType": "address",
          "name": "landlord",
          "type": "address"
        },
        {
          "indexed": false,
          "internalType": "address",
          "name": "tenant",
          "type": "address"
        }
      ],
      "name": "Contract_End",
      "type": "event"
    },
    {
      "anonymous": false,
      "inputs": [
        {
          "indexed": false,
          "internalType": "address",
          "name": "landlord",
          "type": "address"
        },
        {
          "indexed": false,
          "internalType": "address",
          "name": "tenant",
          "type": "address"
        },
        {
          "indexed": false,
          "internalType": "uint256",
          "name": "frequency",
          "type": "uint256"
        },
        {
          "indexed": false,
          "internalType": "uint256",
          "name": "amount",
          "type": "uint256"
        }
      ],
      "name": "Offer_Accepted",
      "type": "event"
    },
    {
      "anonymous": false,
      "inputs": [
        {
          "indexed": false,
          "internalType": "address",
          "name": "bidder",
          "type": "address"
        },
        {
          "indexed": false,
          "internalType": "address",
          "name": "bidded",
          "type": "address"
        },
        {
          "indexed": false,
          "internalType": "enum Up_Conditions.update_comps",
          "name": "parameter",
          "type": "uint8"
        }
      ],
      "name": "Refused_request",
      "type": "event"
    },
    {
      "anonymous": false,
      "inputs": [
        {
          "indexed": false,
          "internalType": "uint256",
          "name": "id_rent",
          "type": "uint256"
        },
        {
          "indexed": false,
          "internalType": "address",
          "name": "landlord",
          "type": "address"
        },
        {
          "indexed": false,
          "internalType": "address",
          "name": "tenant",
          "type": "address"
        },
        {
          "indexed": false,
          "internalType": "uint256",
          "name": "amount",
          "type": "uint256"
        }
      ],
      "name": "Rent_Transfer",
      "type": "event"
    },
    {
      "anonymous": false,
      "inputs": [
        {
          "indexed": false,
          "internalType": "uint256",
          "name": "offer_id",
          "type": "uint256"
        },
        {
          "indexed": false,
          "internalType": "address",
          "name": "requestant",
          "type": "address"
        }
      ],
      "name": "Requested",
      "type": "event"
    },
    {
      "anonymous": false,
      "inputs": [
        {
          "indexed": false,
          "internalType": "uint256",
          "name": "id_rent",
          "type": "uint256"
        },
        {
          "indexed": false,
          "internalType": "uint256",
          "name": "amount",
          "type": "uint256"
        },
        {
          "indexed": false,
          "internalType": "address",
          "name": "landlord",
          "type": "address"
        },
        {
          "indexed": false,
          "internalType": "address",
          "name": "tenant",
          "type": "address"
        }
      ],
      "name": "Surety_Paid",
      "type": "event"
    },
    {
      "anonymous": false,
      "inputs": [
        {
          "indexed": false,
          "internalType": "string",
          "name": "dni",
          "type": "string"
        },
        {
          "indexed": false,
          "internalType": "string",
          "name": "nom",
          "type": "string"
        },
        {
          "indexed": false,
          "internalType": "string",
          "name": "adreca",
          "type": "string"
        },
        {
          "indexed": false,
          "internalType": "string",
          "name": "correu",
          "type": "string"
        }
      ],
      "name": "UserCreated",
      "type": "event"
    },
    {
      "inputs": [
        {
          "internalType": "uint256",
          "name": "",
          "type": "uint256"
        }
      ],
      "name": "aux_transfers",
      "outputs": [
        {
          "internalType": "uint256",
          "name": "id_rent",
          "type": "uint256"
        },
        {
          "internalType": "uint256",
          "name": "amount",
          "type": "uint256"
        },
        {
          "internalType": "string",
          "name": "message",
          "type": "string"
        }
      ],
      "stateMutability": "view",
      "type": "function",
      "constant": true
    },
    {
      "inputs": [],
      "name": "del_persona_fisica",
      "outputs": [],
      "stateMutability": "nonpayable",
      "type": "function"
    },
    {
      "inputs": [],
      "name": "del_persona_juridica",
      "outputs": [],
      "stateMutability": "nonpayable",
      "type": "function"
    },
    {
      "inputs": [
        {
          "internalType": "address",
          "name": "_address",
          "type": "address"
        }
      ],
      "name": "get_addr_fisica",
      "outputs": [
        {
          "internalType": "uint256",
          "name": "",
          "type": "uint256"
        }
      ],
      "stateMutability": "view",
      "type": "function",
      "constant": true
    },
    {
      "inputs": [],
      "name": "get_length_fisiques",
      "outputs": [
        {
          "internalType": "uint256",
          "name": "",
          "type": "uint256"
        }
      ],
      "stateMutability": "view",
      "type": "function",
      "constant": true
    },
    {
      "inputs": [],
      "name": "get_length_juridiques",
      "outputs": [
        {
          "internalType": "uint256",
          "name": "",
          "type": "uint256"
        }
      ],
      "stateMutability": "view",
      "type": "function",
      "constant": true
    },
    {
      "inputs": [
        {
          "internalType": "uint256",
          "name": "offer_id",
          "type": "uint256"
        }
      ],
      "name": "get_offer",
      "outputs": [
        {
          "components": [
            {
              "internalType": "address",
              "name": "user",
              "type": "address"
            },
            {
              "internalType": "bool",
              "name": "is_landlord",
              "type": "bool"
            },
            {
              "internalType": "uint256",
              "name": "amount",
              "type": "uint256"
            },
            {
              "internalType": "uint256",
              "name": "frequency",
              "type": "uint256"
            },
            {
              "internalType": "uint256",
              "name": "extension",
              "type": "uint256"
            },
            {
              "internalType": "uint256",
              "name": "contract_duration",
              "type": "uint256"
            },
            {
              "internalType": "bool",
              "name": "active",
              "type": "bool"
            },
            {
              "internalType": "uint256",
              "name": "surety",
              "type": "uint256"
            }
          ],
          "internalType": "struct Offers.Offer",
          "name": "",
          "type": "tuple"
        }
      ],
      "stateMutability": "view",
      "type": "function",
      "constant": true
    },
    {
      "inputs": [
        {
          "internalType": "address",
          "name": "_address",
          "type": "address"
        }
      ],
      "name": "get_pfisica",
      "outputs": [
        {
          "internalType": "string",
          "name": "",
          "type": "string"
        },
        {
          "internalType": "string",
          "name": "",
          "type": "string"
        },
        {
          "internalType": "string",
          "name": "",
          "type": "string"
        },
        {
          "internalType": "string",
          "name": "",
          "type": "string"
        }
      ],
      "stateMutability": "view",
      "type": "function",
      "constant": true
    },
    {
      "inputs": [],
      "name": "get_pfisiques",
      "outputs": [
        {
          "internalType": "address[]",
          "name": "",
          "type": "address[]"
        }
      ],
      "stateMutability": "view",
      "type": "function",
      "constant": true
    },
    {
      "inputs": [
        {
          "internalType": "address",
          "name": "_address",
          "type": "address"
        }
      ],
      "name": "get_pjuridica",
      "outputs": [
        {
          "internalType": "string",
          "name": "",
          "type": "string"
        },
        {
          "internalType": "string",
          "name": "",
          "type": "string"
        },
        {
          "internalType": "string",
          "name": "",
          "type": "string"
        },
        {
          "internalType": "string",
          "name": "",
          "type": "string"
        },
        {
          "internalType": "string",
          "name": "",
          "type": "string"
        }
      ],
      "stateMutability": "view",
      "type": "function",
      "constant": true
    },
    {
      "inputs": [],
      "name": "get_pjuridiques",
      "outputs": [
        {
          "internalType": "address[]",
          "name": "",
          "type": "address[]"
        }
      ],
      "stateMutability": "view",
      "type": "function",
      "constant": true
    },
    {
      "inputs": [],
      "name": "get_transfers",
      "outputs": [
        {
          "components": [
            {
              "internalType": "uint256",
              "name": "id_rent",
              "type": "uint256"
            },
            {
              "internalType": "uint256",
              "name": "amount",
              "type": "uint256"
            },
            {
              "internalType": "string",
              "name": "message",
              "type": "string"
            }
          ],
          "internalType": "struct Transfer.Transfer_t[]",
          "name": "",
          "type": "tuple[]"
        }
      ],
      "stateMutability": "view",
      "type": "function",
      "constant": true
    },
    {
      "inputs": [
        {
          "internalType": "address",
          "name": "_address",
          "type": "address"
        }
      ],
      "name": "is_persona_fisica",
      "outputs": [
        {
          "internalType": "bool",
          "name": "",
          "type": "bool"
        }
      ],
      "stateMutability": "view",
      "type": "function",
      "constant": true
    },
    {
      "inputs": [
        {
          "internalType": "address",
          "name": "_address",
          "type": "address"
        }
      ],
      "name": "is_persona_juridica",
      "outputs": [
        {
          "internalType": "bool",
          "name": "",
          "type": "bool"
        }
      ],
      "stateMutability": "view",
      "type": "function",
      "constant": true
    },
    {
      "inputs": [],
      "name": "offer_count",
      "outputs": [
        {
          "internalType": "uint256",
          "name": "",
          "type": "uint256"
        }
      ],
      "stateMutability": "view",
      "type": "function",
      "constant": true
    },
    {
      "inputs": [
        {
          "internalType": "uint256",
          "name": "",
          "type": "uint256"
        }
      ],
      "name": "offers",
      "outputs": [
        {
          "internalType": "address",
          "name": "user",
          "type": "address"
        },
        {
          "internalType": "bool",
          "name": "is_landlord",
          "type": "bool"
        },
        {
          "internalType": "uint256",
          "name": "amount",
          "type": "uint256"
        },
        {
          "internalType": "uint256",
          "name": "frequency",
          "type": "uint256"
        },
        {
          "internalType": "uint256",
          "name": "extension",
          "type": "uint256"
        },
        {
          "internalType": "uint256",
          "name": "contract_duration",
          "type": "uint256"
        },
        {
          "internalType": "bool",
          "name": "active",
          "type": "bool"
        },
        {
          "internalType": "uint256",
          "name": "surety",
          "type": "uint256"
        }
      ],
      "stateMutability": "view",
      "type": "function",
      "constant": true
    },
    {
      "inputs": [
        {
          "internalType": "address",
          "name": "",
          "type": "address"
        }
      ],
      "name": "pfisiques",
      "outputs": [
        {
          "internalType": "string",
          "name": "dni",
          "type": "string"
        },
        {
          "internalType": "string",
          "name": "nom",
          "type": "string"
        },
        {
          "internalType": "string",
          "name": "adreca",
          "type": "string"
        },
        {
          "internalType": "string",
          "name": "correu",
          "type": "string"
        }
      ],
      "stateMutability": "view",
      "type": "function",
      "constant": true
    },
    {
      "inputs": [
        {
          "internalType": "uint256",
          "name": "",
          "type": "uint256"
        }
      ],
      "name": "pfisiques_addr",
      "outputs": [
        {
          "internalType": "address",
          "name": "",
          "type": "address"
        }
      ],
      "stateMutability": "view",
      "type": "function",
      "constant": true
    },
    {
      "inputs": [
        {
          "internalType": "address",
          "name": "",
          "type": "address"
        }
      ],
      "name": "pjuridiques",
      "outputs": [
        {
          "internalType": "string",
          "name": "nif",
          "type": "string"
        },
        {
          "internalType": "string",
          "name": "den_social",
          "type": "string"
        },
        {
          "internalType": "string",
          "name": "adreca",
          "type": "string"
        },
        {
          "internalType": "string",
          "name": "dades_constitucio",
          "type": "string"
        },
        {
          "internalType": "string",
          "name": "apoderat",
          "type": "string"
        }
      ],
      "stateMutability": "view",
      "type": "function",
      "constant": true
    },
    {
      "inputs": [
        {
          "internalType": "uint256",
          "name": "",
          "type": "uint256"
        }
      ],
      "name": "pjuridiques_addr",
      "outputs": [
        {
          "internalType": "address",
          "name": "",
          "type": "address"
        }
      ],
      "stateMutability": "view",
      "type": "function",
      "constant": true
    },
    {
      "inputs": [],
      "name": "rent_count",
      "outputs": [
        {
          "internalType": "uint256",
          "name": "",
          "type": "uint256"
        }
      ],
      "stateMutability": "view",
      "type": "function",
      "constant": true
    },
    {
      "inputs": [],
      "name": "req_count",
      "outputs": [
        {
          "internalType": "uint256",
          "name": "",
          "type": "uint256"
        }
      ],
      "stateMutability": "view",
      "type": "function",
      "constant": true
    },
    {
      "inputs": [],
      "name": "req_payment_count",
      "outputs": [
        {
          "internalType": "uint256",
          "name": "",
          "type": "uint256"
        }
      ],
      "stateMutability": "view",
      "type": "function",
      "constant": true
    },
    {
      "inputs": [],
      "name": "request_count",
      "outputs": [
        {
          "internalType": "uint256",
          "name": "",
          "type": "uint256"
        }
      ],
      "stateMutability": "view",
      "type": "function",
      "constant": true
    },
    {
      "inputs": [
        {
          "internalType": "string",
          "name": "_dni",
          "type": "string"
        },
        {
          "internalType": "string",
          "name": "_nom",
          "type": "string"
        },
        {
          "internalType": "string",
          "name": "_adreca",
          "type": "string"
        },
        {
          "internalType": "string",
          "name": "_correu",
          "type": "string"
        }
      ],
      "name": "set_persona_fisica",
      "outputs": [],
      "stateMutability": "nonpayable",
      "type": "function"
    },
    {
      "inputs": [
        {
          "internalType": "string",
          "name": "_nif",
          "type": "string"
        },
        {
          "internalType": "string",
          "name": "_den_social",
          "type": "string"
        },
        {
          "internalType": "string",
          "name": "_adreca",
          "type": "string"
        },
        {
          "internalType": "string",
          "name": "_dades_constitucio",
          "type": "string"
        },
        {
          "internalType": "string",
          "name": "_apoderat",
          "type": "string"
        }
      ],
      "name": "set_persona_juridica",
      "outputs": [],
      "stateMutability": "nonpayable",
      "type": "function"
    },
    {
      "inputs": [],
      "name": "transfer_count",
      "outputs": [
        {
          "internalType": "uint256",
          "name": "",
          "type": "uint256"
        }
      ],
      "stateMutability": "view",
      "type": "function",
      "constant": true
    },
    {
      "inputs": [
        {
          "internalType": "uint256",
          "name": "",
          "type": "uint256"
        }
      ],
      "name": "transfers",
      "outputs": [
        {
          "internalType": "uint256",
          "name": "id_rent",
          "type": "uint256"
        },
        {
          "internalType": "uint256",
          "name": "amount",
          "type": "uint256"
        },
        {
          "internalType": "string",
          "name": "message",
          "type": "string"
        }
      ],
      "stateMutability": "view",
      "type": "function",
      "constant": true
    },
    {
      "inputs": [
        {
          "internalType": "string",
          "name": "new_adreca",
          "type": "string"
        }
      ],
      "name": "up_adreca_fisica",
      "outputs": [],
      "stateMutability": "nonpayable",
      "type": "function"
    },
    {
      "inputs": [
        {
          "internalType": "string",
          "name": "new_adreca",
          "type": "string"
        }
      ],
      "name": "up_adreca_juridica",
      "outputs": [],
      "stateMutability": "nonpayable",
      "type": "function"
    },
    {
      "inputs": [
        {
          "internalType": "string",
          "name": "new_apoderat",
          "type": "string"
        }
      ],
      "name": "up_apoderat",
      "outputs": [],
      "stateMutability": "nonpayable",
      "type": "function"
    },
    {
      "inputs": [
        {
          "internalType": "string",
          "name": "new_correu",
          "type": "string"
        }
      ],
      "name": "up_correu",
      "outputs": [],
      "stateMutability": "nonpayable",
      "type": "function"
    },
    {
      "inputs": [
        {
          "internalType": "string",
          "name": "new_dc",
          "type": "string"
        }
      ],
      "name": "up_dades_constitucio",
      "outputs": [],
      "stateMutability": "nonpayable",
      "type": "function"
    },
    {
      "inputs": [
        {
          "internalType": "string",
          "name": "new_den_social",
          "type": "string"
        }
      ],
      "name": "up_den_social",
      "outputs": [],
      "stateMutability": "nonpayable",
      "type": "function"
    },
    {
      "inputs": [
        {
          "internalType": "string",
          "name": "new_dni",
          "type": "string"
        }
      ],
      "name": "up_dni",
      "outputs": [],
      "stateMutability": "nonpayable",
      "type": "function"
    },
    {
      "inputs": [
        {
          "internalType": "string",
          "name": "new_nif",
          "type": "string"
        }
      ],
      "name": "up_nif",
      "outputs": [],
      "stateMutability": "nonpayable",
      "type": "function"
    },
    {
      "inputs": [
        {
          "internalType": "string",
          "name": "new_nom",
          "type": "string"
        }
      ],
      "name": "up_nom",
      "outputs": [],
      "stateMutability": "nonpayable",
      "type": "function"
    },
    {
      "inputs": [
        {
          "internalType": "bool",
          "name": "_is_landlord",
          "type": "bool"
        },
        {
          "internalType": "uint256",
          "name": "_amount",
          "type": "uint256"
        },
        {
          "internalType": "uint256",
          "name": "_frequency",
          "type": "uint256"
        },
        {
          "internalType": "uint256",
          "name": "_extension",
          "type": "uint256"
        },
        {
          "internalType": "uint256",
          "name": "_contract_duration",
          "type": "uint256"
        },
        {
          "internalType": "uint256",
          "name": "surety",
          "type": "uint256"
        }
      ],
      "name": "new_offer",
      "outputs": [],
      "stateMutability": "nonpayable",
      "type": "function"
    },
    {
      "inputs": [
        {
          "internalType": "uint256",
          "name": "offer_id",
          "type": "uint256"
        }
      ],
      "name": "pick_offer",
      "outputs": [],
      "stateMutability": "nonpayable",
      "type": "function"
    },
    {
      "inputs": [
        {
          "internalType": "uint256",
          "name": "id_request",
          "type": "uint256"
        }
      ],
      "name": "accept_rent_request",
      "outputs": [],
      "stateMutability": "nonpayable",
      "type": "function"
    },
    {
      "inputs": [
        {
          "internalType": "uint256",
          "name": "id_rent",
          "type": "uint256"
        },
        {
          "internalType": "string",
          "name": "message",
          "type": "string"
        }
      ],
      "name": "pay_surety",
      "outputs": [],
      "stateMutability": "nonpayable",
      "type": "function"
    },
    {
      "inputs": [
        {
          "internalType": "uint256",
          "name": "id_rent",
          "type": "uint256"
        },
        {
          "internalType": "string",
          "name": "message",
          "type": "string"
        }
      ],
      "name": "pay_rent",
      "outputs": [],
      "stateMutability": "nonpayable",
      "type": "function"
    },
    {
      "inputs": [
        {
          "internalType": "uint256",
          "name": "id_rent",
          "type": "uint256"
        }
      ],
      "name": "cancel_rent",
      "outputs": [],
      "stateMutability": "nonpayable",
      "type": "function"
    },
    {
      "inputs": [
        {
          "internalType": "uint256",
          "name": "id_rent",
          "type": "uint256"
        },
        {
          "internalType": "bool",
          "name": "accept",
          "type": "bool"
        },
        {
          "internalType": "string",
          "name": "message",
          "type": "string"
        }
      ],
      "name": "surety_back",
      "outputs": [],
      "stateMutability": "nonpayable",
      "type": "function"
    },
    {
      "inputs": [
        {
          "internalType": "uint256",
          "name": "id_rent",
          "type": "uint256"
        },
        {
          "internalType": "uint256",
          "name": "value",
          "type": "uint256"
        },
        {
          "internalType": "string",
          "name": "p",
          "type": "string"
        }
      ],
      "name": "set_request",
      "outputs": [],
      "stateMutability": "nonpayable",
      "type": "function"
    },
    {
      "inputs": [
        {
          "internalType": "uint256",
          "name": "id_req",
          "type": "uint256"
        }
      ],
      "name": "request_accepted",
      "outputs": [],
      "stateMutability": "nonpayable",
      "type": "function"
    },
    {
      "inputs": [
        {
          "internalType": "uint256",
          "name": "id_req",
          "type": "uint256"
        }
      ],
      "name": "request_refused",
      "outputs": [],
      "stateMutability": "nonpayable",
      "type": "function"
    },
    {
      "inputs": [
        {
          "internalType": "uint256",
          "name": "_id_rent",
          "type": "uint256"
        }
      ],
      "name": "create_payment_request",
      "outputs": [],
      "stateMutability": "nonpayable",
      "type": "function"
    },
    {
      "inputs": [
        {
          "internalType": "uint256",
          "name": "_id_rent",
          "type": "uint256"
        }
      ],
      "name": "rent_paid",
      "outputs": [],
      "stateMutability": "nonpayable",
      "type": "function"
    },
    {
      "inputs": [
        {
          "internalType": "uint256",
          "name": "id_rent",
          "type": "uint256"
        }
      ],
      "name": "get_rent_state",
      "outputs": [
        {
          "internalType": "string",
          "name": "",
          "type": "string"
        }
      ],
      "stateMutability": "view",
      "type": "function",
      "constant": true
    }
  ],
  "bytecode": "0x60806040526000600455600060075560006009556000600b556000600d556000600f5534801561002e57600080fd5b50614bab8061003e6000396000f3fe608060405234801561001057600080fd5b50600436106102d65760003560e01c80638651190e11610182578063b5a6ce68116100e9578063d445d494116100a2578063ea23c76e1161007c578063ea23c76e1461075b578063ea2cb76714610764578063f0df312b14610777578063f1f2b6421461078057600080fd5b8063d445d494146106c4578063dbe66ac3146106cc578063ddf8d9f01461074857600080fd5b8063b5a6ce6814610671578063ba98b95214610684578063bd0e9d0514610697578063bdee9e7d146106aa578063c0562168146106b3578063c69a2042146106bc57600080fd5b80639c9720cd1161013b5780639c9720cd146106125780639faacfc914610625578063a2b0923c14610638578063a386c04c14610640578063a65f2d9614610649578063a9f71b311461065e57600080fd5b80638651190e1461051d57806387c6e18e146105305780638a72ea6a146105435780638be26e0a146105e45780638d1c5e77146105f75780639377d711146105ff57600080fd5b80635f102fba116102415780636f84d66b116101fa5780637a66ff0d116101d45780637a66ff0d146104cf5780637c2b69e3146104e2578063849cd8d0146104f55780638607d56d1461050857600080fd5b80636f84d66b1461048f5780637287dd9e14610498578063751c3733146104ab57600080fd5b80635f102fba1461040f5780636184dc57146104225780636380e3851461043557806366a44780146104485780636861dc9f1461045b5780636c6d6b9e1461047c57600080fd5b806334b3824d1161029357806334b3824d146103905780633636e2f8146103a35780633bb280be146103b65780634a263730146103e15780634a50237c146103f457806352602afb146103fc57600080fd5b80630d22a6af146102db5780631870bc99146103035780631d4e82f9146103185780632880de271461032b5780632ec8b9bb1461034d57806334171df61461036d575b600080fd5b6102ee6102e93660046142a7565b610793565b60405190151581526020015b60405180910390f35b6103166103113660046142ec565b6107fd565b005b6103166103263660046143d9565b610866565b61033e610339366004614416565b6108d3565b6040516102fa93929190614487565b61036061035b366004614416565b610995565b6040516102fa91906144af565b61038061037b3660046142a7565b610bd2565b6040516102fa94939291906144c2565b61031661039e366004614416565b610e1a565b6103166103b13660046143d9565b610fae565b6103c96103c4366004614416565b61101d565b6040516001600160a01b0390911681526020016102fa565b6103166103ef3660046143d9565b611047565b6103166110b4565b61031661040a36600461451a565b611144565b6102ee61041d3660046142a7565b611270565b610316610430366004614416565b6112d1565b6103166104433660046143d9565b611365565b6103166104563660046145ec565b6113ce565b61046e6104693660046142a7565b611547565b6040519081526020016102fa565b61038061048a3660046142a7565b6115ee565b61046e600b5481565b6103166104a6366004614416565b61185e565b6104be6104b93660046142a7565b611aa8565b6040516102fa959493929190614633565b6103166104dd366004614416565b611db1565b6103166104f03660046145ec565b611ffe565b6103166105033660046146a0565b612171565b610510612369565b6040516102fa91906146f0565b61031661052b366004614416565b61246e565b61031661053e3660046143d9565b6124c1565b61059d610551366004614416565b600c6020526000908152604090208054600182015460028301546003840154600485015460058601546006909601546001600160a01b0386169660ff600160a01b909704871696169088565b604080516001600160a01b0390991689529615156020890152958701949094526060860192909252608085015260a0840152151560c083015260e0820152610100016102fa565b6104be6105f23660046142a7565b61252e565b610316612804565b61033e61060d366004614416565b61286a565b610316610620366004614416565b61287a565b61031661063336600461476f565b612b33565b60015461046e565b61046e60075481565b610651612c32565b6040516102fa919061481c565b61031661066c3660046143d9565b612c94565b61031661067f366004614416565b612d01565b6103166106923660046143d9565b612dd9565b6103166106a5366004614869565b612e48565b61046e600f5481565b61046e600d5481565b60035461046e565b610651612ec4565b6106df6106da366004614416565b612f24565b6040516102fa919081516001600160a01b0316815260208083015115159082015260408083015190820152606080830151908201526080808301519082015260a0828101519082015260c08083015115159082015260e091820151918101919091526101000190565b6103166107563660046143d9565b612fb0565b61046e60045481565b6103c9610772366004614416565b61301f565b61046e60095481565b61031661078e3660046143d9565b61302f565b6000805b6003548110156107f457826001600160a01b0316600382815481106107be576107be6148aa565b6000918252602090912001546001600160a01b031614156107e25750600192915050565b806107ec816148d6565b915050610797565b50600092915050565b3361080781611270565b80610816575061081681610793565b801561082a57506001600160a01b03811615155b61084f5760405162461bcd60e51b8152600401610846906148f1565b60405180910390fd5b61085d87878787878761309e565b50505050505050565b3361087081611270565b61088c5760405162461bcd60e51b815260040161084690614928565b818051600014156108af5760405162461bcd60e51b81526004016108469061496d565b3360009081526020818152604090912084516108cd92860190614107565b50505050565b600681815481106108e357600080fd5b90600052602060002090600302016000915090508060000154908060010154908060020180546109129061499b565b80601f016020809104026020016040519081016040528092919081815260200182805461093e9061499b565b801561098b5780601f106109605761010080835404028352916020019161098b565b820191906000526020600020905b81548152906001019060200180831161096e57829003601f168201915b5050505050905083565b600081815260106020526040902060010154606090339083906001600160a01b03168214806109dd57506000818152601060205260409020546001600160a01b038381169116145b6109f95760405162461bcd60e51b8152600401610846906149d6565b60008481526010602052604081206006015460ff166004811115610a1f57610a1f614a0d565b1415610a50576040518060400160405280600b81526020016a139bdd0814dd185c9d195960aa1b8152509250610bcb565b600160008581526010602052604090206006015460ff166004811115610a7857610a78614a0d565b1415610aa5576040518060400160405280600781526020016614dd185c9d195960ca1b8152509250610bcb565b600260008581526010602052604090206006015460ff166004811115610acd57610acd614a0d565b1415610afc576040518060400160405280600981526020016810d85b98d95b1b195960ba1b8152509250610bcb565b600460008581526010602052604090206006015460ff166004811115610b2457610b24614a0d565b1415610b4f5760405180604001604052806005815260200164115b99195960da1b8152509250610bcb565b600360008581526010602052604090206006015460ff166004811115610b7757610b77614a0d565b1415610bab576040518060400160405280600e81526020016d5375726574792050656e64696e6760901b8152509250610bcb565b604051806040016040528060048152602001634e6f6e6560e01b81525092505b5050919050565b600060208190529081526040902080548190610bed9061499b565b80601f0160208091040260200160405190810160405280929190818152602001828054610c199061499b565b8015610c665780601f10610c3b57610100808354040283529160200191610c66565b820191906000526020600020905b815481529060010190602001808311610c4957829003601f168201915b505050505090806001018054610c7b9061499b565b80601f0160208091040260200160405190810160405280929190818152602001828054610ca79061499b565b8015610cf45780601f10610cc957610100808354040283529160200191610cf4565b820191906000526020600020905b815481529060010190602001808311610cd757829003601f168201915b505050505090806002018054610d099061499b565b80601f0160208091040260200160405190810160405280929190818152602001828054610d359061499b565b8015610d825780601f10610d5757610100808354040283529160200191610d82565b820191906000526020600020905b815481529060010190602001808311610d6557829003601f168201915b505050505090806003018054610d979061499b565b80601f0160208091040260200160405190810160405280929190818152602001828054610dc39061499b565b8015610e105780601f10610de557610100808354040283529160200191610e10565b820191906000526020600020905b815481529060010190602001808311610df357829003601f168201915b5050505050905084565b600081815260106020526040902054339082906001600160a01b03168214610e545760405162461bcd60e51b815260040161084690614a23565b60008381526010602052604090206002810154600390910154849190610e7a9042614a6f565b11610ec75760405162461bcd60e51b815260206004820152601760248201527f5061796d656e7420686173206e6f7420657870697265640000000000000000006044820152606401610846565b604080516060810182526007548152602081018681526000928201838152600880546001808201835591909552835160039095027ff3f7a9fe364faab93b216da50a3214154f22a0a2b415b23a84c8169e8b636ee3810195865592517ff3f7a9fe364faab93b216da50a3214154f22a0a2b415b23a84c8169e8b636ee484015590517ff3f7a9fe364faab93b216da50a3214154f22a0a2b415b23a84c8169e8b636ee59092018054939493909160ff19909116908381811115610f8c57610f8c614a0d565b0217905550506007805491506000610fa3836148d6565b919050555050505050565b33610fb881610793565b610fd45760405162461bcd60e51b815260040161084690614928565b81805160001415610ff75760405162461bcd60e51b81526004016108469061496d565b33600090815260026020818152604090922085516108cd93919092019190860190614107565b6003818154811061102d57600080fd5b6000918252602090912001546001600160a01b0316905081565b3361105181611270565b61106d5760405162461bcd60e51b815260040161084690614928565b818051600014156110905760405162461bcd60e51b81526004016108469061496d565b3360009081526020818152604090912084516108cd92600290920191860190614107565b336000908152600260205260408120906110ce828261418b565b6110dc60018301600061418b565b6110ea60028301600061418b565b6110f860038301600061418b565b61110660048301600061418b565b50506000611113336131cb565b905060038181548110611128576111286148aa565b600091825260209091200180546001600160a01b031916905550565b6111766040518060a0016040528060608152602001606081526020016060815260200160608152602001606081525090565b85815260208082018690526040808301869052606083018590526080830184905233600090815260028352208251805184936111b6928492910190614107565b5060208281015180516111cf9260018501920190614107565b50604082015180516111eb916002840191602090910190614107565b5060608201518051611207916003840191602090910190614107565b5060808201518051611223916004840191602090910190614107565b5050600380546001810182556000919091527fc2575a0e9e593c00f959f8c92f12db2869c3395a3b0502d05e2516446f71f85b0180546001600160a01b0319163317905550505050505050565b6000805b6001548110156107f457826001600160a01b03166001828154811061129b5761129b6148aa565b6000918252602090912001546001600160a01b031614156112bf5750600192915050565b806112c9816148d6565b915050611274565b6000818152600a6020526040902060020154600160008281526010602052604090206006015460ff16600481111561130b5761130b614a0d565b148061133c5750600260008281526010602052604090206006015460ff16600481111561133a5761133a614a0d565b145b6113585760405162461bcd60e51b815260040161084690614a86565b61136182613229565b5050565b3361136f81610793565b61138b5760405162461bcd60e51b815260040161084690614928565b818051600014156113ae5760405162461bcd60e51b81526004016108469061496d565b33600090815260026020908152604090912084516108cd92860190614107565b600082815260106020526040902060010154339083906001600160a01b0316821461140b5760405162461bcd60e51b815260040161084690614ab3565b836000808281526010602052604090206006015460ff16600481111561143357611433614a0d565b146114935760405162461bcd60e51b815260206004820152602a60248201527f52656e7420697320616c726561647920737461727465642c206f7220646f6573604482015269081b9bdd08195e1a5cdd60b21b6064820152608401610846565b6000858152601060209081526040918290206005810154815460019092015484518a8152938401919091526001600160a01b039182168385015216606082015290517fb367e76c20a0025552c4120aea2506555be82e604557645930c356021c5750c69181900360800190a160008581526010602052604090206009015461151d90869086613338565b600085815260106020526040902060060180546001919060ff191682805b02179055505050505050565b6000805b6001548110156115a557826001600160a01b031660018281548110611572576115726148aa565b6000918252602090912001546001600160a01b031614156115935792915050565b8061159d816148d6565b91505061154b565b5060405162461bcd60e51b815260206004820152601960248201527f4e6f2075736572207769746820746861742061646472657373000000000000006044820152606401610846565b6001600160a01b03811660009081526020819052604090208054606091829182918291600182019060028301906003840190849061162b9061499b565b80601f01602080910402602001604051908101604052809291908181526020018280546116579061499b565b80156116a45780601f10611679576101008083540402835291602001916116a4565b820191906000526020600020905b81548152906001019060200180831161168757829003601f168201915b505050505093508280546116b79061499b565b80601f01602080910402602001604051908101604052809291908181526020018280546116e39061499b565b80156117305780601f1061170557610100808354040283529160200191611730565b820191906000526020600020905b81548152906001019060200180831161171357829003601f168201915b505050505092508180546117439061499b565b80601f016020809104026020016040519081016040528092919081815260200182805461176f9061499b565b80156117bc5780601f10611791576101008083540402835291602001916117bc565b820191906000526020600020905b81548152906001019060200180831161179f57829003601f168201915b505050505091508080546117cf9061499b565b80601f01602080910402602001604051908101604052809291908181526020018280546117fb9061499b565b80156118485780601f1061181d57610100808354040283529160200191611848565b820191906000526020600020905b81548152906001019060200180831161182b57829003601f168201915b5050505050905093509350935093509193509193565b6000818152600e60209081526040808320600101548352600c9091529020546001600160a01b031633146118d45760405162461bcd60e51b815260206004820152601760248201527f55736572206973206e6f7420746865206f6666657265720000000000000000006044820152606401610846565b6000818152600e60208181526040808420600180820154808752600c855283872084516101008101865281546001600160a01b038082168352600160a01b90910460ff9081161515838a01908152958401548389015260028085015460608086019190915260038601546080860152600486015460a086015260058601548316151560c086015260069095015460e08501529a8c9052988852865192830187528554168252958101919091529590910154909316151590840152905190919015611a315781518151606084015160a08501516119d0939291906119b79042614afd565b8660400151876080015187604001518960e0015161344d565b8151815160608085015160408087015181516001600160a01b0396871681529590941660208601528401528201527f5c6efb4566e42c66d85b971c67653ded738f8754d5af3ad6e9a6241c0538059e906080015b60405180910390a1505050565b80518251606084015160a0850151611a50939291906119b79042614afd565b8051825160608085015160408087015181516001600160a01b0396871681529590941660208601528401528201527f5c6efb4566e42c66d85b971c67653ded738f8754d5af3ad6e9a6241c0538059e90608001611a24565b6001600160a01b038116600090815260026020819052604090912080546060928392839283928392916001830191830190600384019060048501908590611aee9061499b565b80601f0160208091040260200160405190810160405280929190818152602001828054611b1a9061499b565b8015611b675780601f10611b3c57610100808354040283529160200191611b67565b820191906000526020600020905b815481529060010190602001808311611b4a57829003601f168201915b50505050509450838054611b7a9061499b565b80601f0160208091040260200160405190810160405280929190818152602001828054611ba69061499b565b8015611bf35780601f10611bc857610100808354040283529160200191611bf3565b820191906000526020600020905b815481529060010190602001808311611bd657829003601f168201915b50505050509350828054611c069061499b565b80601f0160208091040260200160405190810160405280929190818152602001828054611c329061499b565b8015611c7f5780601f10611c5457610100808354040283529160200191611c7f565b820191906000526020600020905b815481529060010190602001808311611c6257829003601f168201915b50505050509250818054611c929061499b565b80601f0160208091040260200160405190810160405280929190818152602001828054611cbe9061499b565b8015611d0b5780601f10611ce057610100808354040283529160200191611d0b565b820191906000526020600020905b815481529060010190602001808311611cee57829003601f168201915b50505050509150808054611d1e9061499b565b80601f0160208091040260200160405190810160405280929190818152602001828054611d4a9061499b565b8015611d975780601f10611d6c57610100808354040283529160200191611d97565b820191906000526020600020905b815481529060010190602001808311611d7a57829003601f168201915b505050505090509450945094509450945091939590929450565b600081815260106020526040902060010154339082906001600160a01b0316821480611df657506000818152601060205260409020546001600160a01b038381169116145b611e125760405162461bcd60e51b8152600401610846906149d6565b82600160008281526010602052604090206006015460ff166004811115611e3b57611e3b614a0d565b1480611e6c5750600260008281526010602052604090206006015460ff166004811115611e6a57611e6a614a0d565b145b611e885760405162461bcd60e51b815260040161084690614a86565b600084815260106020908152604080832081516101408101835281546001600160a01b03908116825260018301541693810193909352600281015491830191909152600381015460608301526004808201546080840152600582015460a0840152600682015460c084019160ff90911690811115611f0857611f08614a0d565b6004811115611f1957611f19614a0d565b8152602001600782015481526020016008820160009054906101000a900460ff1615151515815260200160098201548152505090507fb4d13f90fbce7f7fa5ba9b609e10a68274ce3289de492880e616c0b3d130314a85826000015183602001518460e00151604051611faf94939291909384526001600160a01b03928316602085015291166040830152606082015260800190565b60405180910390a1600085815260106020526040902060068101805460ff1916600217905560070154611fe29042614afd565b6000958652601060205260409095206004019490945550505050565b60008281526010602052604090206003810154600290910154806120228342614a6f565b10156120705760405162461bcd60e51b815260206004820152601b60248201527f546f206561726c7920746f207265616c697a65207061796d656e7400000000006044820152606401610846565b600084815260106020526040902060010154339085906001600160a01b031682146120ad5760405162461bcd60e51b815260040161084690614ab3565b85600160008281526010602052604090206006015460ff1660048111156120d6576120d6614a0d565b14806121075750600260008281526010602052604090206006015460ff16600481111561210557612105614a0d565b145b6121235760405162461bcd60e51b815260040161084690614a86565b60008781526010602052604090204260038201556005015461214790889088613338565b600087815260106020526040902060040154421061216857612168876136dc565b61085d87612d01565b82600160008281526010602052604090206006015460ff16600481111561219a5761219a614a0d565b14806121cb5750600260008281526010602052604090206006015460ff1660048111156121c9576121c9614a0d565b145b6121e75760405162461bcd60e51b815260040161084690614a86565b600084815260106020526040902060010154339085906001600160a01b031682148061222c57506000818152601060205260409020546001600160a01b038381169116145b6122485760405162461bcd60e51b8152600401610846906149d6565b60006122548733613882565b905080156122c1576000878152601060205260409020600101546001600160a01b031633146122bc5760405162461bcd60e51b815260206004820152601460248201527302ab9b2b91034b9903737ba103a32b730b73a17160651b6044820152606401610846565b612320565b6000878152601060205260409020546001600160a01b031633146123205760405162461bcd60e51b815260206004820152601660248201527502ab9b2b91034b9903737ba103630b7323637b93217160551b6044820152606401610846565b600061232b86613927565b6000898152601060205260409020805460019091015491925061235f918a916001600160a01b039081169116858b86613af2565b5050505050505050565b60606005805480602002602001604051908101604052809291908181526020016000905b82821015612465578382906000526020600020906003020160405180606001604052908160008201548152602001600182015481526020016002820180546123d49061499b565b80601f01602080910402602001604051908101604052809291908181526020018280546124009061499b565b801561244d5780601f106124225761010080835404028352916020019161244d565b820191906000526020600020905b81548152906001019060200180831161243057829003601f168201915b5050505050815250508152602001906001019061238d565b50505050905090565b3361247881611270565b80612487575061248781610793565b801561249b57506001600160a01b03811615155b6124b75760405162461bcd60e51b8152600401610846906148f1565b6113618233613b5d565b336124cb81611270565b6124e75760405162461bcd60e51b815260040161084690614928565b8180516000141561250a5760405162461bcd60e51b81526004016108469061496d565b3360009081526020818152604090912084516108cd92600390920191860190614107565b6002602052600090815260409020805481906125499061499b565b80601f01602080910402602001604051908101604052809291908181526020018280546125759061499b565b80156125c25780601f10612597576101008083540402835291602001916125c2565b820191906000526020600020905b8154815290600101906020018083116125a557829003601f168201915b5050505050908060010180546125d79061499b565b80601f01602080910402602001604051908101604052809291908181526020018280546126039061499b565b80156126505780601f1061262557610100808354040283529160200191612650565b820191906000526020600020905b81548152906001019060200180831161263357829003601f168201915b5050505050908060020180546126659061499b565b80601f01602080910402602001604051908101604052809291908181526020018280546126919061499b565b80156126de5780601f106126b3576101008083540402835291602001916126de565b820191906000526020600020905b8154815290600101906020018083116126c157829003601f168201915b5050505050908060030180546126f39061499b565b80601f016020809104026020016040519081016040528092919081815260200182805461271f9061499b565b801561276c5780601f106127415761010080835404028352916020019161276c565b820191906000526020600020905b81548152906001019060200180831161274f57829003601f168201915b5050505050908060040180546127819061499b565b80601f01602080910402602001604051908101604052809291908181526020018280546127ad9061499b565b80156127fa5780601f106127cf576101008083540402835291602001916127fa565b820191906000526020600020905b8154815290600101906020018083116127dd57829003601f168201915b5050505050905085565b3360009081526020819052604081209061281e828261418b565b61282c60018301600061418b565b61283a60028301600061418b565b61284860038301600061418b565b5050600061285533611547565b905060018181548110611128576111286148aa565b600581815481106108e357600080fd5b6000818152600a6020526040902060020154600160008281526010602052604090206006015460ff1660048111156128b4576128b4614a0d565b14806128e55750600260008281526010602052604090206006015460ff1660048111156128e3576128e3614a0d565b145b6129015760405162461bcd60e51b815260040161084690614a86565b6000828152600a602052604081205460ff16600281111561292457612924614a0d565b14156129805760405162461bcd60e51b815260206004820152602560248201527f43616e6e6f74206368616e676520612076616c756520746861742069732061706044820152641c1b1a595960da1b6064820152608401610846565b61298982613cfc565b6000828152600a6020526040812060039081015460ff16908111156129b0576129b0614a0d565b14156129e4576000828152600a60209081526040808320600481015460029182015485526010909352922090910155612af6565b60016000838152600a6020526040902060039081015460ff1690811115612a0d57612a0d614a0d565b1415612a42576000828152600a6020908152604080832060048101546002909101548452601090925290912060050155612af6565b60026000838152600a6020526040902060039081015460ff1690811115612a6b57612a6b614a0d565b1415612a9e576000828152600a602090815260408083206004808201546002909201548552601090935292200155612af6565b6000828152600a6020526040902060039081015460ff1681811115612ac557612ac5614a0d565b1415612af6576000828152600a60209081526040808320600481015460029091015484526010909252909120600701555b60405162461bcd60e51b81526020600482015260126024820152714e6f20706f737369626c652075706461746560701b6044820152606401610846565b612b5e6040518060800160405280606081526020016060815260200160608152602001606081525090565b848152602080820185905260408083018590526060830184905233600090815280835220825180518493612b96928492910190614107565b506020828101518051612baf9260018501920190614107565b5060408201518051612bcb916002840191602090910190614107565b5060608201518051612be7916003840191602090910190614107565b50506001805480820182556000919091527fb10e2d527612073b26eecdfd717e6a320cf44b4afac2b0732d9fcbe2b7fa0cf60180546001600160a01b03191633179055505050505050565b60606003805480602002602001604051908101604052809291908181526020018280548015612c8a57602002820191906000526020600020905b81546001600160a01b03168152600190910190602001808311612c6c575b5050505050905090565b33612c9e81611270565b612cba5760405162461bcd60e51b815260040161084690614928565b81805160001415612cdd5760405162461bcd60e51b81526004016108469061496d565b3360009081526020818152604090912084516108cd92600190920191860190614107565b60005b600854811115611361578160088281548110612d2257612d226148aa565b906000526020600020906003020160010154148015612d7b5750600060088281548110612d5157612d516148aa565b600091825260209091206002600390920201015460ff166001811115612d7957612d79614a0d565b145b15612dc757600160088281548110612d9557612d956148aa565b60009182526020909120600260039092020101805460ff191660018381811115612dc157612dc1614a0d565b02179055505b80612dd1816148d6565b915050612d04565b33612de381610793565b612dff5760405162461bcd60e51b815260040161084690614928565b81805160001415612e225760405162461bcd60e51b81526004016108469061496d565b33600090815260026020908152604090912084516108cd92600490920191860190614107565b600083815260106020526040902054339084906001600160a01b03168214612e825760405162461bcd60e51b815260040161084690614a23565b600085815260106020526040902060050154612ea19086908587613e01565b600085815260106020526040902060060180546004919060ff191660018361153b565b60606001805480602002602001604051908101604052809291908181526020018280548015612c8a576020028201919060005260206000209081546001600160a01b03168152600190910190602001808311612c6c575050505050905090565b612f2c6141c8565b506000908152600c602090815260409182902082516101008101845281546001600160a01b038116825260ff600160a01b90910481161515938201939093526001820154938101939093526002810154606084015260038101546080840152600481015460a08401526005810154909116151560c08301526006015460e082015290565b33612fba81610793565b612fd65760405162461bcd60e51b815260040161084690614928565b81805160001415612ff95760405162461bcd60e51b81526004016108469061496d565b33600090815260026020908152604090912084516108cd92600190920191860190614107565b6001818154811061102d57600080fd5b3361303981610793565b6130555760405162461bcd60e51b815260040161084690614928565b818051600014156130785760405162461bcd60e51b81526004016108469061496d565b33600090815260026020908152604090912084516108cd92600390920191860190614107565b336130a881611270565b806130b757506130b781610793565b6130f95760405162461bcd60e51b815260206004820152601360248201527202ab9b2b91034b9903737ba1030b23232b2171606d1b6044820152606401610846565b6131016141c8565b338152871515602080830191825260408084018a8152606085018a8152608086018a815260a087018a815260e088018a8152600b80546000908152600c9098529587208951815499511515600160a01b026001600160a81b0319909a166001600160a01b039190911617989098178855935160018801559151600287015551600386015551600485015560c085015160058501805491151560ff1990921691909117905551600690930192909255815491906131bc836148d6565b91905055505050505050505050565b6000805b6003548110156115a557826001600160a01b0316600382815481106131f6576131f66148aa565b6000918252602090912001546001600160a01b031614156132175792915050565b80613221816148d6565b9150506131cf565b6000818152600a60205260409020600101546001600160a01b031633146132925760405162461bcd60e51b815260206004820152601a60248201527f55736572206973206e6f742074686520626964646564206f6e650000000000006044820152606401610846565b6000818152600a602052604081205460ff1660028111156132b5576132b5614a0d565b146132bf57600080fd5b6000818152600a602052604090819020805460ff1916600217808255600182015460039092015492517f4502eb4480075d2fdfb5549aab8f9230c12abc3d254c300b6c4f1cacabcf8ae49361332d936101009093046001600160a01b0390811693169160ff90911690614b15565b60405180910390a150565b600083815260106020526040902060010154339084906001600160a01b031682146133755760405162461bcd60e51b815260040161084690614ab3565b60408051606081018252868152602080820187815292820186815260058054600181018255600091909152835160039091027f036b6384b5eca791c62761152d0c79bb0604c104a5fb6f4eb0703f3154bb3db0810191825594517f036b6384b5eca791c62761152d0c79bb0604c104a5fb6f4eb0703f3154bb3db1860155905180519394919361342e937f036b6384b5eca791c62761152d0c79bb0604c104a5fb6f4eb0703f3154bb3db2909301929190910190614107565b50506004805491506000613441836148d6565b91905055505050505050565b8761345781611270565b80613466575061346681610793565b801561347a57506001600160a01b03811615155b6134965760405162461bcd60e51b8152600401610846906148f1565b876134a081611270565b806134af57506134af81610793565b80156134c357506001600160a01b03811615155b6134df5760405162461bcd60e51b8152600401610846906148f1565b85600081116135305760405162461bcd60e51b815260206004820152601e60248201527f416d6f756e74206d757374206e6f74206265206c657373207468616e203000006044820152606401610846565b886000811161358b5760405162461bcd60e51b815260206004820152602160248201527f4672657175656e6379206d757374206e6f74206265206c657373207468616e206044820152600360fc1b6064820152608401610846565b61359361421a565b6001600160a01b038d811682528c166020820152604081018b9052600060608201819052608082018b905260a082018a905260e08201899052871515610100830152610120820187905260c0820181905250600f54600090815260106020908152604091829020835181546001600160a01b039182166001600160a01b03199182161783559285015160018084018054929093169190941617905591830151600283015560608301516003830155608083015160048084019190915560a0840151600584015560c08401516006840180548695949293919260ff1990911691849081111561368357613683614a0d565b021790555060e0820151600782015561010082015160088201805460ff191691151591909117905561012090910151600990910155600f80549060006136c8836148d6565b919050555050505050505050505050505050565b80600160008281526010602052604090206006015460ff16600481111561370557613705614a0d565b14806137365750600260008281526010602052604090206006015460ff16600481111561373457613734614a0d565b145b6137525760405162461bcd60e51b815260040161084690614a86565b600082815260106020908152604080832081516101408101835281546001600160a01b03908116825260018301541693810193909352600281015491830191909152600381015460608301526004808201546080840152600582015460a0840152600682015460c084019160ff909116908111156137d2576137d2614a0d565b60048111156137e3576137e3614a0d565b81526007820154602080830191909152600883015460ff16151560408084019190915260099093015460609283015283518482015184518981526001600160a01b0392831693810193909352168184015291519293507f16adc1b7459c231f5959ebe9700eecc180d2e525d4fc985913699c18df82a24f92918290030190a150506000908152601060205260409020600601805460ff19166003179055565b6000828152601060205260408120546001600160a01b03838116911614156138ac57506000613921565b6000838152601060205260409020600101546001600160a01b03838116911614156138d957506001613921565b60405162461bcd60e51b815260206004820152601b60248201527f4e6f206164647265737320696e207468697320636f6e747261637400000000006044820152606401610846565b92915050565b604051686672657175656e637960b81b602082015260009060290160405160208183030381529060405280519060200120826040516020016139699190614b59565b60405160208183030381529060405280519060200120141561398d57506000919050565b60405165185b5bdd5b9d60d21b602082015260260160405160208183030381529060405280519060200120826040516020016139c99190614b59565b6040516020818303038152906040528051906020012014156139ed57506001919050565b6040516b18dbdb9d1c9858dd08195b9960a21b6020820152602c016040516020818303038152906040528051906020012082604051602001613a2f9190614b59565b604051602081830303815290604052805190602001201415613a5357506002919050565b6040516832bc3a32b739b4b7b760b91b60208201526029016040516020818303038152906040528051906020012082604051602001613a929190614b59565b604051602081830303815290604052805190602001201415613ab657506003919050565b60405162461bcd60e51b815260206004820152601160248201527023b7ba103130b2103830b930b6b2ba32b960791b6044820152606401610846565b8215613b0a57613b058685878486613fca565b613b1c565b82613b1c57613b1c8686868486613fca565b60405162461bcd60e51b81526020600482015260166024820152754e6f20636c617269666965642061646472657373657360501b6044820152606401610846565b33613b6781611270565b80613b765750613b7681610793565b613bb85760405162461bcd60e51b815260206004820152601360248201527202ab9b2b91034b9903737ba1030b23232b2171606d1b6044820152606401610846565b6000838152600c6020526040902054339084906001600160a01b0316821415613c235760405162461bcd60e51b815260206004820152601c60248201527f557365722063616e6e6f742061636365707420697473206f66666572000000006044820152606401610846565b6040805160608101825260008183018190526001600160a01b03878116835260208084018a9052898352600e8152918490205484518a815291169181019190915290917ffda9ac54069bb066debdc05afc39e260f270fcfb0ce45a42e94b6615a4514fbc910160405180910390a1600d80546000908152600e60209081526040808320855181546001600160a01b0319166001600160a01b039091161781559185015160018301558401516002909101805460ff191691151591909117905581549190613cef836148d6565b9190505550505050505050565b6000818152600a60205260409020600101546001600160a01b03163314613d655760405162461bcd60e51b815260206004820152601a60248201527f55736572206973206e6f742074686520626964646564206f6e650000000000006044820152606401610846565b6000818152600a602052604081205460ff166002811115613d8857613d88614a0d565b14613d9257600080fd5b6000818152600a602052604090819020805460ff191660019081178083559082015460039092015492517f18c44eb16e48f6869a458babcedec359c0ba49a6bb042b6dc99a28eff6ce02d69361332d936101009093046001600160a01b0390811693169160ff90911690614b15565b600084815260106020526040902054339085906001600160a01b03168214613e3b5760405162461bcd60e51b815260040161084690614a23565b8215613f025760408051606081018252878152602080820188815292820187815260058054600181018255600091909152835160039091027f036b6384b5eca791c62761152d0c79bb0604c104a5fb6f4eb0703f3154bb3db0810191825594517f036b6384b5eca791c62761152d0c79bb0604c104a5fb6f4eb0703f3154bb3db18601559051805193949193613efa937f036b6384b5eca791c62761152d0c79bb0604c104a5fb6f4eb0703f3154bb3db2909301929190910190614107565b505050613fba565b6040805160608101825287815260006020808301828152938301888152600580546001810182559352835160039093027f036b6384b5eca791c62761152d0c79bb0604c104a5fb6f4eb0703f3154bb3db0810193845594517f036b6384b5eca791c62761152d0c79bb0604c104a5fb6f4eb0703f3154bb3db186015551805193949293613fb6937f036b6384b5eca791c62761152d0c79bb0604c104a5fb6f4eb0703f3154bb3db201929190910190614107565b5050505b60048054906000613cef836148d6565b6040805160c08101825260008082526080820181815260a0830191909152606082018890526001600160a01b0387811660208401528616928201929092529083600381111561401b5761401b614a0d565b9081600381111561402e5761402e614a0d565b90525060a081018290526009546000908152600a602052604090208151815483929190829060ff1916600183600281111561406b5761406b614a0d565b021790555060208201518154610100600160a81b0319166101006001600160a01b03928316021782556040830151600180840180546001600160a01b0319169290931691909117909155606083015160028301556080830151600380840180549293909260ff19169184908111156140e5576140e5614a0d565b021790555060a0919091015160049091015560098054906000613cef836148d6565b8280546141139061499b565b90600052602060002090601f016020900481019282614135576000855561417b565b82601f1061414e57805160ff191683800117855561417b565b8280016001018555821561417b579182015b8281111561417b578251825591602001919060010190614160565b50614187929150614292565b5090565b5080546141979061499b565b6000825580601f106141a7575050565b601f0160209004906000526020600020908101906141c59190614292565b50565b60405180610100016040528060006001600160a01b0316815260200160001515815260200160008152602001600081526020016000815260200160008152602001600015158152602001600081525090565b60405180610140016040528060006001600160a01b0316815260200160006001600160a01b03168152602001600081526020016000815260200160008152602001600081526020016000600481111561427557614275614a0d565b815260200160008152602001600015158152602001600081525090565b5b808211156141875760008155600101614293565b6000602082840312156142b957600080fd5b81356001600160a01b03811681146142d057600080fd5b9392505050565b803580151581146142e757600080fd5b919050565b60008060008060008060c0878903121561430557600080fd5b61430e876142d7565b9860208801359850604088013597606081013597506080810135965060a00135945092505050565b634e487b7160e01b600052604160045260246000fd5b600082601f83011261435d57600080fd5b813567ffffffffffffffff8082111561437857614378614336565b604051601f8301601f19908116603f011681019082821181831017156143a0576143a0614336565b816040528381528660208588010111156143b957600080fd5b836020870160208301376000602085830101528094505050505092915050565b6000602082840312156143eb57600080fd5b813567ffffffffffffffff81111561440257600080fd5b61440e8482850161434c565b949350505050565b60006020828403121561442857600080fd5b5035919050565b60005b8381101561444a578181015183820152602001614432565b838111156108cd5750506000910152565b6000815180845261447381602086016020860161442f565b601f01601f19169290920160200192915050565b8381528260208201526060604082015260006144a6606083018461445b565b95945050505050565b6020815260006142d0602083018461445b565b6080815260006144d5608083018761445b565b82810360208401526144e7818761445b565b905082810360408401526144fb818661445b565b9050828103606084015261450f818561445b565b979650505050505050565b600080600080600060a0868803121561453257600080fd5b853567ffffffffffffffff8082111561454a57600080fd5b61455689838a0161434c565b9650602088013591508082111561456c57600080fd5b61457889838a0161434c565b9550604088013591508082111561458e57600080fd5b61459a89838a0161434c565b945060608801359150808211156145b057600080fd5b6145bc89838a0161434c565b935060808801359150808211156145d257600080fd5b506145df8882890161434c565b9150509295509295909350565b600080604083850312156145ff57600080fd5b82359150602083013567ffffffffffffffff81111561461d57600080fd5b6146298582860161434c565b9150509250929050565b60a08152600061464660a083018861445b565b8281036020840152614658818861445b565b9050828103604084015261466c818761445b565b90508281036060840152614680818661445b565b90508281036080840152614694818561445b565b98975050505050505050565b6000806000606084860312156146b557600080fd5b8335925060208401359150604084013567ffffffffffffffff8111156146da57600080fd5b6146e68682870161434c565b9150509250925092565b60006020808301818452808551808352604092508286019150828160051b87010184880160005b8381101561476157888303603f190185528151805184528781015188850152860151606087850181905261474d8186018361445b565b968901969450505090860190600101614717565b509098975050505050505050565b6000806000806080858703121561478557600080fd5b843567ffffffffffffffff8082111561479d57600080fd5b6147a98883890161434c565b955060208701359150808211156147bf57600080fd5b6147cb8883890161434c565b945060408701359150808211156147e157600080fd5b6147ed8883890161434c565b9350606087013591508082111561480357600080fd5b506148108782880161434c565b91505092959194509250565b6020808252825182820181905260009190848201906040850190845b8181101561485d5783516001600160a01b031683529284019291840191600101614838565b50909695505050505050565b60008060006060848603121561487e57600080fd5b8335925061488e602085016142d7565b9150604084013567ffffffffffffffff8111156146da57600080fd5b634e487b7160e01b600052603260045260246000fd5b634e487b7160e01b600052601160045260246000fd5b60006000198214156148ea576148ea6148c0565b5060010190565b6020808252601f908201527f5573657220646f6573206e6f7420657869737420696e20646174616261736500604082015260600190565b60208082526025908201527f4f6e6c79207573657220616464726573732063616e207570646174652076616c60408201526403ab2b997160dd1b606082015260800190565b60208082526014908201527302737ba1030903b30b634b21039ba3934b73397160651b604082015260600190565b600181811c908216806149af57607f821691505b602082108114156149d057634e487b7160e01b600052602260045260246000fd5b50919050565b6020808252601d908201527f53656e646572206973206e6f7420696e2074686520636f6e7472616374000000604082015260600190565b634e487b7160e01b600052602160045260246000fd5b6020808252602c908201527f546869732061646472657373206973206e6f7420746865206c616e646c6f726460408201526b081bd9881d1a19481c995b9d60a21b606082015260800190565b600082821015614a8157614a816148c0565b500390565b60208082526013908201527214995b9d081a5cc81b9bdd081cdd185c9d1959606a1b604082015260600190565b6020808252602a908201527f546869732061646472657373206973206e6f74207468652074656e616e74206f60408201526919881d1a19481c995b9d60b21b606082015260800190565b60008219821115614b1057614b106148c0565b500190565b6001600160a01b038481168252831660208201526060810160048310614b4b57634e487b7160e01b600052602160045260246000fd5b826040830152949350505050565b60008251614b6b81846020870161442f565b919091019291505056fea264697066735822122093e22d6aebfc5fd011a20bf4c9f960ed38849b1490302cf1382c49124abd873964736f6c634300080c0033",
  "immutableReferences": {},
  "source": "// SPDX-License-Identifier: MIT\npragma solidity >=0.7.0 <0.9.0;\n\n/*\n * \n * El pagament es fa a partir de dues adreces que consten en l'estructura del contracte de lloguer. Juntament amb frequencia de pagament i quantitat. \n * Es comprova si el contracte s per vivenda, ja que en cas de que sigui cert el reglament de contractaci s ms estricte. \n*/\n\nimport \"./Persona_Fisica.sol\";\nimport \"./Persona_Juridica.sol\";\nimport \"./Transfer.sol\";\nimport \"./Payment_Request.sol\";\nimport \"./Up_Conditions.sol\";\nimport \"./Offers.sol\";\n\ncontract Rent is Persona_Fisica, Persona_Juridica, Transfer, Payment_Request, Up_Conditions, Offers {\n\n    enum rent_state {\n        not_started,\n        started,\n        cancelled,\n        surety_pending,\n        ended \n    } // when cancelled the end of contract is modified to now + extension. Then is passed to ended\n\n    struct Rent_t {\n        address landlord;\n        address tenant;\n        uint frequency;  // -> To block.timestamp\n        uint last_payment; // Time units in seconds\n        uint contract_end;\n        uint256 amount;\n        rent_state state;\n        uint extension;\n        bool housing;\n        uint surety;\n    }\n\n    uint public rent_count = 0;\n    mapping(uint => Rent_t) rents;\n\n    /* ------------- Events ------------- */\n    \n    event Surety_Paid(\n        uint id_rent,\n        uint amount,\n        address landlord,\n        address tenant\n    );\n\n    event Rent_Transfer (\n        uint id_rent,\n        address landlord,\n        address tenant,\n        uint amount\n    );\n\n    event Cancel_Rent(\n        uint id_rent,\n        address landlord, \n        address tenant,\n        uint extension\n    );\n\n    event Contract_End(\n        uint id_rent,\n        address landlord,\n        address tenant\n    );\n\n    event Offer_Accepted(\n        address landlord,\n        address tenant,\n        uint frequency,\n        uint amount\n    );\n\n    /* ---------------------------------- */\n\n    /* ------------ Requires ------------ */\n\n    modifier user_exists(address _address) {\n        // Check if user is persona fisica or juridica, and see if it is not null\n        require(\n            (is_persona_fisica(_address) || is_persona_juridica(_address)) && _address != address(0),\n            \"User does not exist in database\"\n        );\n        _;\n    }\n\n    modifier not_null_amount(uint amount) {\n        // Not null amount\n        require(\n            amount > 0,\n            \"Amount must not be less than 0\"\n        );\n        _;\n    }\n\n    modifier not_null_frequency(uint frequency) {\n        require(\n            frequency > 0,\n            \"Frequency must not be less than 0\"\n        );\n        _;\n    }\n\n    modifier rent_exists(uint id_rent) {\n        require(\n            id_rent >= 0 && rents[id_rent].state == rent_state.started,\n            \"Rent must exist and it has to be started\"\n        );\n        _;\n    }\n\n    modifier payment_frequency(uint last_payment, uint frequency) {  // El pagament s'ha de fer en el temps pactat\n        // Check time between payments\n        require(\n            block.timestamp - last_payment >= frequency, // Tal i com est agafar frequency en s\n            \"To early to realize payment\"\n        );\n        _;\n    }\n\n    modifier is_tenant(address _address, uint id_rent) {\n        require(\n            _address == rents[id_rent].tenant,\n            \"This address is not the tenant of the rent\"\n        );\n        _;\n    }\n\n    modifier is_landlord(address _address, uint id_rent) {\n        require(\n            _address == rents[id_rent].landlord,\n            \"This address is not the landlord of the rent\"\n        );\n        _;\n    }\n\n    modifier valid_sender(address _address, uint id_rent) {\n        require(\n            _address == rents[id_rent].tenant || _address == rents[id_rent].landlord,\n            \"Sender is not in the contract\"\n        );\n        _;\n    }\n\n    modifier valid_payment_request(uint id_rent) {\n        require(\n            block.timestamp - rents[id_rent].last_payment > rents[id_rent].frequency,\n            \"Payment has not expired\"\n        );\n        _;\n    }\n\n    modifier rent_started(uint id_rent) {\n        require(\n            rents[id_rent].state == rent_state.started || rents[id_rent].state == rent_state.cancelled,            \n            \"Rent is not started\"\n        );\n        _;\n    }\n\n    modifier rent_not_started(uint id_rent) {\n        require(\n            rents[id_rent].state == rent_state.not_started,\n            \"Rent is already started, or does not exist\"\n        );\n        _;\n    }\n \n    /* ---------------------------------- */\n\n    /* -------- Rent Contract Offers ---------- */\n\n    function new_offer(bool _is_landlord, uint _amount, uint _frequency, uint _extension, uint _contract_duration, uint surety) public user_exists(msg.sender) {\n        set_offer(_is_landlord, _amount, _frequency, _extension, _contract_duration, surety);\n    }\n\n    function pick_offer(uint offer_id) public user_exists(msg.sender) {\n        accept_offer(offer_id, msg.sender);\n    }\n\n    function accept_rent_request(uint id_request) public {\n        require(msg.sender == offers[requests[id_request].offer_id].user, \"User is not the offerer\");\n        \n        Offer memory offer = offers[requests[id_request].offer_id];\n        RequestOffer memory request = requests[id_request];\n\n        if(offer.is_landlord) {\n            create_rent(offer.user, request.requester, offer.frequency, block.timestamp + offer.contract_duration, offer.amount, offer.extension, request.housing, offer.surety);\n            emit Offer_Accepted(offer.user, request.requester, offer.frequency, offer.amount);\n        } else {\n            create_rent(request.requester, offer.user, offer.frequency, block.timestamp + offer.contract_duration, offer.amount, offer.extension, request.housing, offer.surety);\n            emit Offer_Accepted(request.requester, offer.user, offer.frequency, offer.amount);\n        }   \n    }\n\n    /* --------- Contract functions ----------- */\n    function create_rent(address _landlord, address _tenant, uint _frequency, uint _contract_end, uint _amount, uint _extension, bool _housing, uint _surety) private \n        user_exists(_landlord)\n        user_exists(_tenant)\n        not_null_amount(_amount) \n        not_null_frequency(_frequency)\n    {\n        // rents.push(Rent_t(rent_count, landlord, tenant, frequency, next_payment, contract_end, amount, rent_state.started, extension, vivenda));\n        Rent_t memory aux_rent;\n\n        aux_rent.landlord = _landlord;\n        aux_rent.tenant = _tenant;\n        aux_rent.frequency = _frequency;\n        aux_rent.last_payment = 0;\n        aux_rent.contract_end = _contract_end;\n        aux_rent.amount = _amount;\n        aux_rent.extension = _extension;\n        aux_rent.housing = _housing;\n        aux_rent.surety = _surety;\n\n        aux_rent.state = rent_state.not_started; // Surety Needs to be paid\n\n        rents[rent_count] = aux_rent;\n\n        rent_count++;\n    }\n\n    function pay_surety(uint id_rent, string memory message) public \n        is_tenant(msg.sender, id_rent) \n        rent_not_started(id_rent)\n    {        \n        emit Surety_Paid(id_rent, rents[id_rent].amount, rents[id_rent].landlord, rents[id_rent].tenant);\n        \n        add_transfer(id_rent, rents[id_rent].surety, message);    \n\n        rents[id_rent].state = rent_state.started;\n    }\n\n    function pay_rent(uint id_rent, string memory message) public\n        payment_frequency(rents[id_rent].last_payment, rents[id_rent].frequency) \n        is_tenant(msg.sender, id_rent) \n        rent_started(id_rent)\n    {                                                              // This function can only be executed by the tenant of the rent id_rent\n        rents[id_rent].last_payment = block.timestamp; \n        // In this function the payment would be realized\n\n        add_transfer(id_rent, rents[id_rent].amount, message);\n\n        if (rents[id_rent].contract_end <= block.timestamp) {\n            contract_end(id_rent);\n        } \n\n        rent_paid(id_rent);\n    }\n\n    function cancel_rent(uint id_rent) public \n        valid_sender(msg.sender, id_rent) \n        rent_started(id_rent)\n    {\n        Rent_t memory aux_rent = rents[id_rent];\n\n        emit Cancel_Rent(id_rent, aux_rent.landlord, aux_rent.tenant, aux_rent.extension);\n        \n        rents[id_rent].state = rent_state.cancelled;\n\n        // Here we change the value of the end of the contract, which is going to be now + extension\n        rents[id_rent].contract_end = block.timestamp + rents[id_rent].extension;\n    }\n\n    function contract_end(uint id_rent) internal \n        rent_started(id_rent)\n    {\n        Rent_t memory aux_rent = rents[id_rent];\n\n        emit Contract_End(id_rent, aux_rent.landlord, aux_rent.tenant);\n\n        rents[id_rent].state = rent_state.surety_pending;\n    }\n\n    function surety_back(uint id_rent, bool accept, string memory message) public\n        is_landlord(msg.sender, id_rent)\n    {\n        return_surety(id_rent, rents[id_rent].amount, message, accept);\n\n        rents[id_rent].state = rent_state.ended;\n    }\n\n    /* ------------- Up_Conditions ------------------- */\n    \n    function tenant_proposes(uint id_rent, address _address) view private returns(bool) {\n        if (_address == rents[id_rent].landlord) {\n            return false;\n        } \n        else if (_address == rents[id_rent].tenant) {\n            return true;\n        }\n        revert(\"No address in this contract\");\n    }\n\n    function get_parameter(string memory p) pure private returns(update_comps) {\n        if (keccak256(abi.encodePacked(p)) == keccak256(abi.encodePacked(\"frequency\"))) {\n            return(update_comps.frequency);\n        } else if(keccak256(abi.encodePacked(p)) == keccak256(abi.encodePacked(\"amount\"))) {\n            return(update_comps.amount);\n        } else if(keccak256(abi.encodePacked(p)) == keccak256(abi.encodePacked(\"contract end\"))) {\n            return(update_comps.contract_end);\n        } else if(keccak256(abi.encodePacked(p)) == keccak256(abi.encodePacked(\"extension\"))) {\n            return(update_comps.extension);\n        } \n        revert(\"Got bad parameter\");\n    }\n\n    function set_request(uint id_rent, uint value, string memory p) public \n        rent_started(id_rent) \n        valid_sender(msg.sender, id_rent) \n    {   \n        bool tenant = tenant_proposes(id_rent, msg.sender);\n\n        if(tenant) {\n            require(\n                msg.sender == rents[id_rent].tenant,\n                \"User is not tenant. \"\n            );\n        }\n        else {\n            require(\n                msg.sender == rents[id_rent].landlord,\n                \"User is not landlord. \"\n            );\n        }\n\n        update_comps parameter = get_parameter(p);\n\n        assign_request(id_rent, rents[id_rent].landlord, rents[id_rent].tenant, tenant, value, parameter);\n    }\n\n    function request_accepted(uint id_req) public rent_started(reqs[id_req].id_rent) {\n        require(reqs[id_req].state != req_state.pending, \"Cannot change a value that is applied\");\n\n        accept_request(id_req);\n        \n        if (reqs[id_req].parameter == update_comps.frequency) {\n            rents[reqs[id_req].id_rent].frequency = reqs[id_req].value;\n        }\n        else if (reqs[id_req].parameter == update_comps.amount) {\n            rents[reqs[id_req].id_rent].amount = reqs[id_req].value;\n        }\n        else if (reqs[id_req].parameter == update_comps.contract_end) {\n            rents[reqs[id_req].id_rent].contract_end = reqs[id_req].value;\n        }\n        else if (reqs[id_req].parameter == update_comps.extension) {\n            rents[reqs[id_req].id_rent].extension = reqs[id_req].value;\n        }\n        revert(\"No possible update\");\n    }\n\n    function request_refused(uint id_req) public rent_started(reqs[id_req].id_rent) {\n        refuse_request(id_req);\n    }\n\n    /* ------ Payment Request ------- */\n    function create_payment_request(uint _id_rent) public \n        is_landlord(msg.sender, _id_rent)\n        valid_payment_request(_id_rent)\n    { // valid payment request means in time\n        \n        payment_reqs.push(Request_Payment(req_payment_count, _id_rent, payment_req_state.not_payed));\n\n        req_payment_count++;\n    }\n\n    function rent_paid(uint _id_rent) public {  \n        for (uint i = 0; payment_reqs.length < i; i++) {\n            if (payment_reqs[i].id_rent == _id_rent && payment_reqs[i].state == payment_req_state.not_payed) {\n                payment_reqs[i].state = payment_req_state.payed;\n            }\n        }\n    }\n\n    /* ----------- Transfers ---------- */\n    function add_transfer(uint _id_rent, uint _amount, string memory _message) private is_tenant(msg.sender, _id_rent) {\n\n        transfers.push(Transfer_t(_id_rent, _amount, _message));\n        \n        transfer_count++;\n    }\n\n    function return_surety(uint _id_rent, uint _amount, string memory _message, bool accept) private is_landlord(msg.sender, _id_rent) {\n        // If accept is true, means that the property is in a good condition\n\n        if(accept) {\n            transfers.push(Transfer_t(_id_rent, _amount, _message));\n        } else {\n            transfers.push(Transfer_t(_id_rent, 0, _message));\n        }\n        transfer_count++;\n    }\n\n    /* ------ GETTERS ------ */\n    function get_rent_state(uint id_rent) view public valid_sender(msg.sender, id_rent) returns(string memory) \n    {\n        if(rents[id_rent].state == rent_state.not_started) {\n            return(\"Not Started\"); \n        } else if(rents[id_rent].state == rent_state.started) {\n            return(\"Started\"); \n        } else if(rents[id_rent].state == rent_state.cancelled) {\n            return(\"Cancelled\"); \n        } else if(rents[id_rent].state == rent_state.ended) {\n            return(\"Ended\"); \n        } else if(rents[id_rent].state == rent_state.surety_pending) {\n            return(\"Surety Pending\"); \n        } else {\n            return(\"None\");            \n        } \n    }\n\n    /* \n     * \n     *  Explicaci de funcionament de la modularitat dels smart contracts inheritance\n     *\n     */\n\n    // function get_fisiques() view public returns(address[] memory) {\n    //     //Persona_Fisica pf = new Persona_Fisica();\n    //     return get_pfisiques();\n    // }\n\n    // function pf(address _address) view public returns(bool) {\n    //     return(pf.is_persona_fisica(_address));\n    // }\n\n    // function get_address() view public returns(address) {\n    //     return(msg.sender);\n    // }\n\n    // function get_rent_addresses(uint id_rent) view public returns(address, address) {\n    //     return(rents[id_rent].landlord, rents[id_rent].tenant);\n    // }\n}",
  "sourcePath": "/home/sergi/term/grmnt/grmnt/smart_contracts/contracts/Rent.sol",
  "compiler": {
    "name": "solc",
    "version": "0.8.12+commit.f00d7308.Emscripten.clang"
  },
  "schemaVersion": "3.4.6",
  "updatedAt": "2022-08-24T14:05:49.187Z",
  "networkType": "ethereum",
  "devdoc": {
    "kind": "dev",
    "methods": {},
    "version": 1
  },
  "userdoc": {
    "kind": "user",
    "methods": {},
    "version": 1
  }
}