{
  "contractName": "Rent",
  "abi": [
    {
      "anonymous": false,
      "inputs": [
        {
          "indexed": false,
          "internalType": "address",
          "name": "bidder",
          "type": "address"
        },
        {
          "indexed": false,
          "internalType": "address",
          "name": "bidded",
          "type": "address"
        },
        {
          "indexed": false,
          "internalType": "enum Up_Conditions.update_comps",
          "name": "parameter",
          "type": "uint8"
        }
      ],
      "name": "Accepted_request",
      "type": "event"
    },
    {
      "anonymous": false,
      "inputs": [
        {
          "indexed": false,
          "internalType": "uint256",
          "name": "id_rent",
          "type": "uint256"
        },
        {
          "indexed": false,
          "internalType": "address",
          "name": "landlord",
          "type": "address"
        },
        {
          "indexed": false,
          "internalType": "address",
          "name": "tenant",
          "type": "address"
        },
        {
          "indexed": false,
          "internalType": "uint256",
          "name": "extension",
          "type": "uint256"
        }
      ],
      "name": "Cancel_Rent",
      "type": "event"
    },
    {
      "anonymous": false,
      "inputs": [
        {
          "indexed": false,
          "internalType": "uint256",
          "name": "id_rent",
          "type": "uint256"
        },
        {
          "indexed": false,
          "internalType": "address",
          "name": "landlord",
          "type": "address"
        },
        {
          "indexed": false,
          "internalType": "address",
          "name": "tenant",
          "type": "address"
        }
      ],
      "name": "Contract_End",
      "type": "event"
    },
    {
      "anonymous": false,
      "inputs": [
        {
          "indexed": false,
          "internalType": "address",
          "name": "landlord",
          "type": "address"
        },
        {
          "indexed": false,
          "internalType": "address",
          "name": "tenant",
          "type": "address"
        },
        {
          "indexed": false,
          "internalType": "uint256",
          "name": "frequency",
          "type": "uint256"
        },
        {
          "indexed": false,
          "internalType": "uint256",
          "name": "amount",
          "type": "uint256"
        }
      ],
      "name": "Offer_Accepted",
      "type": "event"
    },
    {
      "anonymous": false,
      "inputs": [
        {
          "indexed": false,
          "internalType": "address",
          "name": "bidder",
          "type": "address"
        },
        {
          "indexed": false,
          "internalType": "address",
          "name": "bidded",
          "type": "address"
        },
        {
          "indexed": false,
          "internalType": "enum Up_Conditions.update_comps",
          "name": "parameter",
          "type": "uint8"
        }
      ],
      "name": "Refused_request",
      "type": "event"
    },
    {
      "anonymous": false,
      "inputs": [
        {
          "indexed": false,
          "internalType": "uint256",
          "name": "id_rent",
          "type": "uint256"
        },
        {
          "indexed": false,
          "internalType": "address",
          "name": "landlord",
          "type": "address"
        },
        {
          "indexed": false,
          "internalType": "address",
          "name": "tenant",
          "type": "address"
        },
        {
          "indexed": false,
          "internalType": "uint256",
          "name": "amount",
          "type": "uint256"
        }
      ],
      "name": "Rent_Transfer",
      "type": "event"
    },
    {
      "anonymous": false,
      "inputs": [
        {
          "indexed": false,
          "internalType": "uint256",
          "name": "offer_id",
          "type": "uint256"
        },
        {
          "indexed": false,
          "internalType": "address",
          "name": "requestant",
          "type": "address"
        }
      ],
      "name": "Requested",
      "type": "event"
    },
    {
      "anonymous": false,
      "inputs": [
        {
          "indexed": false,
          "internalType": "uint256",
          "name": "id_rent",
          "type": "uint256"
        },
        {
          "indexed": false,
          "internalType": "uint256",
          "name": "amount",
          "type": "uint256"
        },
        {
          "indexed": false,
          "internalType": "address",
          "name": "landlord",
          "type": "address"
        },
        {
          "indexed": false,
          "internalType": "address",
          "name": "tenant",
          "type": "address"
        }
      ],
      "name": "Surety_Paid",
      "type": "event"
    },
    {
      "anonymous": false,
      "inputs": [
        {
          "indexed": false,
          "internalType": "string",
          "name": "dni",
          "type": "string"
        },
        {
          "indexed": false,
          "internalType": "string",
          "name": "nom",
          "type": "string"
        },
        {
          "indexed": false,
          "internalType": "string",
          "name": "adreca",
          "type": "string"
        },
        {
          "indexed": false,
          "internalType": "string",
          "name": "correu",
          "type": "string"
        }
      ],
      "name": "UserCreated",
      "type": "event"
    },
    {
      "inputs": [
        {
          "internalType": "uint256",
          "name": "",
          "type": "uint256"
        }
      ],
      "name": "aux_transfers",
      "outputs": [
        {
          "internalType": "uint256",
          "name": "id_rent",
          "type": "uint256"
        },
        {
          "internalType": "uint256",
          "name": "amount",
          "type": "uint256"
        },
        {
          "internalType": "string",
          "name": "message",
          "type": "string"
        }
      ],
      "stateMutability": "view",
      "type": "function",
      "constant": true
    },
    {
      "inputs": [],
      "name": "del_persona_fisica",
      "outputs": [],
      "stateMutability": "nonpayable",
      "type": "function"
    },
    {
      "inputs": [],
      "name": "del_persona_juridica",
      "outputs": [],
      "stateMutability": "nonpayable",
      "type": "function"
    },
    {
      "inputs": [
        {
          "internalType": "address",
          "name": "_address",
          "type": "address"
        }
      ],
      "name": "get_addr_fisica",
      "outputs": [
        {
          "internalType": "uint256",
          "name": "",
          "type": "uint256"
        }
      ],
      "stateMutability": "view",
      "type": "function",
      "constant": true
    },
    {
      "inputs": [],
      "name": "get_length_fisiques",
      "outputs": [
        {
          "internalType": "uint256",
          "name": "",
          "type": "uint256"
        }
      ],
      "stateMutability": "view",
      "type": "function",
      "constant": true
    },
    {
      "inputs": [],
      "name": "get_length_juridiques",
      "outputs": [
        {
          "internalType": "uint256",
          "name": "",
          "type": "uint256"
        }
      ],
      "stateMutability": "view",
      "type": "function",
      "constant": true
    },
    {
      "inputs": [
        {
          "internalType": "uint256",
          "name": "offer_id",
          "type": "uint256"
        }
      ],
      "name": "get_offer",
      "outputs": [
        {
          "components": [
            {
              "internalType": "address",
              "name": "user",
              "type": "address"
            },
            {
              "internalType": "bool",
              "name": "is_landlord",
              "type": "bool"
            },
            {
              "internalType": "uint256",
              "name": "amount",
              "type": "uint256"
            },
            {
              "internalType": "uint256",
              "name": "frequency",
              "type": "uint256"
            },
            {
              "internalType": "uint256",
              "name": "extension",
              "type": "uint256"
            },
            {
              "internalType": "uint256",
              "name": "contract_duration",
              "type": "uint256"
            },
            {
              "internalType": "bool",
              "name": "active",
              "type": "bool"
            },
            {
              "internalType": "uint256",
              "name": "surety",
              "type": "uint256"
            }
          ],
          "internalType": "struct Offers.Offer",
          "name": "",
          "type": "tuple"
        }
      ],
      "stateMutability": "view",
      "type": "function",
      "constant": true
    },
    {
      "inputs": [
        {
          "internalType": "address",
          "name": "_address",
          "type": "address"
        }
      ],
      "name": "get_pfisica",
      "outputs": [
        {
          "internalType": "string",
          "name": "",
          "type": "string"
        },
        {
          "internalType": "string",
          "name": "",
          "type": "string"
        },
        {
          "internalType": "string",
          "name": "",
          "type": "string"
        },
        {
          "internalType": "string",
          "name": "",
          "type": "string"
        }
      ],
      "stateMutability": "view",
      "type": "function",
      "constant": true
    },
    {
      "inputs": [],
      "name": "get_pfisiques",
      "outputs": [
        {
          "internalType": "address[]",
          "name": "",
          "type": "address[]"
        }
      ],
      "stateMutability": "view",
      "type": "function",
      "constant": true
    },
    {
      "inputs": [
        {
          "internalType": "address",
          "name": "_address",
          "type": "address"
        }
      ],
      "name": "get_pjuridica",
      "outputs": [
        {
          "internalType": "string",
          "name": "",
          "type": "string"
        },
        {
          "internalType": "string",
          "name": "",
          "type": "string"
        },
        {
          "internalType": "string",
          "name": "",
          "type": "string"
        },
        {
          "internalType": "string",
          "name": "",
          "type": "string"
        },
        {
          "internalType": "string",
          "name": "",
          "type": "string"
        }
      ],
      "stateMutability": "view",
      "type": "function",
      "constant": true
    },
    {
      "inputs": [],
      "name": "get_pjuridiques",
      "outputs": [
        {
          "internalType": "address[]",
          "name": "",
          "type": "address[]"
        }
      ],
      "stateMutability": "view",
      "type": "function",
      "constant": true
    },
    {
      "inputs": [
        {
          "internalType": "uint256",
          "name": "request_id",
          "type": "uint256"
        }
      ],
      "name": "get_request",
      "outputs": [
        {
          "components": [
            {
              "internalType": "address",
              "name": "requester",
              "type": "address"
            },
            {
              "internalType": "uint256",
              "name": "offer_id",
              "type": "uint256"
            },
            {
              "internalType": "bool",
              "name": "housing",
              "type": "bool"
            }
          ],
          "internalType": "struct Offers.RequestOffer",
          "name": "",
          "type": "tuple"
        }
      ],
      "stateMutability": "view",
      "type": "function",
      "constant": true
    },
    {
      "inputs": [],
      "name": "get_transfers",
      "outputs": [
        {
          "components": [
            {
              "internalType": "uint256",
              "name": "id_rent",
              "type": "uint256"
            },
            {
              "internalType": "uint256",
              "name": "amount",
              "type": "uint256"
            },
            {
              "internalType": "string",
              "name": "message",
              "type": "string"
            }
          ],
          "internalType": "struct Transfer.Transfer_t[]",
          "name": "",
          "type": "tuple[]"
        }
      ],
      "stateMutability": "view",
      "type": "function",
      "constant": true
    },
    {
      "inputs": [
        {
          "internalType": "address",
          "name": "_address",
          "type": "address"
        }
      ],
      "name": "is_persona_fisica",
      "outputs": [
        {
          "internalType": "bool",
          "name": "",
          "type": "bool"
        }
      ],
      "stateMutability": "view",
      "type": "function",
      "constant": true
    },
    {
      "inputs": [
        {
          "internalType": "address",
          "name": "_address",
          "type": "address"
        }
      ],
      "name": "is_persona_juridica",
      "outputs": [
        {
          "internalType": "bool",
          "name": "",
          "type": "bool"
        }
      ],
      "stateMutability": "view",
      "type": "function",
      "constant": true
    },
    {
      "inputs": [],
      "name": "offer_count",
      "outputs": [
        {
          "internalType": "uint256",
          "name": "",
          "type": "uint256"
        }
      ],
      "stateMutability": "view",
      "type": "function",
      "constant": true
    },
    {
      "inputs": [
        {
          "internalType": "uint256",
          "name": "",
          "type": "uint256"
        }
      ],
      "name": "offers",
      "outputs": [
        {
          "internalType": "address",
          "name": "user",
          "type": "address"
        },
        {
          "internalType": "bool",
          "name": "is_landlord",
          "type": "bool"
        },
        {
          "internalType": "uint256",
          "name": "amount",
          "type": "uint256"
        },
        {
          "internalType": "uint256",
          "name": "frequency",
          "type": "uint256"
        },
        {
          "internalType": "uint256",
          "name": "extension",
          "type": "uint256"
        },
        {
          "internalType": "uint256",
          "name": "contract_duration",
          "type": "uint256"
        },
        {
          "internalType": "bool",
          "name": "active",
          "type": "bool"
        },
        {
          "internalType": "uint256",
          "name": "surety",
          "type": "uint256"
        }
      ],
      "stateMutability": "view",
      "type": "function",
      "constant": true
    },
    {
      "inputs": [
        {
          "internalType": "address",
          "name": "",
          "type": "address"
        }
      ],
      "name": "pfisiques",
      "outputs": [
        {
          "internalType": "string",
          "name": "dni",
          "type": "string"
        },
        {
          "internalType": "string",
          "name": "nom",
          "type": "string"
        },
        {
          "internalType": "string",
          "name": "adreca",
          "type": "string"
        },
        {
          "internalType": "string",
          "name": "correu",
          "type": "string"
        }
      ],
      "stateMutability": "view",
      "type": "function",
      "constant": true
    },
    {
      "inputs": [
        {
          "internalType": "uint256",
          "name": "",
          "type": "uint256"
        }
      ],
      "name": "pfisiques_addr",
      "outputs": [
        {
          "internalType": "address",
          "name": "",
          "type": "address"
        }
      ],
      "stateMutability": "view",
      "type": "function",
      "constant": true
    },
    {
      "inputs": [
        {
          "internalType": "address",
          "name": "",
          "type": "address"
        }
      ],
      "name": "pjuridiques",
      "outputs": [
        {
          "internalType": "string",
          "name": "nif",
          "type": "string"
        },
        {
          "internalType": "string",
          "name": "den_social",
          "type": "string"
        },
        {
          "internalType": "string",
          "name": "adreca",
          "type": "string"
        },
        {
          "internalType": "string",
          "name": "dades_constitucio",
          "type": "string"
        },
        {
          "internalType": "string",
          "name": "apoderat",
          "type": "string"
        }
      ],
      "stateMutability": "view",
      "type": "function",
      "constant": true
    },
    {
      "inputs": [
        {
          "internalType": "uint256",
          "name": "",
          "type": "uint256"
        }
      ],
      "name": "pjuridiques_addr",
      "outputs": [
        {
          "internalType": "address",
          "name": "",
          "type": "address"
        }
      ],
      "stateMutability": "view",
      "type": "function",
      "constant": true
    },
    {
      "inputs": [],
      "name": "rent_count",
      "outputs": [
        {
          "internalType": "uint256",
          "name": "",
          "type": "uint256"
        }
      ],
      "stateMutability": "view",
      "type": "function",
      "constant": true
    },
    {
      "inputs": [],
      "name": "req_count",
      "outputs": [
        {
          "internalType": "uint256",
          "name": "",
          "type": "uint256"
        }
      ],
      "stateMutability": "view",
      "type": "function",
      "constant": true
    },
    {
      "inputs": [],
      "name": "req_payment_count",
      "outputs": [
        {
          "internalType": "uint256",
          "name": "",
          "type": "uint256"
        }
      ],
      "stateMutability": "view",
      "type": "function",
      "constant": true
    },
    {
      "inputs": [],
      "name": "request_count",
      "outputs": [
        {
          "internalType": "uint256",
          "name": "",
          "type": "uint256"
        }
      ],
      "stateMutability": "view",
      "type": "function",
      "constant": true
    },
    {
      "inputs": [
        {
          "internalType": "string",
          "name": "_dni",
          "type": "string"
        },
        {
          "internalType": "string",
          "name": "_nom",
          "type": "string"
        },
        {
          "internalType": "string",
          "name": "_adreca",
          "type": "string"
        },
        {
          "internalType": "string",
          "name": "_correu",
          "type": "string"
        }
      ],
      "name": "set_persona_fisica",
      "outputs": [],
      "stateMutability": "nonpayable",
      "type": "function"
    },
    {
      "inputs": [
        {
          "internalType": "string",
          "name": "_nif",
          "type": "string"
        },
        {
          "internalType": "string",
          "name": "_den_social",
          "type": "string"
        },
        {
          "internalType": "string",
          "name": "_adreca",
          "type": "string"
        },
        {
          "internalType": "string",
          "name": "_dades_constitucio",
          "type": "string"
        },
        {
          "internalType": "string",
          "name": "_apoderat",
          "type": "string"
        }
      ],
      "name": "set_persona_juridica",
      "outputs": [],
      "stateMutability": "nonpayable",
      "type": "function"
    },
    {
      "inputs": [],
      "name": "transfer_count",
      "outputs": [
        {
          "internalType": "uint256",
          "name": "",
          "type": "uint256"
        }
      ],
      "stateMutability": "view",
      "type": "function",
      "constant": true
    },
    {
      "inputs": [
        {
          "internalType": "uint256",
          "name": "",
          "type": "uint256"
        }
      ],
      "name": "transfers",
      "outputs": [
        {
          "internalType": "uint256",
          "name": "id_rent",
          "type": "uint256"
        },
        {
          "internalType": "uint256",
          "name": "amount",
          "type": "uint256"
        },
        {
          "internalType": "string",
          "name": "message",
          "type": "string"
        }
      ],
      "stateMutability": "view",
      "type": "function",
      "constant": true
    },
    {
      "inputs": [
        {
          "internalType": "string",
          "name": "new_adreca",
          "type": "string"
        }
      ],
      "name": "up_adreca_fisica",
      "outputs": [],
      "stateMutability": "nonpayable",
      "type": "function"
    },
    {
      "inputs": [
        {
          "internalType": "string",
          "name": "new_adreca",
          "type": "string"
        }
      ],
      "name": "up_adreca_juridica",
      "outputs": [],
      "stateMutability": "nonpayable",
      "type": "function"
    },
    {
      "inputs": [
        {
          "internalType": "string",
          "name": "new_apoderat",
          "type": "string"
        }
      ],
      "name": "up_apoderat",
      "outputs": [],
      "stateMutability": "nonpayable",
      "type": "function"
    },
    {
      "inputs": [
        {
          "internalType": "string",
          "name": "new_correu",
          "type": "string"
        }
      ],
      "name": "up_correu",
      "outputs": [],
      "stateMutability": "nonpayable",
      "type": "function"
    },
    {
      "inputs": [
        {
          "internalType": "string",
          "name": "new_dc",
          "type": "string"
        }
      ],
      "name": "up_dades_constitucio",
      "outputs": [],
      "stateMutability": "nonpayable",
      "type": "function"
    },
    {
      "inputs": [
        {
          "internalType": "string",
          "name": "new_den_social",
          "type": "string"
        }
      ],
      "name": "up_den_social",
      "outputs": [],
      "stateMutability": "nonpayable",
      "type": "function"
    },
    {
      "inputs": [
        {
          "internalType": "string",
          "name": "new_dni",
          "type": "string"
        }
      ],
      "name": "up_dni",
      "outputs": [],
      "stateMutability": "nonpayable",
      "type": "function"
    },
    {
      "inputs": [
        {
          "internalType": "string",
          "name": "new_nif",
          "type": "string"
        }
      ],
      "name": "up_nif",
      "outputs": [],
      "stateMutability": "nonpayable",
      "type": "function"
    },
    {
      "inputs": [
        {
          "internalType": "string",
          "name": "new_nom",
          "type": "string"
        }
      ],
      "name": "up_nom",
      "outputs": [],
      "stateMutability": "nonpayable",
      "type": "function"
    },
    {
      "inputs": [
        {
          "internalType": "bool",
          "name": "_is_landlord",
          "type": "bool"
        },
        {
          "internalType": "uint256",
          "name": "_amount",
          "type": "uint256"
        },
        {
          "internalType": "uint256",
          "name": "_frequency",
          "type": "uint256"
        },
        {
          "internalType": "uint256",
          "name": "_extension",
          "type": "uint256"
        },
        {
          "internalType": "uint256",
          "name": "_contract_duration",
          "type": "uint256"
        },
        {
          "internalType": "uint256",
          "name": "surety",
          "type": "uint256"
        }
      ],
      "name": "new_offer",
      "outputs": [],
      "stateMutability": "nonpayable",
      "type": "function"
    },
    {
      "inputs": [
        {
          "internalType": "uint256",
          "name": "offer_id",
          "type": "uint256"
        }
      ],
      "name": "pick_offer",
      "outputs": [],
      "stateMutability": "nonpayable",
      "type": "function"
    },
    {
      "inputs": [
        {
          "internalType": "uint256",
          "name": "id_request",
          "type": "uint256"
        }
      ],
      "name": "accept_rent_request",
      "outputs": [],
      "stateMutability": "nonpayable",
      "type": "function"
    },
    {
      "inputs": [
        {
          "internalType": "uint256",
          "name": "id_rent",
          "type": "uint256"
        },
        {
          "internalType": "string",
          "name": "message",
          "type": "string"
        }
      ],
      "name": "pay_surety",
      "outputs": [],
      "stateMutability": "nonpayable",
      "type": "function"
    },
    {
      "inputs": [
        {
          "internalType": "uint256",
          "name": "id_rent",
          "type": "uint256"
        },
        {
          "internalType": "string",
          "name": "message",
          "type": "string"
        }
      ],
      "name": "pay_rent",
      "outputs": [],
      "stateMutability": "nonpayable",
      "type": "function"
    },
    {
      "inputs": [
        {
          "internalType": "uint256",
          "name": "id_rent",
          "type": "uint256"
        }
      ],
      "name": "cancel_rent",
      "outputs": [],
      "stateMutability": "nonpayable",
      "type": "function"
    },
    {
      "inputs": [
        {
          "internalType": "uint256",
          "name": "id_rent",
          "type": "uint256"
        },
        {
          "internalType": "bool",
          "name": "accept",
          "type": "bool"
        },
        {
          "internalType": "string",
          "name": "message",
          "type": "string"
        }
      ],
      "name": "surety_back",
      "outputs": [],
      "stateMutability": "nonpayable",
      "type": "function"
    },
    {
      "inputs": [
        {
          "internalType": "uint256",
          "name": "id_rent",
          "type": "uint256"
        },
        {
          "internalType": "uint256",
          "name": "value",
          "type": "uint256"
        },
        {
          "internalType": "string",
          "name": "p",
          "type": "string"
        }
      ],
      "name": "set_request",
      "outputs": [],
      "stateMutability": "nonpayable",
      "type": "function"
    },
    {
      "inputs": [
        {
          "internalType": "uint256",
          "name": "id_req",
          "type": "uint256"
        }
      ],
      "name": "request_accepted",
      "outputs": [],
      "stateMutability": "nonpayable",
      "type": "function"
    },
    {
      "inputs": [
        {
          "internalType": "uint256",
          "name": "id_req",
          "type": "uint256"
        }
      ],
      "name": "request_refused",
      "outputs": [],
      "stateMutability": "nonpayable",
      "type": "function"
    },
    {
      "inputs": [
        {
          "internalType": "uint256",
          "name": "_id_rent",
          "type": "uint256"
        }
      ],
      "name": "create_payment_request",
      "outputs": [],
      "stateMutability": "nonpayable",
      "type": "function"
    },
    {
      "inputs": [
        {
          "internalType": "uint256",
          "name": "_id_rent",
          "type": "uint256"
        }
      ],
      "name": "rent_paid",
      "outputs": [],
      "stateMutability": "nonpayable",
      "type": "function"
    },
    {
      "inputs": [
        {
          "internalType": "uint256",
          "name": "id_rent",
          "type": "uint256"
        }
      ],
      "name": "get_rent_state",
      "outputs": [
        {
          "internalType": "string",
          "name": "",
          "type": "string"
        }
      ],
      "stateMutability": "view",
      "type": "function",
      "constant": true
    },
    {
      "inputs": [
        {
          "internalType": "uint256",
          "name": "id_rent",
          "type": "uint256"
        }
      ],
      "name": "get_rent",
      "outputs": [
        {
          "components": [
            {
              "internalType": "address",
              "name": "landlord",
              "type": "address"
            },
            {
              "internalType": "address",
              "name": "tenant",
              "type": "address"
            },
            {
              "internalType": "uint256",
              "name": "frequency",
              "type": "uint256"
            },
            {
              "internalType": "uint256",
              "name": "last_payment",
              "type": "uint256"
            },
            {
              "internalType": "uint256",
              "name": "contract_end",
              "type": "uint256"
            },
            {
              "internalType": "uint256",
              "name": "amount",
              "type": "uint256"
            },
            {
              "internalType": "enum Rent.rent_state",
              "name": "state",
              "type": "uint8"
            },
            {
              "internalType": "uint256",
              "name": "extension",
              "type": "uint256"
            },
            {
              "internalType": "bool",
              "name": "housing",
              "type": "bool"
            },
            {
              "internalType": "uint256",
              "name": "surety",
              "type": "uint256"
            }
          ],
          "internalType": "struct Rent.Rent_t",
          "name": "",
          "type": "tuple"
        }
      ],
      "stateMutability": "view",
      "type": "function",
      "constant": true
    }
  ],
  "bytecode": "0x60806040526000600455600060075560006009556000600b556000600d556000600f5534801561002e57600080fd5b50614f7c8061003e6000396000f3fe608060405234801561001057600080fd5b506004361061030c5760003560e01c80638651190e1161019d578063ba98b952116100e9578063d445d494116100a2578063ea23c76e1161007c578063ea23c76e146107f1578063ea2cb767146107fa578063f0df312b1461080d578063f1f2b6421461081657600080fd5b8063d445d4941461075a578063dbe66ac314610762578063ddf8d9f0146107de57600080fd5b8063ba98b952146106fa578063bd0e9d051461070d578063bdee9e7d14610720578063c056216814610729578063c69a204214610732578063d24cc1361461073a57600080fd5b80639c9720cd11610156578063a386c04c11610130578063a386c04c146106b6578063a65f2d96146106bf578063a9f71b31146106d4578063b5a6ce68146106e757600080fd5b80639c9720cd146106885780639faacfc91461069b578063a2b0923c146106ae57600080fd5b80638651190e1461059357806387c6e18e146105a65780638a72ea6a146105b95780638be26e0a1461065a5780638d1c5e771461066d5780639377d7111461067557600080fd5b80636184dc571161025c5780637287dd9e116102155780637c2b69e3116101ef5780637c2b69e314610518578063847ced231461052b578063849cd8d01461056b5780638607d56d1461057e57600080fd5b80637287dd9e146104ce578063751c3733146104e15780637a66ff0d1461050557600080fd5b80636184dc57146104585780636380e3851461046b57806366a447801461047e5780636861dc9f146104915780636c6d6b9e146104b25780636f84d66b146104c557600080fd5b806334b3824d116102c95780634a263730116102a35780634a263730146104175780634a50237c1461042a57806352602afb146104325780635f102fba1461044557600080fd5b806334b3824d146103c65780633636e2f8146103d95780633bb280be146103ec57600080fd5b80630d22a6af146103115780631870bc99146103395780631d4e82f91461034e5780632880de27146103615780632ec8b9bb1461038357806334171df6146103a3575b600080fd5b61032461031f3660046145db565b610829565b60405190151581526020015b60405180910390f35b61034c610347366004614620565b610893565b005b61034c61035c36600461470d565b6108fc565b61037461036f36600461474a565b610969565b604051610330939291906147bb565b61039661039136600461474a565b610a2b565b60405161033091906147e3565b6103b66103b13660046145db565b610c68565b60405161033094939291906147f6565b61034c6103d436600461474a565b610eb0565b61034c6103e736600461470d565b611044565b6103ff6103fa36600461474a565b6110b3565b6040516001600160a01b039091168152602001610330565b61034c61042536600461470d565b6110dd565b61034c61114a565b61034c61044036600461484e565b6111da565b6103246104533660046145db565b611306565b61034c61046636600461474a565b611367565b61034c61047936600461470d565b6113fb565b61034c61048c366004614920565b611464565b6104a461049f3660046145db565b6115dd565b604051908152602001610330565b6103b66104c03660046145db565b611684565b6104a4600b5481565b61034c6104dc36600461474a565b6118f4565b6104f46104ef3660046145db565b611b49565b604051610330959493929190614967565b61034c61051336600461474a565b611e52565b61034c610526366004614920565b61209f565b61053e61053936600461474a565b612212565b6040805182516001600160a01b031681526020808401519082015291810151151590820152606001610330565b61034c6105793660046149d4565b6122c7565b6105866124bf565b6040516103309190614a24565b61034c6105a136600461474a565b6125c4565b61034c6105b436600461470d565b612617565b6106136105c736600461474a565b600c6020526000908152604090208054600182015460028301546003840154600485015460058601546006909601546001600160a01b0386169660ff600160a01b909704871696169088565b604080516001600160a01b0390991689529615156020890152958701949094526060860192909252608085015260a0840152151560c083015260e082015261010001610330565b6104f46106683660046145db565b612684565b61034c61295a565b61037461068336600461474a565b6129c0565b61034c61069636600461474a565b6129d0565b61034c6106a9366004614aa3565b612c89565b6001546104a4565b6104a460075481565b6106c7612d88565b6040516103309190614b50565b61034c6106e236600461470d565b612dea565b61034c6106f536600461474a565b612e57565b61034c61070836600461470d565b612f2f565b61034c61071b366004614b9d565b612f9e565b6104a4600f5481565b6104a4600d5481565b6003546104a4565b61074d61074836600461474a565b61301a565b6040516103309190614c08565b6106c7613135565b61077561077036600461474a565b613195565b604051610330919081516001600160a01b0316815260208083015115159082015260408083015190820152606080830151908201526080808301519082015260a0828101519082015260c08083015115159082015260e091820151918101919091526101000190565b61034c6107ec36600461470d565b613272565b6104a460045481565b6103ff61080836600461474a565b6132e1565b6104a460095481565b61034c61082436600461470d565b6132f1565b6000805b60035481101561088a57826001600160a01b03166003828154811061085457610854614c9f565b6000918252602090912001546001600160a01b031614156108785750600192915050565b8061088281614ccb565b91505061082d565b50600092915050565b3361089d81611306565b806108ac57506108ac81610829565b80156108c057506001600160a01b03811615155b6108e55760405162461bcd60e51b81526004016108dc90614ce6565b60405180910390fd5b6108f3878787878787613360565b50505050505050565b3361090681611306565b6109225760405162461bcd60e51b81526004016108dc90614d1d565b818051600014156109455760405162461bcd60e51b81526004016108dc90614d62565b3360009081526020818152604090912084516109639286019061443b565b50505050565b6006818154811061097957600080fd5b90600052602060002090600302016000915090508060000154908060010154908060020180546109a890614d90565b80601f01602080910402602001604051908101604052809291908181526020018280546109d490614d90565b8015610a215780601f106109f657610100808354040283529160200191610a21565b820191906000526020600020905b815481529060010190602001808311610a0457829003601f168201915b5050505050905083565b600081815260106020526040902060010154606090339083906001600160a01b0316821480610a7357506000818152601060205260409020546001600160a01b038381169116145b610a8f5760405162461bcd60e51b81526004016108dc90614dcb565b60008481526010602052604081206006015460ff166004811115610ab557610ab5614bde565b1415610ae6576040518060400160405280600b81526020016a139bdd0814dd185c9d195960aa1b8152509250610c61565b600160008581526010602052604090206006015460ff166004811115610b0e57610b0e614bde565b1415610b3b576040518060400160405280600781526020016614dd185c9d195960ca1b8152509250610c61565b600260008581526010602052604090206006015460ff166004811115610b6357610b63614bde565b1415610b92576040518060400160405280600981526020016810d85b98d95b1b195960ba1b8152509250610c61565b600460008581526010602052604090206006015460ff166004811115610bba57610bba614bde565b1415610be55760405180604001604052806005815260200164115b99195960da1b8152509250610c61565b600360008581526010602052604090206006015460ff166004811115610c0d57610c0d614bde565b1415610c41576040518060400160405280600e81526020016d5375726574792050656e64696e6760901b8152509250610c61565b604051806040016040528060048152602001634e6f6e6560e01b81525092505b5050919050565b600060208190529081526040902080548190610c8390614d90565b80601f0160208091040260200160405190810160405280929190818152602001828054610caf90614d90565b8015610cfc5780601f10610cd157610100808354040283529160200191610cfc565b820191906000526020600020905b815481529060010190602001808311610cdf57829003601f168201915b505050505090806001018054610d1190614d90565b80601f0160208091040260200160405190810160405280929190818152602001828054610d3d90614d90565b8015610d8a5780601f10610d5f57610100808354040283529160200191610d8a565b820191906000526020600020905b815481529060010190602001808311610d6d57829003601f168201915b505050505090806002018054610d9f90614d90565b80601f0160208091040260200160405190810160405280929190818152602001828054610dcb90614d90565b8015610e185780601f10610ded57610100808354040283529160200191610e18565b820191906000526020600020905b815481529060010190602001808311610dfb57829003601f168201915b505050505090806003018054610e2d90614d90565b80601f0160208091040260200160405190810160405280929190818152602001828054610e5990614d90565b8015610ea65780601f10610e7b57610100808354040283529160200191610ea6565b820191906000526020600020905b815481529060010190602001808311610e8957829003601f168201915b5050505050905084565b600081815260106020526040902054339082906001600160a01b03168214610eea5760405162461bcd60e51b81526004016108dc90614e02565b60008381526010602052604090206002810154600390910154849190610f109042614e4e565b11610f5d5760405162461bcd60e51b815260206004820152601760248201527f5061796d656e7420686173206e6f74206578706972656400000000000000000060448201526064016108dc565b604080516060810182526007548152602081018681526000928201838152600880546001808201835591909552835160039095027ff3f7a9fe364faab93b216da50a3214154f22a0a2b415b23a84c8169e8b636ee3810195865592517ff3f7a9fe364faab93b216da50a3214154f22a0a2b415b23a84c8169e8b636ee484015590517ff3f7a9fe364faab93b216da50a3214154f22a0a2b415b23a84c8169e8b636ee59092018054939493909160ff1990911690838181111561102257611022614bde565b021790555050600780549150600061103983614ccb565b919050555050505050565b3361104e81610829565b61106a5760405162461bcd60e51b81526004016108dc90614d1d565b8180516000141561108d5760405162461bcd60e51b81526004016108dc90614d62565b33600090815260026020818152604090922085516109639391909201919086019061443b565b600381815481106110c357600080fd5b6000918252602090912001546001600160a01b0316905081565b336110e781611306565b6111035760405162461bcd60e51b81526004016108dc90614d1d565b818051600014156111265760405162461bcd60e51b81526004016108dc90614d62565b3360009081526020818152604090912084516109639260029092019186019061443b565b3360009081526002602052604081209061116482826144bf565b6111726001830160006144bf565b6111806002830160006144bf565b61118e6003830160006144bf565b61119c6004830160006144bf565b505060006111a933613493565b9050600381815481106111be576111be614c9f565b600091825260209091200180546001600160a01b031916905550565b61120c6040518060a0016040528060608152602001606081526020016060815260200160608152602001606081525090565b858152602080820186905260408083018690526060830185905260808301849052336000908152600283522082518051849361124c92849291019061443b565b506020828101518051611265926001850192019061443b565b506040820151805161128191600284019160209091019061443b565b506060820151805161129d91600384019160209091019061443b565b50608082015180516112b991600484019160209091019061443b565b5050600380546001810182556000919091527fc2575a0e9e593c00f959f8c92f12db2869c3395a3b0502d05e2516446f71f85b0180546001600160a01b0319163317905550505050505050565b6000805b60015481101561088a57826001600160a01b03166001828154811061133157611331614c9f565b6000918252602090912001546001600160a01b031614156113555750600192915050565b8061135f81614ccb565b91505061130a565b6000818152600a6020526040902060020154600160008281526010602052604090206006015460ff1660048111156113a1576113a1614bde565b14806113d25750600260008281526010602052604090206006015460ff1660048111156113d0576113d0614bde565b145b6113ee5760405162461bcd60e51b81526004016108dc90614e65565b6113f7826134f1565b5050565b3361140581610829565b6114215760405162461bcd60e51b81526004016108dc90614d1d565b818051600014156114445760405162461bcd60e51b81526004016108dc90614d62565b33600090815260026020908152604090912084516109639286019061443b565b600082815260106020526040902060010154339083906001600160a01b031682146114a15760405162461bcd60e51b81526004016108dc90614e92565b836000808281526010602052604090206006015460ff1660048111156114c9576114c9614bde565b146115295760405162461bcd60e51b815260206004820152602a60248201527f52656e7420697320616c726561647920737461727465642c206f7220646f6573604482015269081b9bdd08195e1a5cdd60b21b60648201526084016108dc565b6000858152601060209081526040918290206005810154815460019092015484518a8152938401919091526001600160a01b039182168385015216606082015290517fb367e76c20a0025552c4120aea2506555be82e604557645930c356021c5750c69181900360800190a16000858152601060205260409020600901546115b390869086613600565b600085815260106020526040902060060180546001919060ff191682805b02179055505050505050565b6000805b60015481101561163b57826001600160a01b03166001828154811061160857611608614c9f565b6000918252602090912001546001600160a01b031614156116295792915050565b8061163381614ccb565b9150506115e1565b5060405162461bcd60e51b815260206004820152601960248201527f4e6f20757365722077697468207468617420616464726573730000000000000060448201526064016108dc565b6001600160a01b0381166000908152602081905260409020805460609182918291829160018201906002830190600384019084906116c190614d90565b80601f01602080910402602001604051908101604052809291908181526020018280546116ed90614d90565b801561173a5780601f1061170f5761010080835404028352916020019161173a565b820191906000526020600020905b81548152906001019060200180831161171d57829003601f168201915b5050505050935082805461174d90614d90565b80601f016020809104026020016040519081016040528092919081815260200182805461177990614d90565b80156117c65780601f1061179b576101008083540402835291602001916117c6565b820191906000526020600020905b8154815290600101906020018083116117a957829003601f168201915b505050505092508180546117d990614d90565b80601f016020809104026020016040519081016040528092919081815260200182805461180590614d90565b80156118525780601f1061182757610100808354040283529160200191611852565b820191906000526020600020905b81548152906001019060200180831161183557829003601f168201915b5050505050915080805461186590614d90565b80601f016020809104026020016040519081016040528092919081815260200182805461189190614d90565b80156118de5780601f106118b3576101008083540402835291602001916118de565b820191906000526020600020905b8154815290600101906020018083116118c157829003601f168201915b5050505050905093509350935093509193509193565b6000818152600e60209081526040808320600101548352600c9091529020546001600160a01b0316331461196a5760405162461bcd60e51b815260206004820152601760248201527f55736572206973206e6f7420746865206f66666572657200000000000000000060448201526064016108dc565b6000818152600e60209081526040808320600180820154808652600c80865284872085516101008101875281546001600160a01b03808216835260ff600160a01b90920482161515838b0152958301548289015260028084015460608085019190915260038501546080850152600485015460a0850152600585018054808516151560c087015260069096015460e08601528a519182018b5289549098168152808b0187905297015416151596860196909652919096529490935260ff1990931690915590816020015115611ad25781518151606084015160a0850151611a7193929190611a589042614edc565b8660400151876080015187604001518960e00151613715565b8151815160608085015160408087015181516001600160a01b0396871681529590941660208601528401528201527f5c6efb4566e42c66d85b971c67653ded738f8754d5af3ad6e9a6241c0538059e906080015b60405180910390a1505050565b80518251606084015160a0850151611af193929190611a589042614edc565b8051825160608085015160408087015181516001600160a01b0396871681529590941660208601528401528201527f5c6efb4566e42c66d85b971c67653ded738f8754d5af3ad6e9a6241c0538059e90608001611ac5565b6001600160a01b038116600090815260026020819052604090912080546060928392839283928392916001830191830190600384019060048501908590611b8f90614d90565b80601f0160208091040260200160405190810160405280929190818152602001828054611bbb90614d90565b8015611c085780601f10611bdd57610100808354040283529160200191611c08565b820191906000526020600020905b815481529060010190602001808311611beb57829003601f168201915b50505050509450838054611c1b90614d90565b80601f0160208091040260200160405190810160405280929190818152602001828054611c4790614d90565b8015611c945780601f10611c6957610100808354040283529160200191611c94565b820191906000526020600020905b815481529060010190602001808311611c7757829003601f168201915b50505050509350828054611ca790614d90565b80601f0160208091040260200160405190810160405280929190818152602001828054611cd390614d90565b8015611d205780601f10611cf557610100808354040283529160200191611d20565b820191906000526020600020905b815481529060010190602001808311611d0357829003601f168201915b50505050509250818054611d3390614d90565b80601f0160208091040260200160405190810160405280929190818152602001828054611d5f90614d90565b8015611dac5780601f10611d8157610100808354040283529160200191611dac565b820191906000526020600020905b815481529060010190602001808311611d8f57829003601f168201915b50505050509150808054611dbf90614d90565b80601f0160208091040260200160405190810160405280929190818152602001828054611deb90614d90565b8015611e385780601f10611e0d57610100808354040283529160200191611e38565b820191906000526020600020905b815481529060010190602001808311611e1b57829003601f168201915b505050505090509450945094509450945091939590929450565b600081815260106020526040902060010154339082906001600160a01b0316821480611e9757506000818152601060205260409020546001600160a01b038381169116145b611eb35760405162461bcd60e51b81526004016108dc90614dcb565b82600160008281526010602052604090206006015460ff166004811115611edc57611edc614bde565b1480611f0d5750600260008281526010602052604090206006015460ff166004811115611f0b57611f0b614bde565b145b611f295760405162461bcd60e51b81526004016108dc90614e65565b600084815260106020908152604080832081516101408101835281546001600160a01b03908116825260018301541693810193909352600281015491830191909152600381015460608301526004808201546080840152600582015460a0840152600682015460c084019160ff90911690811115611fa957611fa9614bde565b6004811115611fba57611fba614bde565b8152602001600782015481526020016008820160009054906101000a900460ff1615151515815260200160098201548152505090507fb4d13f90fbce7f7fa5ba9b609e10a68274ce3289de492880e616c0b3d130314a85826000015183602001518460e0015160405161205094939291909384526001600160a01b03928316602085015291166040830152606082015260800190565b60405180910390a1600085815260106020526040902060068101805460ff19166002179055600701546120839042614edc565b6000958652601060205260409095206004019490945550505050565b60008281526010602052604090206003810154600290910154806120c38342614e4e565b10156121115760405162461bcd60e51b815260206004820152601b60248201527f546f206561726c7920746f207265616c697a65207061796d656e74000000000060448201526064016108dc565b600084815260106020526040902060010154339085906001600160a01b0316821461214e5760405162461bcd60e51b81526004016108dc90614e92565b85600160008281526010602052604090206006015460ff16600481111561217757612177614bde565b14806121a85750600260008281526010602052604090206006015460ff1660048111156121a6576121a6614bde565b145b6121c45760405162461bcd60e51b81526004016108dc90614e65565b6000878152601060205260409020426003820155600501546121e890889088613600565b600087815260106020526040902060040154421061220957612209876139a4565b6108f387612e57565b6040805160608101825260008082526020820181905291810191909152600d5482106122805760405162461bcd60e51b815260206004820152601b60248201527f54686973206f6666657220646f6573206e6f742065786973742e20000000000060448201526064016108dc565b506000908152600e6020908152604091829020825160608101845281546001600160a01b031681526001820154928101929092526002015460ff1615159181019190915290565b82600160008281526010602052604090206006015460ff1660048111156122f0576122f0614bde565b14806123215750600260008281526010602052604090206006015460ff16600481111561231f5761231f614bde565b145b61233d5760405162461bcd60e51b81526004016108dc90614e65565b600084815260106020526040902060010154339085906001600160a01b031682148061238257506000818152601060205260409020546001600160a01b038381169116145b61239e5760405162461bcd60e51b81526004016108dc90614dcb565b60006123aa8733613b4a565b90508015612417576000878152601060205260409020600101546001600160a01b031633146124125760405162461bcd60e51b815260206004820152601460248201527302ab9b2b91034b9903737ba103a32b730b73a17160651b60448201526064016108dc565b612476565b6000878152601060205260409020546001600160a01b031633146124765760405162461bcd60e51b815260206004820152601660248201527502ab9b2b91034b9903737ba103630b7323637b93217160551b60448201526064016108dc565b600061248186613bef565b600089815260106020526040902080546001909101549192506124b5918a916001600160a01b039081169116858b86613dba565b5050505050505050565b60606005805480602002602001604051908101604052809291908181526020016000905b828210156125bb5783829060005260206000209060030201604051806060016040529081600082015481526020016001820154815260200160028201805461252a90614d90565b80601f016020809104026020016040519081016040528092919081815260200182805461255690614d90565b80156125a35780601f10612578576101008083540402835291602001916125a3565b820191906000526020600020905b81548152906001019060200180831161258657829003601f168201915b505050505081525050815260200190600101906124e3565b50505050905090565b336125ce81611306565b806125dd57506125dd81610829565b80156125f157506001600160a01b03811615155b61260d5760405162461bcd60e51b81526004016108dc90614ce6565b6113f78233613e25565b3361262181611306565b61263d5760405162461bcd60e51b81526004016108dc90614d1d565b818051600014156126605760405162461bcd60e51b81526004016108dc90614d62565b3360009081526020818152604090912084516109639260039092019186019061443b565b60026020526000908152604090208054819061269f90614d90565b80601f01602080910402602001604051908101604052809291908181526020018280546126cb90614d90565b80156127185780601f106126ed57610100808354040283529160200191612718565b820191906000526020600020905b8154815290600101906020018083116126fb57829003601f168201915b50505050509080600101805461272d90614d90565b80601f016020809104026020016040519081016040528092919081815260200182805461275990614d90565b80156127a65780601f1061277b576101008083540402835291602001916127a6565b820191906000526020600020905b81548152906001019060200180831161278957829003601f168201915b5050505050908060020180546127bb90614d90565b80601f01602080910402602001604051908101604052809291908181526020018280546127e790614d90565b80156128345780601f1061280957610100808354040283529160200191612834565b820191906000526020600020905b81548152906001019060200180831161281757829003601f168201915b50505050509080600301805461284990614d90565b80601f016020809104026020016040519081016040528092919081815260200182805461287590614d90565b80156128c25780601f10612897576101008083540402835291602001916128c2565b820191906000526020600020905b8154815290600101906020018083116128a557829003601f168201915b5050505050908060040180546128d790614d90565b80601f016020809104026020016040519081016040528092919081815260200182805461290390614d90565b80156129505780601f1061292557610100808354040283529160200191612950565b820191906000526020600020905b81548152906001019060200180831161293357829003601f168201915b5050505050905085565b3360009081526020819052604081209061297482826144bf565b6129826001830160006144bf565b6129906002830160006144bf565b61299e6003830160006144bf565b505060006129ab336115dd565b9050600181815481106111be576111be614c9f565b6005818154811061097957600080fd5b6000818152600a6020526040902060020154600160008281526010602052604090206006015460ff166004811115612a0a57612a0a614bde565b1480612a3b5750600260008281526010602052604090206006015460ff166004811115612a3957612a39614bde565b145b612a575760405162461bcd60e51b81526004016108dc90614e65565b6000828152600a602052604081205460ff166002811115612a7a57612a7a614bde565b1415612ad65760405162461bcd60e51b815260206004820152602560248201527f43616e6e6f74206368616e676520612076616c756520746861742069732061706044820152641c1b1a595960da1b60648201526084016108dc565b612adf82614023565b6000828152600a6020526040812060039081015460ff1690811115612b0657612b06614bde565b1415612b3a576000828152600a60209081526040808320600481015460029182015485526010909352922090910155612c4c565b60016000838152600a6020526040902060039081015460ff1690811115612b6357612b63614bde565b1415612b98576000828152600a6020908152604080832060048101546002909101548452601090925290912060050155612c4c565b60026000838152600a6020526040902060039081015460ff1690811115612bc157612bc1614bde565b1415612bf4576000828152600a602090815260408083206004808201546002909201548552601090935292200155612c4c565b6000828152600a6020526040902060039081015460ff1681811115612c1b57612c1b614bde565b1415612c4c576000828152600a60209081526040808320600481015460029091015484526010909252909120600701555b60405162461bcd60e51b81526020600482015260126024820152714e6f20706f737369626c652075706461746560701b60448201526064016108dc565b612cb46040518060800160405280606081526020016060815260200160608152602001606081525090565b848152602080820185905260408083018590526060830184905233600090815280835220825180518493612cec92849291019061443b565b506020828101518051612d05926001850192019061443b565b5060408201518051612d2191600284019160209091019061443b565b5060608201518051612d3d91600384019160209091019061443b565b50506001805480820182556000919091527fb10e2d527612073b26eecdfd717e6a320cf44b4afac2b0732d9fcbe2b7fa0cf60180546001600160a01b03191633179055505050505050565b60606003805480602002602001604051908101604052809291908181526020018280548015612de057602002820191906000526020600020905b81546001600160a01b03168152600190910190602001808311612dc2575b5050505050905090565b33612df481611306565b612e105760405162461bcd60e51b81526004016108dc90614d1d565b81805160001415612e335760405162461bcd60e51b81526004016108dc90614d62565b3360009081526020818152604090912084516109639260019092019186019061443b565b60005b6008548111156113f7578160088281548110612e7857612e78614c9f565b906000526020600020906003020160010154148015612ed15750600060088281548110612ea757612ea7614c9f565b600091825260209091206002600390920201015460ff166001811115612ecf57612ecf614bde565b145b15612f1d57600160088281548110612eeb57612eeb614c9f565b60009182526020909120600260039092020101805460ff191660018381811115612f1757612f17614bde565b02179055505b80612f2781614ccb565b915050612e5a565b33612f3981610829565b612f555760405162461bcd60e51b81526004016108dc90614d1d565b81805160001415612f785760405162461bcd60e51b81526004016108dc90614d62565b33600090815260026020908152604090912084516109639260049092019186019061443b565b600083815260106020526040902054339084906001600160a01b03168214612fd85760405162461bcd60e51b81526004016108dc90614e02565b600085815260106020526040902060050154612ff79086908587614128565b600085815260106020526040902060060180546004919060ff19166001836115d1565b6130226144fc565b600f5482106130735760405162461bcd60e51b815260206004820152601a60248201527f546869732072656e7420646f6573206e6f742065786973742e2000000000000060448201526064016108dc565b60008281526010602090815260409182902082516101408101845281546001600160a01b03908116825260018301541692810192909252600281015492820192909252600382015460608201526004808301546080830152600583015460a0830152600683015491929160c084019160ff909116908111156130f7576130f7614bde565b600481111561310857613108614bde565b815260078201546020820152600882015460ff161515604082015260099091015460609091015292915050565b60606001805480602002602001604051908101604052809291908181526020018280548015612de0576020028201919060005260206000209081546001600160a01b03168152600190910190602001808311612dc2575050505050905090565b61319d614574565b600b5482106131ee5760405162461bcd60e51b815260206004820152601b60248201527f54686973206f6666657220646f6573206e6f742065786973742e20000000000060448201526064016108dc565b506000908152600c602090815260409182902082516101008101845281546001600160a01b038116825260ff600160a01b90910481161515938201939093526001820154938101939093526002810154606084015260038101546080840152600481015460a08401526005810154909116151560c08301526006015460e082015290565b3361327c81610829565b6132985760405162461bcd60e51b81526004016108dc90614d1d565b818051600014156132bb5760405162461bcd60e51b81526004016108dc90614d62565b33600090815260026020908152604090912084516109639260019092019186019061443b565b600181815481106110c357600080fd5b336132fb81610829565b6133175760405162461bcd60e51b81526004016108dc90614d1d565b8180516000141561333a5760405162461bcd60e51b81526004016108dc90614d62565b33600090815260026020908152604090912084516109639260039092019186019061443b565b3361336a81611306565b80613379575061337981610829565b6133bb5760405162461bcd60e51b815260206004820152601360248201527202ab9b2b91034b9903737ba1030b23232b2171606d1b60448201526064016108dc565b6133c3614574565b338152871515602080830191825260408084018a8152606085018a8152608086018a815260a087018a815260e088018a8152600160c08a01818152600b80546000908152600c909a529789208b5181549b511515600160a01b026001600160a81b0319909c166001600160a01b0391909116179a909a178a559551908901559251600288015590516003870155516004860155905160058501805491151560ff19909216919091179055516006909301929092558154919061348483614ccb565b91905055505050505050505050565b6000805b60035481101561163b57826001600160a01b0316600382815481106134be576134be614c9f565b6000918252602090912001546001600160a01b031614156134df5792915050565b806134e981614ccb565b915050613497565b6000818152600a60205260409020600101546001600160a01b0316331461355a5760405162461bcd60e51b815260206004820152601a60248201527f55736572206973206e6f742074686520626964646564206f6e6500000000000060448201526064016108dc565b6000818152600a602052604081205460ff16600281111561357d5761357d614bde565b1461358757600080fd5b6000818152600a602052604090819020805460ff1916600217808255600182015460039092015492517f4502eb4480075d2fdfb5549aab8f9230c12abc3d254c300b6c4f1cacabcf8ae4936135f5936101009093046001600160a01b0390811693169160ff90911690614ef4565b60405180910390a150565b600083815260106020526040902060010154339084906001600160a01b0316821461363d5760405162461bcd60e51b81526004016108dc90614e92565b60408051606081018252868152602080820187815292820186815260058054600181018255600091909152835160039091027f036b6384b5eca791c62761152d0c79bb0604c104a5fb6f4eb0703f3154bb3db0810191825594517f036b6384b5eca791c62761152d0c79bb0604c104a5fb6f4eb0703f3154bb3db186015590518051939491936136f6937f036b6384b5eca791c62761152d0c79bb0604c104a5fb6f4eb0703f3154bb3db290930192919091019061443b565b5050600480549150600061370983614ccb565b91905055505050505050565b8761371f81611306565b8061372e575061372e81610829565b801561374257506001600160a01b03811615155b61375e5760405162461bcd60e51b81526004016108dc90614ce6565b8761376881611306565b80613777575061377781610829565b801561378b57506001600160a01b03811615155b6137a75760405162461bcd60e51b81526004016108dc90614ce6565b85600081116137f85760405162461bcd60e51b815260206004820152601e60248201527f416d6f756e74206d757374206e6f74206265206c657373207468616e2030000060448201526064016108dc565b88600081116138535760405162461bcd60e51b815260206004820152602160248201527f4672657175656e6379206d757374206e6f74206265206c657373207468616e206044820152600360fc1b60648201526084016108dc565b61385b6144fc565b6001600160a01b038d811682528c166020820152604081018b9052600060608201819052608082018b905260a082018a905260e08201899052871515610100830152610120820187905260c0820181905250600f54600090815260106020908152604091829020835181546001600160a01b039182166001600160a01b03199182161783559285015160018084018054929093169190941617905591830151600283015560608301516003830155608083015160048084019190915560a0840151600584015560c08401516006840180548695949293919260ff1990911691849081111561394b5761394b614bde565b021790555060e0820151600782015561010082015160088201805460ff191691151591909117905561012090910151600990910155600f805490600061399083614ccb565b919050555050505050505050505050505050565b80600160008281526010602052604090206006015460ff1660048111156139cd576139cd614bde565b14806139fe5750600260008281526010602052604090206006015460ff1660048111156139fc576139fc614bde565b145b613a1a5760405162461bcd60e51b81526004016108dc90614e65565b600082815260106020908152604080832081516101408101835281546001600160a01b03908116825260018301541693810193909352600281015491830191909152600381015460608301526004808201546080840152600582015460a0840152600682015460c084019160ff90911690811115613a9a57613a9a614bde565b6004811115613aab57613aab614bde565b81526007820154602080830191909152600883015460ff16151560408084019190915260099093015460609283015283518482015184518981526001600160a01b0392831693810193909352168184015291519293507f16adc1b7459c231f5959ebe9700eecc180d2e525d4fc985913699c18df82a24f92918290030190a150506000908152601060205260409020600601805460ff19166003179055565b6000828152601060205260408120546001600160a01b0383811691161415613b7457506000613be9565b6000838152601060205260409020600101546001600160a01b0383811691161415613ba157506001613be9565b60405162461bcd60e51b815260206004820152601b60248201527f4e6f206164647265737320696e207468697320636f6e7472616374000000000060448201526064016108dc565b92915050565b604051686672657175656e637960b81b60208201526000906029016040516020818303038152906040528051906020012082604051602001613c319190614f2a565b604051602081830303815290604052805190602001201415613c5557506000919050565b60405165185b5bdd5b9d60d21b60208201526026016040516020818303038152906040528051906020012082604051602001613c919190614f2a565b604051602081830303815290604052805190602001201415613cb557506001919050565b6040516b18dbdb9d1c9858dd08195b9960a21b6020820152602c016040516020818303038152906040528051906020012082604051602001613cf79190614f2a565b604051602081830303815290604052805190602001201415613d1b57506002919050565b6040516832bc3a32b739b4b7b760b91b60208201526029016040516020818303038152906040528051906020012082604051602001613d5a9190614f2a565b604051602081830303815290604052805190602001201415613d7e57506003919050565b60405162461bcd60e51b815260206004820152601160248201527023b7ba103130b2103830b930b6b2ba32b960791b60448201526064016108dc565b8215613dd257613dcd86858784866142fe565b613de4565b82613de457613de486868684866142fe565b60405162461bcd60e51b81526020600482015260166024820152754e6f20636c617269666965642061646472657373657360501b60448201526064016108dc565b33613e2f81611306565b80613e3e5750613e3e81610829565b613e805760405162461bcd60e51b815260206004820152601360248201527202ab9b2b91034b9903737ba1030b23232b2171606d1b60448201526064016108dc565b6000838152600c6020526040902054339084906001600160a01b0316821415613eeb5760405162461bcd60e51b815260206004820152601c60248201527f557365722063616e6e6f742061636365707420697473206f666665720000000060448201526064016108dc565b6000858152600c6020526040902060050154859060ff161515600114613f495760405162461bcd60e51b81526020600482015260136024820152724f66666572206973206e6f742061637469766560681b60448201526064016108dc565b6040805160608101825260008183018190526001600160a01b03888116835260208084018b90528a8352600e8152918490205484518b815291169181019190915290917ffda9ac54069bb066debdc05afc39e260f270fcfb0ce45a42e94b6615a4514fbc910160405180910390a1600d80546000908152600e60209081526040808320855181546001600160a01b0319166001600160a01b039091161781559185015160018301558401516002909101805460ff19169115159190911790558154919061401583614ccb565b919050555050505050505050565b6000818152600a60205260409020600101546001600160a01b0316331461408c5760405162461bcd60e51b815260206004820152601a60248201527f55736572206973206e6f742074686520626964646564206f6e6500000000000060448201526064016108dc565b6000818152600a602052604081205460ff1660028111156140af576140af614bde565b146140b957600080fd5b6000818152600a602052604090819020805460ff191660019081178083559082015460039092015492517f18c44eb16e48f6869a458babcedec359c0ba49a6bb042b6dc99a28eff6ce02d6936135f5936101009093046001600160a01b0390811693169160ff90911690614ef4565b600084815260106020526040902054339085906001600160a01b031682146141625760405162461bcd60e51b81526004016108dc90614e02565b82156142295760408051606081018252878152602080820188815292820187815260058054600181018255600091909152835160039091027f036b6384b5eca791c62761152d0c79bb0604c104a5fb6f4eb0703f3154bb3db0810191825594517f036b6384b5eca791c62761152d0c79bb0604c104a5fb6f4eb0703f3154bb3db18601559051805193949193614221937f036b6384b5eca791c62761152d0c79bb0604c104a5fb6f4eb0703f3154bb3db290930192919091019061443b565b5050506142e1565b6040805160608101825287815260006020808301828152938301888152600580546001810182559352835160039093027f036b6384b5eca791c62761152d0c79bb0604c104a5fb6f4eb0703f3154bb3db0810193845594517f036b6384b5eca791c62761152d0c79bb0604c104a5fb6f4eb0703f3154bb3db1860155518051939492936142dd937f036b6384b5eca791c62761152d0c79bb0604c104a5fb6f4eb0703f3154bb3db20192919091019061443b565b5050505b600480549060006142f183614ccb565b9190505550505050505050565b6040805160c08101825260008082526080820181815260a0830191909152606082018890526001600160a01b0387811660208401528616928201929092529083600381111561434f5761434f614bde565b9081600381111561436257614362614bde565b90525060a081018290526009546000908152600a602052604090208151815483929190829060ff1916600183600281111561439f5761439f614bde565b021790555060208201518154610100600160a81b0319166101006001600160a01b03928316021782556040830151600180840180546001600160a01b0319169290931691909117909155606083015160028301556080830151600380840180549293909260ff191691849081111561441957614419614bde565b021790555060a09190910151600490910155600980549060006142f183614ccb565b82805461444790614d90565b90600052602060002090601f01602090048101928261446957600085556144af565b82601f1061448257805160ff19168380011785556144af565b828001600101855582156144af579182015b828111156144af578251825591602001919060010190614494565b506144bb9291506145c6565b5090565b5080546144cb90614d90565b6000825580601f106144db575050565b601f0160209004906000526020600020908101906144f991906145c6565b50565b60405180610140016040528060006001600160a01b0316815260200160006001600160a01b03168152602001600081526020016000815260200160008152602001600081526020016000600481111561455757614557614bde565b815260200160008152602001600015158152602001600081525090565b60405180610100016040528060006001600160a01b0316815260200160001515815260200160008152602001600081526020016000815260200160008152602001600015158152602001600081525090565b5b808211156144bb57600081556001016145c7565b6000602082840312156145ed57600080fd5b81356001600160a01b038116811461460457600080fd5b9392505050565b8035801515811461461b57600080fd5b919050565b60008060008060008060c0878903121561463957600080fd5b6146428761460b565b9860208801359850604088013597606081013597506080810135965060a00135945092505050565b634e487b7160e01b600052604160045260246000fd5b600082601f83011261469157600080fd5b813567ffffffffffffffff808211156146ac576146ac61466a565b604051601f8301601f19908116603f011681019082821181831017156146d4576146d461466a565b816040528381528660208588010111156146ed57600080fd5b836020870160208301376000602085830101528094505050505092915050565b60006020828403121561471f57600080fd5b813567ffffffffffffffff81111561473657600080fd5b61474284828501614680565b949350505050565b60006020828403121561475c57600080fd5b5035919050565b60005b8381101561477e578181015183820152602001614766565b838111156109635750506000910152565b600081518084526147a7816020860160208601614763565b601f01601f19169290920160200192915050565b8381528260208201526060604082015260006147da606083018461478f565b95945050505050565b602081526000614604602083018461478f565b608081526000614809608083018761478f565b828103602084015261481b818761478f565b9050828103604084015261482f818661478f565b90508281036060840152614843818561478f565b979650505050505050565b600080600080600060a0868803121561486657600080fd5b853567ffffffffffffffff8082111561487e57600080fd5b61488a89838a01614680565b965060208801359150808211156148a057600080fd5b6148ac89838a01614680565b955060408801359150808211156148c257600080fd5b6148ce89838a01614680565b945060608801359150808211156148e457600080fd5b6148f089838a01614680565b9350608088013591508082111561490657600080fd5b5061491388828901614680565b9150509295509295909350565b6000806040838503121561493357600080fd5b82359150602083013567ffffffffffffffff81111561495157600080fd5b61495d85828601614680565b9150509250929050565b60a08152600061497a60a083018861478f565b828103602084015261498c818861478f565b905082810360408401526149a0818761478f565b905082810360608401526149b4818661478f565b905082810360808401526149c8818561478f565b98975050505050505050565b6000806000606084860312156149e957600080fd5b8335925060208401359150604084013567ffffffffffffffff811115614a0e57600080fd5b614a1a86828701614680565b9150509250925092565b60006020808301818452808551808352604092508286019150828160051b87010184880160005b83811015614a9557888303603f1901855281518051845287810151888501528601516060878501819052614a818186018361478f565b968901969450505090860190600101614a4b565b509098975050505050505050565b60008060008060808587031215614ab957600080fd5b843567ffffffffffffffff80821115614ad157600080fd5b614add88838901614680565b95506020870135915080821115614af357600080fd5b614aff88838901614680565b94506040870135915080821115614b1557600080fd5b614b2188838901614680565b93506060870135915080821115614b3757600080fd5b50614b4487828801614680565b91505092959194509250565b6020808252825182820181905260009190848201906040850190845b81811015614b915783516001600160a01b031683529284019291840191600101614b6c565b50909695505050505050565b600080600060608486031215614bb257600080fd5b83359250614bc26020850161460b565b9150604084013567ffffffffffffffff811115614a0e57600080fd5b634e487b7160e01b600052602160045260246000fd5b60058110614c0457614c04614bde565b9052565b81516001600160a01b0316815261014081016020830151614c3460208401826001600160a01b03169052565b5060408301516040830152606083015160608301526080830151608083015260a083015160a083015260c0830151614c6f60c0840182614bf4565b5060e083015160e083015261010080840151614c8e8285018215159052565b505061012092830151919092015290565b634e487b7160e01b600052603260045260246000fd5b634e487b7160e01b600052601160045260246000fd5b6000600019821415614cdf57614cdf614cb5565b5060010190565b6020808252601f908201527f5573657220646f6573206e6f7420657869737420696e20646174616261736500604082015260600190565b60208082526025908201527f4f6e6c79207573657220616464726573732063616e207570646174652076616c60408201526403ab2b997160dd1b606082015260800190565b60208082526014908201527302737ba1030903b30b634b21039ba3934b73397160651b604082015260600190565b600181811c90821680614da457607f821691505b60208210811415614dc557634e487b7160e01b600052602260045260246000fd5b50919050565b6020808252601d908201527f53656e646572206973206e6f7420696e2074686520636f6e7472616374000000604082015260600190565b6020808252602c908201527f546869732061646472657373206973206e6f7420746865206c616e646c6f726460408201526b081bd9881d1a19481c995b9d60a21b606082015260800190565b600082821015614e6057614e60614cb5565b500390565b60208082526013908201527214995b9d081a5cc81b9bdd081cdd185c9d1959606a1b604082015260600190565b6020808252602a908201527f546869732061646472657373206973206e6f74207468652074656e616e74206f60408201526919881d1a19481c995b9d60b21b606082015260800190565b60008219821115614eef57614eef614cb5565b500190565b6001600160a01b038481168252831660208201526060810160048310614f1c57614f1c614bde565b826040830152949350505050565b60008251614f3c818460208701614763565b919091019291505056fea2646970667358221220513eb1ee67a2ff11c731a76843a5c344d8593a36d032a731f8ae705f95735d9864736f6c634300080c0033",
  "immutableReferences": {},
  "source": "// SPDX-License-Identifier: MIT\npragma solidity >=0.7.0 <0.9.0;\n\n/*\n * \n * El pagament es fa a partir de dues adreces que consten en l'estructura del contracte de lloguer. Juntament amb frequencia de pagament i quantitat. \n * Es comprova si el contracte s per vivenda, ja que en cas de que sigui cert el reglament de contractaci s ms estricte. \n*/\n\nimport \"./Persona_Fisica.sol\";\nimport \"./Persona_Juridica.sol\";\nimport \"./Transfer.sol\";\nimport \"./Payment_Request.sol\";\nimport \"./Up_Conditions.sol\";\nimport \"./Offers.sol\";\n\ncontract Rent is Persona_Fisica, Persona_Juridica, Transfer, Payment_Request, Up_Conditions, Offers {\n\n    enum rent_state {\n        not_started,\n        started,\n        cancelled,\n        surety_pending,\n        ended \n    } // when cancelled the end of contract is modified to now + extension. Then is passed to ended\n\n    struct Rent_t {\n        address landlord;\n        address tenant;\n        uint frequency;  // -> To block.timestamp\n        uint last_payment; // Time units in seconds\n        uint contract_end;\n        uint256 amount;\n        rent_state state;\n        uint extension;\n        bool housing;\n        uint surety;\n    }\n\n    uint public rent_count = 0;\n    mapping(uint => Rent_t) rents;\n\n    /* ------------- Events ------------- */\n    \n    event Surety_Paid(\n        uint id_rent,\n        uint amount,\n        address landlord,\n        address tenant\n    );\n\n    event Rent_Transfer (\n        uint id_rent,\n        address landlord,\n        address tenant,\n        uint amount\n    );\n\n    event Cancel_Rent(\n        uint id_rent,\n        address landlord, \n        address tenant,\n        uint extension\n    );\n\n    event Contract_End(\n        uint id_rent,\n        address landlord,\n        address tenant\n    );\n\n    event Offer_Accepted(\n        address landlord,\n        address tenant,\n        uint frequency,\n        uint amount\n    );\n\n    /* ---------------------------------- */\n\n    /* ------------ Requires ------------ */\n\n    modifier user_exists(address _address) {\n        // Check if user is persona fisica or juridica, and see if it is not null\n        require(\n            (is_persona_fisica(_address) || is_persona_juridica(_address)) && _address != address(0),\n            \"User does not exist in database\"\n        );\n        _;\n    }\n\n    modifier not_null_amount(uint amount) {\n        // Not null amount\n        require(\n            amount > 0,\n            \"Amount must not be less than 0\"\n        );\n        _;\n    }\n\n    modifier not_null_frequency(uint frequency) {\n        require(\n            frequency > 0,\n            \"Frequency must not be less than 0\"\n        );\n        _;\n    }\n\n    modifier rent_exists(uint id_rent) {\n        require(\n            id_rent >= 0 && rents[id_rent].state == rent_state.started,\n            \"Rent must exist and it has to be started\"\n        );\n        _;\n    }\n\n    modifier payment_frequency(uint last_payment, uint frequency) {  // El pagament s'ha de fer en el temps pactat\n        // Check time between payments\n        require(\n            block.timestamp - last_payment >= frequency, // Tal i com est agafar frequency en s\n            \"To early to realize payment\"\n        );\n        _;\n    }\n\n    modifier is_tenant(address _address, uint id_rent) {\n        require(\n            _address == rents[id_rent].tenant,\n            \"This address is not the tenant of the rent\"\n        );\n        _;\n    }\n\n    modifier is_landlord(address _address, uint id_rent) {\n        require(\n            _address == rents[id_rent].landlord,\n            \"This address is not the landlord of the rent\"\n        );\n        _;\n    }\n\n    modifier valid_sender(address _address, uint id_rent) {\n        require(\n            _address == rents[id_rent].tenant || _address == rents[id_rent].landlord,\n            \"Sender is not in the contract\"\n        );\n        _;\n    }\n\n    modifier valid_payment_request(uint id_rent) {\n        require(\n            block.timestamp - rents[id_rent].last_payment > rents[id_rent].frequency,\n            \"Payment has not expired\"\n        );\n        _;\n    }\n\n    modifier rent_started(uint id_rent) {\n        require(\n            rents[id_rent].state == rent_state.started || rents[id_rent].state == rent_state.cancelled,            \n            \"Rent is not started\"\n        );\n        _;\n    }\n\n    modifier rent_not_started(uint id_rent) {\n        require(\n            rents[id_rent].state == rent_state.not_started,\n            \"Rent is already started, or does not exist\"\n        );\n        _;\n    }\n \n    /* ---------------------------------- */\n\n    /* -------- Rent Contract Offers ---------- */\n\n    function new_offer(bool _is_landlord, uint _amount, uint _frequency, uint _extension, uint _contract_duration, uint surety) public user_exists(msg.sender) {\n        set_offer(_is_landlord, _amount, _frequency, _extension, _contract_duration, surety);\n    }\n\n    function pick_offer(uint offer_id) public user_exists(msg.sender) {\n        accept_offer(offer_id, msg.sender);\n    }\n\n    function accept_rent_request(uint id_request) public {\n        require(msg.sender == offers[requests[id_request].offer_id].user, \"User is not the offerer\");\n        \n        Offer memory offer = offers[requests[id_request].offer_id];\n        RequestOffer memory request = requests[id_request];\n\n        set_inactive(requests[id_request].offer_id); \n\n        if(offer.is_landlord) {\n            create_rent(offer.user, request.requester, offer.frequency, block.timestamp + offer.contract_duration, offer.amount, offer.extension, request.housing, offer.surety);\n            emit Offer_Accepted(offer.user, request.requester, offer.frequency, offer.amount);\n        } else {\n            create_rent(request.requester, offer.user, offer.frequency, block.timestamp + offer.contract_duration, offer.amount, offer.extension, request.housing, offer.surety);\n            emit Offer_Accepted(request.requester, offer.user, offer.frequency, offer.amount);\n        }   \n    }\n\n    /* --------- Contract functions ----------- */\n    function create_rent(address _landlord, address _tenant, uint _frequency, uint _contract_end, uint _amount, uint _extension, bool _housing, uint _surety) private \n        user_exists(_landlord)\n        user_exists(_tenant)\n        not_null_amount(_amount) \n        not_null_frequency(_frequency)\n    {\n        // rents.push(Rent_t(rent_count, landlord, tenant, frequency, next_payment, contract_end, amount, rent_state.started, extension, vivenda));\n        Rent_t memory aux_rent;\n\n        aux_rent.landlord = _landlord;\n        aux_rent.tenant = _tenant;\n        aux_rent.frequency = _frequency;\n        aux_rent.last_payment = 0;\n        aux_rent.contract_end = _contract_end;\n        aux_rent.amount = _amount;\n        aux_rent.extension = _extension;\n        aux_rent.housing = _housing;\n        aux_rent.surety = _surety;\n\n        aux_rent.state = rent_state.not_started; // Surety Needs to be paid\n\n        rents[rent_count] = aux_rent;\n\n        rent_count++;\n    }\n\n    function pay_surety(uint id_rent, string memory message) public \n        is_tenant(msg.sender, id_rent) \n        rent_not_started(id_rent)\n    {        \n        emit Surety_Paid(id_rent, rents[id_rent].amount, rents[id_rent].landlord, rents[id_rent].tenant);\n        \n        add_transfer(id_rent, rents[id_rent].surety, message);    \n\n        rents[id_rent].state = rent_state.started;\n    }\n\n    function pay_rent(uint id_rent, string memory message) public\n        payment_frequency(rents[id_rent].last_payment, rents[id_rent].frequency) \n        is_tenant(msg.sender, id_rent) \n        rent_started(id_rent)\n    {                                                              // This function can only be executed by the tenant of the rent id_rent\n        rents[id_rent].last_payment = block.timestamp; \n        // In this function the payment would be realized\n\n        add_transfer(id_rent, rents[id_rent].amount, message);\n\n        if (rents[id_rent].contract_end <= block.timestamp) {\n            contract_end(id_rent);\n        } \n\n        rent_paid(id_rent);\n    }\n\n    function cancel_rent(uint id_rent) public \n        valid_sender(msg.sender, id_rent) \n        rent_started(id_rent)\n    {\n        Rent_t memory aux_rent = rents[id_rent];\n\n        emit Cancel_Rent(id_rent, aux_rent.landlord, aux_rent.tenant, aux_rent.extension);\n        \n        rents[id_rent].state = rent_state.cancelled;\n\n        // Here we change the value of the end of the contract, which is going to be now + extension\n        rents[id_rent].contract_end = block.timestamp + rents[id_rent].extension;\n    }\n\n    function contract_end(uint id_rent) internal \n        rent_started(id_rent)\n    {\n        Rent_t memory aux_rent = rents[id_rent];\n\n        emit Contract_End(id_rent, aux_rent.landlord, aux_rent.tenant);\n\n        rents[id_rent].state = rent_state.surety_pending;\n    }\n\n    function surety_back(uint id_rent, bool accept, string memory message) public\n        is_landlord(msg.sender, id_rent)\n    {\n        return_surety(id_rent, rents[id_rent].amount, message, accept);\n\n        rents[id_rent].state = rent_state.ended;\n    }\n\n    /* ------------- Up_Conditions ------------------- */\n    \n    function tenant_proposes(uint id_rent, address _address) view private returns(bool) {\n        if (_address == rents[id_rent].landlord) {\n            return false;\n        } \n        else if (_address == rents[id_rent].tenant) {\n            return true;\n        }\n        revert(\"No address in this contract\");\n    }\n\n    function get_parameter(string memory p) pure private returns(update_comps) {\n        if (keccak256(abi.encodePacked(p)) == keccak256(abi.encodePacked(\"frequency\"))) {\n            return(update_comps.frequency);\n        } else if(keccak256(abi.encodePacked(p)) == keccak256(abi.encodePacked(\"amount\"))) {\n            return(update_comps.amount);\n        } else if(keccak256(abi.encodePacked(p)) == keccak256(abi.encodePacked(\"contract end\"))) {\n            return(update_comps.contract_end);\n        } else if(keccak256(abi.encodePacked(p)) == keccak256(abi.encodePacked(\"extension\"))) {\n            return(update_comps.extension);\n        } \n        revert(\"Got bad parameter\");\n    }\n\n    function set_request(uint id_rent, uint value, string memory p) public \n        rent_started(id_rent) \n        valid_sender(msg.sender, id_rent) \n    {   \n        bool tenant = tenant_proposes(id_rent, msg.sender);\n\n        if(tenant) {\n            require(\n                msg.sender == rents[id_rent].tenant,\n                \"User is not tenant. \"\n            );\n        }\n        else {\n            require(\n                msg.sender == rents[id_rent].landlord,\n                \"User is not landlord. \"\n            );\n        }\n\n        update_comps parameter = get_parameter(p);\n\n        assign_request(id_rent, rents[id_rent].landlord, rents[id_rent].tenant, tenant, value, parameter);\n    }\n\n    function request_accepted(uint id_req) public rent_started(reqs[id_req].id_rent) {\n        require(reqs[id_req].state != req_state.pending, \"Cannot change a value that is applied\");\n\n        accept_request(id_req);\n        \n        if (reqs[id_req].parameter == update_comps.frequency) {\n            rents[reqs[id_req].id_rent].frequency = reqs[id_req].value;\n        }\n        else if (reqs[id_req].parameter == update_comps.amount) {\n            rents[reqs[id_req].id_rent].amount = reqs[id_req].value;\n        }\n        else if (reqs[id_req].parameter == update_comps.contract_end) {\n            rents[reqs[id_req].id_rent].contract_end = reqs[id_req].value;\n        }\n        else if (reqs[id_req].parameter == update_comps.extension) {\n            rents[reqs[id_req].id_rent].extension = reqs[id_req].value;\n        }\n        revert(\"No possible update\");\n    }\n\n    function request_refused(uint id_req) public rent_started(reqs[id_req].id_rent) {\n        refuse_request(id_req);\n    }\n\n    /* ------ Payment Request ------- */\n    function create_payment_request(uint _id_rent) public \n        is_landlord(msg.sender, _id_rent)\n        valid_payment_request(_id_rent)\n    { // valid payment request means in time\n        \n        payment_reqs.push(Request_Payment(req_payment_count, _id_rent, payment_req_state.not_payed));\n\n        req_payment_count++;\n    }\n\n    function rent_paid(uint _id_rent) public {  \n        for (uint i = 0; payment_reqs.length < i; i++) {\n            if (payment_reqs[i].id_rent == _id_rent && payment_reqs[i].state == payment_req_state.not_payed) {\n                payment_reqs[i].state = payment_req_state.payed;\n            }\n        }\n    }\n\n    /* ----------- Transfers ---------- */\n    function add_transfer(uint _id_rent, uint _amount, string memory _message) private is_tenant(msg.sender, _id_rent) {\n\n        transfers.push(Transfer_t(_id_rent, _amount, _message));\n        \n        transfer_count++;\n    }\n\n    function return_surety(uint _id_rent, uint _amount, string memory _message, bool accept) private is_landlord(msg.sender, _id_rent) {\n        // If accept is true, means that the property is in a good condition\n\n        if(accept) {\n            transfers.push(Transfer_t(_id_rent, _amount, _message));\n        } else {\n            transfers.push(Transfer_t(_id_rent, 0, _message));\n        }\n        transfer_count++;\n    }\n\n    /* ------ GETTERS ------ */\n    function get_rent_state(uint id_rent) view public valid_sender(msg.sender, id_rent) returns(string memory) \n    {\n        if(rents[id_rent].state == rent_state.not_started) {\n            return(\"Not Started\"); \n        } else if(rents[id_rent].state == rent_state.started) {\n            return(\"Started\"); \n        } else if(rents[id_rent].state == rent_state.cancelled) {\n            return(\"Cancelled\"); \n        } else if(rents[id_rent].state == rent_state.ended) {\n            return(\"Ended\"); \n        } else if(rents[id_rent].state == rent_state.surety_pending) {\n            return(\"Surety Pending\"); \n        } else {\n            return(\"None\");            \n        } \n    }\n\n    function get_rent(uint id_rent) view public returns(Rent_t memory) {\n        require(id_rent < rent_count, \"This rent does not exist. \");\n        return(rents[id_rent]);\n    }\n\n    /* \n     * \n     *  Explicaci de funcionament de la modularitat dels smart contracts inheritance\n     *\n     */\n\n    // function get_fisiques() view public returns(address[] memory) {\n    //     //Persona_Fisica pf = new Persona_Fisica();\n    //     return get_pfisiques();\n    // }\n\n    // function pf(address _address) view public returns(bool) {\n    //     return(pf.is_persona_fisica(_address));\n    // }\n\n    // function get_address() view public returns(address) {\n    //     return(msg.sender);\n    // }\n\n    // function get_rent_addresses(uint id_rent) view public returns(address, address) {\n    //     return(rents[id_rent].landlord, rents[id_rent].tenant);\n    // }\n}",
  "sourcePath": "/home/sergi/term/grmnt/grmnt/smart_contracts/contracts/Rent.sol",
  "compiler": {
    "name": "solc",
    "version": "0.8.12+commit.f00d7308.Emscripten.clang"
  },
  "schemaVersion": "3.4.6",
  "updatedAt": "2022-09-16T22:22:43.051Z",
  "networkType": "ethereum",
  "devdoc": {
    "kind": "dev",
    "methods": {},
    "version": 1
  },
  "userdoc": {
    "kind": "user",
    "methods": {},
    "version": 1
  }
}