{
  "contractName": "Rent",
  "abi": [
    {
      "anonymous": false,
      "inputs": [
        {
          "indexed": false,
          "internalType": "address",
          "name": "bidder",
          "type": "address"
        },
        {
          "indexed": false,
          "internalType": "address",
          "name": "bidded",
          "type": "address"
        },
        {
          "indexed": false,
          "internalType": "enum Up_Conditions.update_comps",
          "name": "parameter",
          "type": "uint8"
        }
      ],
      "name": "Accepted_request",
      "type": "event"
    },
    {
      "anonymous": false,
      "inputs": [
        {
          "indexed": false,
          "internalType": "uint256",
          "name": "id_rent",
          "type": "uint256"
        },
        {
          "indexed": false,
          "internalType": "address",
          "name": "landlord",
          "type": "address"
        },
        {
          "indexed": false,
          "internalType": "address",
          "name": "tenant",
          "type": "address"
        },
        {
          "indexed": false,
          "internalType": "uint256",
          "name": "extension",
          "type": "uint256"
        }
      ],
      "name": "Cancel_Rent",
      "type": "event"
    },
    {
      "anonymous": false,
      "inputs": [
        {
          "indexed": false,
          "internalType": "uint256",
          "name": "id_rent",
          "type": "uint256"
        },
        {
          "indexed": false,
          "internalType": "address",
          "name": "landlord",
          "type": "address"
        },
        {
          "indexed": false,
          "internalType": "address",
          "name": "tenant",
          "type": "address"
        }
      ],
      "name": "Contract_End",
      "type": "event"
    },
    {
      "anonymous": false,
      "inputs": [
        {
          "indexed": false,
          "internalType": "address",
          "name": "landlord",
          "type": "address"
        },
        {
          "indexed": false,
          "internalType": "address",
          "name": "tenant",
          "type": "address"
        },
        {
          "indexed": false,
          "internalType": "uint256",
          "name": "frequency",
          "type": "uint256"
        },
        {
          "indexed": false,
          "internalType": "uint256",
          "name": "amount",
          "type": "uint256"
        }
      ],
      "name": "Offer_Accepted",
      "type": "event"
    },
    {
      "anonymous": false,
      "inputs": [
        {
          "indexed": false,
          "internalType": "address",
          "name": "bidder",
          "type": "address"
        },
        {
          "indexed": false,
          "internalType": "address",
          "name": "bidded",
          "type": "address"
        },
        {
          "indexed": false,
          "internalType": "enum Up_Conditions.update_comps",
          "name": "parameter",
          "type": "uint8"
        }
      ],
      "name": "Refused_request",
      "type": "event"
    },
    {
      "anonymous": false,
      "inputs": [
        {
          "indexed": false,
          "internalType": "uint256",
          "name": "id_rent",
          "type": "uint256"
        },
        {
          "indexed": false,
          "internalType": "address",
          "name": "landlord",
          "type": "address"
        },
        {
          "indexed": false,
          "internalType": "address",
          "name": "tenant",
          "type": "address"
        },
        {
          "indexed": false,
          "internalType": "uint256",
          "name": "amount",
          "type": "uint256"
        }
      ],
      "name": "Rent_Transfer",
      "type": "event"
    },
    {
      "anonymous": false,
      "inputs": [
        {
          "indexed": false,
          "internalType": "uint256",
          "name": "offer_id",
          "type": "uint256"
        },
        {
          "indexed": false,
          "internalType": "address",
          "name": "requestant",
          "type": "address"
        }
      ],
      "name": "Requested",
      "type": "event"
    },
    {
      "anonymous": false,
      "inputs": [
        {
          "indexed": false,
          "internalType": "uint256",
          "name": "id_rent",
          "type": "uint256"
        },
        {
          "indexed": false,
          "internalType": "uint256",
          "name": "amount",
          "type": "uint256"
        },
        {
          "indexed": false,
          "internalType": "address",
          "name": "landlord",
          "type": "address"
        },
        {
          "indexed": false,
          "internalType": "address",
          "name": "tenant",
          "type": "address"
        }
      ],
      "name": "Surety_Paid",
      "type": "event"
    },
    {
      "anonymous": false,
      "inputs": [
        {
          "indexed": false,
          "internalType": "string",
          "name": "dni",
          "type": "string"
        },
        {
          "indexed": false,
          "internalType": "string",
          "name": "nom",
          "type": "string"
        },
        {
          "indexed": false,
          "internalType": "string",
          "name": "adreca",
          "type": "string"
        },
        {
          "indexed": false,
          "internalType": "string",
          "name": "correu",
          "type": "string"
        }
      ],
      "name": "UserCreated",
      "type": "event"
    },
    {
      "inputs": [
        {
          "internalType": "uint256",
          "name": "",
          "type": "uint256"
        }
      ],
      "name": "aux_transfers",
      "outputs": [
        {
          "internalType": "uint256",
          "name": "id_rent",
          "type": "uint256"
        },
        {
          "internalType": "uint256",
          "name": "amount",
          "type": "uint256"
        },
        {
          "internalType": "string",
          "name": "message",
          "type": "string"
        }
      ],
      "stateMutability": "view",
      "type": "function",
      "constant": true
    },
    {
      "inputs": [],
      "name": "del_persona_fisica",
      "outputs": [],
      "stateMutability": "nonpayable",
      "type": "function"
    },
    {
      "inputs": [],
      "name": "del_persona_juridica",
      "outputs": [],
      "stateMutability": "nonpayable",
      "type": "function"
    },
    {
      "inputs": [
        {
          "internalType": "address",
          "name": "_address",
          "type": "address"
        }
      ],
      "name": "get_addr_fisica",
      "outputs": [
        {
          "internalType": "uint256",
          "name": "",
          "type": "uint256"
        }
      ],
      "stateMutability": "view",
      "type": "function",
      "constant": true
    },
    {
      "inputs": [],
      "name": "get_length_fisiques",
      "outputs": [
        {
          "internalType": "uint256",
          "name": "",
          "type": "uint256"
        }
      ],
      "stateMutability": "view",
      "type": "function",
      "constant": true
    },
    {
      "inputs": [],
      "name": "get_length_juridiques",
      "outputs": [
        {
          "internalType": "uint256",
          "name": "",
          "type": "uint256"
        }
      ],
      "stateMutability": "view",
      "type": "function",
      "constant": true
    },
    {
      "inputs": [
        {
          "internalType": "uint256",
          "name": "offer_id",
          "type": "uint256"
        }
      ],
      "name": "get_offer",
      "outputs": [
        {
          "components": [
            {
              "internalType": "address",
              "name": "user",
              "type": "address"
            },
            {
              "internalType": "uint256",
              "name": "amount",
              "type": "uint256"
            },
            {
              "internalType": "uint256",
              "name": "frequency",
              "type": "uint256"
            },
            {
              "internalType": "uint256",
              "name": "extension",
              "type": "uint256"
            },
            {
              "internalType": "uint256",
              "name": "contract_duration",
              "type": "uint256"
            },
            {
              "internalType": "bool",
              "name": "active",
              "type": "bool"
            },
            {
              "internalType": "uint256",
              "name": "surety",
              "type": "uint256"
            },
            {
              "internalType": "string",
              "name": "registre_cadastral",
              "type": "string"
            }
          ],
          "internalType": "struct Offers.Offer",
          "name": "",
          "type": "tuple"
        }
      ],
      "stateMutability": "view",
      "type": "function",
      "constant": true
    },
    {
      "inputs": [],
      "name": "get_pfisiques",
      "outputs": [
        {
          "internalType": "address[]",
          "name": "",
          "type": "address[]"
        }
      ],
      "stateMutability": "view",
      "type": "function",
      "constant": true
    },
    {
      "inputs": [
        {
          "internalType": "address",
          "name": "_address",
          "type": "address"
        }
      ],
      "name": "get_pjuridica",
      "outputs": [
        {
          "internalType": "string",
          "name": "",
          "type": "string"
        },
        {
          "internalType": "string",
          "name": "",
          "type": "string"
        },
        {
          "internalType": "string",
          "name": "",
          "type": "string"
        },
        {
          "internalType": "string",
          "name": "",
          "type": "string"
        },
        {
          "internalType": "string",
          "name": "",
          "type": "string"
        }
      ],
      "stateMutability": "view",
      "type": "function",
      "constant": true
    },
    {
      "inputs": [],
      "name": "get_pjuridiques",
      "outputs": [
        {
          "internalType": "address[]",
          "name": "",
          "type": "address[]"
        }
      ],
      "stateMutability": "view",
      "type": "function",
      "constant": true
    },
    {
      "inputs": [
        {
          "internalType": "uint256",
          "name": "request_id",
          "type": "uint256"
        }
      ],
      "name": "get_request",
      "outputs": [
        {
          "components": [
            {
              "internalType": "address",
              "name": "requester",
              "type": "address"
            },
            {
              "internalType": "uint256",
              "name": "offer_id",
              "type": "uint256"
            },
            {
              "internalType": "bool",
              "name": "housing",
              "type": "bool"
            }
          ],
          "internalType": "struct Offers.RequestOffer",
          "name": "",
          "type": "tuple"
        }
      ],
      "stateMutability": "view",
      "type": "function",
      "constant": true
    },
    {
      "inputs": [],
      "name": "get_transfers",
      "outputs": [
        {
          "components": [
            {
              "internalType": "uint256",
              "name": "id_rent",
              "type": "uint256"
            },
            {
              "internalType": "uint256",
              "name": "amount",
              "type": "uint256"
            },
            {
              "internalType": "string",
              "name": "message",
              "type": "string"
            }
          ],
          "internalType": "struct Transfer.Transfer_t[]",
          "name": "",
          "type": "tuple[]"
        }
      ],
      "stateMutability": "view",
      "type": "function",
      "constant": true
    },
    {
      "inputs": [
        {
          "internalType": "address",
          "name": "_address",
          "type": "address"
        }
      ],
      "name": "is_persona_fisica",
      "outputs": [
        {
          "internalType": "bool",
          "name": "",
          "type": "bool"
        }
      ],
      "stateMutability": "view",
      "type": "function",
      "constant": true
    },
    {
      "inputs": [
        {
          "internalType": "address",
          "name": "_address",
          "type": "address"
        }
      ],
      "name": "is_persona_juridica",
      "outputs": [
        {
          "internalType": "bool",
          "name": "",
          "type": "bool"
        }
      ],
      "stateMutability": "view",
      "type": "function",
      "constant": true
    },
    {
      "inputs": [],
      "name": "offer_count",
      "outputs": [
        {
          "internalType": "uint256",
          "name": "",
          "type": "uint256"
        }
      ],
      "stateMutability": "view",
      "type": "function",
      "constant": true
    },
    {
      "inputs": [
        {
          "internalType": "uint256",
          "name": "",
          "type": "uint256"
        }
      ],
      "name": "offers",
      "outputs": [
        {
          "internalType": "address",
          "name": "user",
          "type": "address"
        },
        {
          "internalType": "uint256",
          "name": "amount",
          "type": "uint256"
        },
        {
          "internalType": "uint256",
          "name": "frequency",
          "type": "uint256"
        },
        {
          "internalType": "uint256",
          "name": "extension",
          "type": "uint256"
        },
        {
          "internalType": "uint256",
          "name": "contract_duration",
          "type": "uint256"
        },
        {
          "internalType": "bool",
          "name": "active",
          "type": "bool"
        },
        {
          "internalType": "uint256",
          "name": "surety",
          "type": "uint256"
        },
        {
          "internalType": "string",
          "name": "registre_cadastral",
          "type": "string"
        }
      ],
      "stateMutability": "view",
      "type": "function",
      "constant": true
    },
    {
      "inputs": [
        {
          "internalType": "address",
          "name": "",
          "type": "address"
        }
      ],
      "name": "pfisiques",
      "outputs": [
        {
          "internalType": "string",
          "name": "dni",
          "type": "string"
        },
        {
          "internalType": "string",
          "name": "nom",
          "type": "string"
        },
        {
          "internalType": "string",
          "name": "adreca",
          "type": "string"
        },
        {
          "internalType": "string",
          "name": "correu",
          "type": "string"
        }
      ],
      "stateMutability": "view",
      "type": "function",
      "constant": true
    },
    {
      "inputs": [
        {
          "internalType": "uint256",
          "name": "",
          "type": "uint256"
        }
      ],
      "name": "pfisiques_addr",
      "outputs": [
        {
          "internalType": "address",
          "name": "",
          "type": "address"
        }
      ],
      "stateMutability": "view",
      "type": "function",
      "constant": true
    },
    {
      "inputs": [
        {
          "internalType": "address",
          "name": "",
          "type": "address"
        }
      ],
      "name": "pjuridiques",
      "outputs": [
        {
          "internalType": "string",
          "name": "nif",
          "type": "string"
        },
        {
          "internalType": "string",
          "name": "den_social",
          "type": "string"
        },
        {
          "internalType": "string",
          "name": "adreca",
          "type": "string"
        },
        {
          "internalType": "string",
          "name": "dades_constitucio",
          "type": "string"
        },
        {
          "internalType": "string",
          "name": "apoderat",
          "type": "string"
        }
      ],
      "stateMutability": "view",
      "type": "function",
      "constant": true
    },
    {
      "inputs": [
        {
          "internalType": "uint256",
          "name": "",
          "type": "uint256"
        }
      ],
      "name": "pjuridiques_addr",
      "outputs": [
        {
          "internalType": "address",
          "name": "",
          "type": "address"
        }
      ],
      "stateMutability": "view",
      "type": "function",
      "constant": true
    },
    {
      "inputs": [],
      "name": "rent_count",
      "outputs": [
        {
          "internalType": "uint256",
          "name": "",
          "type": "uint256"
        }
      ],
      "stateMutability": "view",
      "type": "function",
      "constant": true
    },
    {
      "inputs": [],
      "name": "req_count",
      "outputs": [
        {
          "internalType": "uint256",
          "name": "",
          "type": "uint256"
        }
      ],
      "stateMutability": "view",
      "type": "function",
      "constant": true
    },
    {
      "inputs": [],
      "name": "req_payment_count",
      "outputs": [
        {
          "internalType": "uint256",
          "name": "",
          "type": "uint256"
        }
      ],
      "stateMutability": "view",
      "type": "function",
      "constant": true
    },
    {
      "inputs": [],
      "name": "request_count",
      "outputs": [
        {
          "internalType": "uint256",
          "name": "",
          "type": "uint256"
        }
      ],
      "stateMutability": "view",
      "type": "function",
      "constant": true
    },
    {
      "inputs": [
        {
          "internalType": "string",
          "name": "_dni",
          "type": "string"
        },
        {
          "internalType": "string",
          "name": "_nom",
          "type": "string"
        },
        {
          "internalType": "string",
          "name": "_adreca",
          "type": "string"
        },
        {
          "internalType": "string",
          "name": "_correu",
          "type": "string"
        }
      ],
      "name": "set_persona_fisica",
      "outputs": [],
      "stateMutability": "nonpayable",
      "type": "function"
    },
    {
      "inputs": [
        {
          "internalType": "string",
          "name": "_nif",
          "type": "string"
        },
        {
          "internalType": "string",
          "name": "_den_social",
          "type": "string"
        },
        {
          "internalType": "string",
          "name": "_adreca",
          "type": "string"
        },
        {
          "internalType": "string",
          "name": "_dades_constitucio",
          "type": "string"
        },
        {
          "internalType": "string",
          "name": "_apoderat",
          "type": "string"
        }
      ],
      "name": "set_persona_juridica",
      "outputs": [],
      "stateMutability": "nonpayable",
      "type": "function"
    },
    {
      "inputs": [],
      "name": "transfer_count",
      "outputs": [
        {
          "internalType": "uint256",
          "name": "",
          "type": "uint256"
        }
      ],
      "stateMutability": "view",
      "type": "function",
      "constant": true
    },
    {
      "inputs": [
        {
          "internalType": "uint256",
          "name": "",
          "type": "uint256"
        }
      ],
      "name": "transfers",
      "outputs": [
        {
          "internalType": "uint256",
          "name": "id_rent",
          "type": "uint256"
        },
        {
          "internalType": "uint256",
          "name": "amount",
          "type": "uint256"
        },
        {
          "internalType": "string",
          "name": "message",
          "type": "string"
        }
      ],
      "stateMutability": "view",
      "type": "function",
      "constant": true
    },
    {
      "inputs": [
        {
          "internalType": "string",
          "name": "new_adreca",
          "type": "string"
        }
      ],
      "name": "up_adreca_fisica",
      "outputs": [],
      "stateMutability": "nonpayable",
      "type": "function"
    },
    {
      "inputs": [
        {
          "internalType": "string",
          "name": "new_adreca",
          "type": "string"
        }
      ],
      "name": "up_adreca_juridica",
      "outputs": [],
      "stateMutability": "nonpayable",
      "type": "function"
    },
    {
      "inputs": [
        {
          "internalType": "string",
          "name": "new_apoderat",
          "type": "string"
        }
      ],
      "name": "up_apoderat",
      "outputs": [],
      "stateMutability": "nonpayable",
      "type": "function"
    },
    {
      "inputs": [
        {
          "internalType": "string",
          "name": "new_correu",
          "type": "string"
        }
      ],
      "name": "up_correu",
      "outputs": [],
      "stateMutability": "nonpayable",
      "type": "function"
    },
    {
      "inputs": [
        {
          "internalType": "string",
          "name": "new_dc",
          "type": "string"
        }
      ],
      "name": "up_dades_constitucio",
      "outputs": [],
      "stateMutability": "nonpayable",
      "type": "function"
    },
    {
      "inputs": [
        {
          "internalType": "string",
          "name": "new_den_social",
          "type": "string"
        }
      ],
      "name": "up_den_social",
      "outputs": [],
      "stateMutability": "nonpayable",
      "type": "function"
    },
    {
      "inputs": [
        {
          "internalType": "string",
          "name": "new_dni",
          "type": "string"
        }
      ],
      "name": "up_dni",
      "outputs": [],
      "stateMutability": "nonpayable",
      "type": "function"
    },
    {
      "inputs": [
        {
          "internalType": "string",
          "name": "new_nif",
          "type": "string"
        }
      ],
      "name": "up_nif",
      "outputs": [],
      "stateMutability": "nonpayable",
      "type": "function"
    },
    {
      "inputs": [
        {
          "internalType": "string",
          "name": "new_nom",
          "type": "string"
        }
      ],
      "name": "up_nom",
      "outputs": [],
      "stateMutability": "nonpayable",
      "type": "function"
    },
    {
      "inputs": [
        {
          "internalType": "uint256",
          "name": "_amount",
          "type": "uint256"
        },
        {
          "internalType": "uint256",
          "name": "_frequency",
          "type": "uint256"
        },
        {
          "internalType": "uint256",
          "name": "_extension",
          "type": "uint256"
        },
        {
          "internalType": "uint256",
          "name": "_contract_duration",
          "type": "uint256"
        },
        {
          "internalType": "uint256",
          "name": "surety",
          "type": "uint256"
        },
        {
          "internalType": "string",
          "name": "registre_cadastral",
          "type": "string"
        }
      ],
      "name": "new_offer",
      "outputs": [],
      "stateMutability": "nonpayable",
      "type": "function"
    },
    {
      "inputs": [
        {
          "internalType": "uint256",
          "name": "offer_id",
          "type": "uint256"
        }
      ],
      "name": "pick_offer",
      "outputs": [],
      "stateMutability": "nonpayable",
      "type": "function"
    },
    {
      "inputs": [
        {
          "internalType": "uint256",
          "name": "id_request",
          "type": "uint256"
        }
      ],
      "name": "accept_rent_request",
      "outputs": [],
      "stateMutability": "nonpayable",
      "type": "function"
    },
    {
      "inputs": [
        {
          "internalType": "uint256",
          "name": "id_rent",
          "type": "uint256"
        },
        {
          "internalType": "string",
          "name": "message",
          "type": "string"
        }
      ],
      "name": "pay_surety",
      "outputs": [],
      "stateMutability": "nonpayable",
      "type": "function"
    },
    {
      "inputs": [
        {
          "internalType": "uint256",
          "name": "id_rent",
          "type": "uint256"
        },
        {
          "internalType": "string",
          "name": "message",
          "type": "string"
        }
      ],
      "name": "pay_rent",
      "outputs": [],
      "stateMutability": "nonpayable",
      "type": "function"
    },
    {
      "inputs": [
        {
          "internalType": "uint256",
          "name": "id_rent",
          "type": "uint256"
        }
      ],
      "name": "cancel_rent",
      "outputs": [],
      "stateMutability": "nonpayable",
      "type": "function"
    },
    {
      "inputs": [
        {
          "internalType": "uint256",
          "name": "id_rent",
          "type": "uint256"
        },
        {
          "internalType": "bool",
          "name": "accept",
          "type": "bool"
        },
        {
          "internalType": "string",
          "name": "message",
          "type": "string"
        }
      ],
      "name": "surety_back",
      "outputs": [],
      "stateMutability": "nonpayable",
      "type": "function"
    },
    {
      "inputs": [
        {
          "internalType": "uint256",
          "name": "id_rent",
          "type": "uint256"
        },
        {
          "internalType": "uint256",
          "name": "value",
          "type": "uint256"
        },
        {
          "internalType": "string",
          "name": "p",
          "type": "string"
        }
      ],
      "name": "set_request",
      "outputs": [],
      "stateMutability": "nonpayable",
      "type": "function"
    },
    {
      "inputs": [
        {
          "internalType": "uint256",
          "name": "id_req",
          "type": "uint256"
        }
      ],
      "name": "request_accepted",
      "outputs": [],
      "stateMutability": "nonpayable",
      "type": "function"
    },
    {
      "inputs": [
        {
          "internalType": "uint256",
          "name": "id_req",
          "type": "uint256"
        }
      ],
      "name": "request_refused",
      "outputs": [],
      "stateMutability": "nonpayable",
      "type": "function"
    },
    {
      "inputs": [
        {
          "internalType": "uint256",
          "name": "_id_rent",
          "type": "uint256"
        }
      ],
      "name": "create_payment_request",
      "outputs": [],
      "stateMutability": "nonpayable",
      "type": "function"
    },
    {
      "inputs": [
        {
          "internalType": "uint256",
          "name": "_id_rent",
          "type": "uint256"
        }
      ],
      "name": "rent_paid",
      "outputs": [],
      "stateMutability": "nonpayable",
      "type": "function"
    },
    {
      "inputs": [
        {
          "internalType": "uint256",
          "name": "id_rent",
          "type": "uint256"
        }
      ],
      "name": "get_rent_state",
      "outputs": [
        {
          "internalType": "string",
          "name": "",
          "type": "string"
        }
      ],
      "stateMutability": "view",
      "type": "function",
      "constant": true
    },
    {
      "inputs": [
        {
          "internalType": "uint256",
          "name": "id_rent",
          "type": "uint256"
        }
      ],
      "name": "get_rent",
      "outputs": [
        {
          "components": [
            {
              "internalType": "address",
              "name": "landlord",
              "type": "address"
            },
            {
              "internalType": "address",
              "name": "tenant",
              "type": "address"
            },
            {
              "internalType": "uint256",
              "name": "frequency",
              "type": "uint256"
            },
            {
              "internalType": "uint256",
              "name": "last_payment",
              "type": "uint256"
            },
            {
              "internalType": "uint256",
              "name": "contract_started",
              "type": "uint256"
            },
            {
              "internalType": "uint256",
              "name": "contract_end",
              "type": "uint256"
            },
            {
              "internalType": "uint256",
              "name": "amount",
              "type": "uint256"
            },
            {
              "internalType": "enum Rent.rent_state",
              "name": "state",
              "type": "uint8"
            },
            {
              "internalType": "uint256",
              "name": "extension",
              "type": "uint256"
            },
            {
              "internalType": "bool",
              "name": "housing",
              "type": "bool"
            },
            {
              "internalType": "uint256",
              "name": "surety",
              "type": "uint256"
            },
            {
              "internalType": "string",
              "name": "registre_cadastral",
              "type": "string"
            }
          ],
          "internalType": "struct Rent.Rent_t",
          "name": "",
          "type": "tuple"
        }
      ],
      "stateMutability": "view",
      "type": "function",
      "constant": true
    },
    {
      "inputs": [
        {
          "internalType": "address",
          "name": "_address",
          "type": "address"
        },
        {
          "internalType": "uint256",
          "name": "id_rent",
          "type": "uint256"
        }
      ],
      "name": "get_pfisica",
      "outputs": [
        {
          "internalType": "string",
          "name": "",
          "type": "string"
        },
        {
          "internalType": "string",
          "name": "",
          "type": "string"
        },
        {
          "internalType": "string",
          "name": "",
          "type": "string"
        },
        {
          "internalType": "string",
          "name": "",
          "type": "string"
        }
      ],
      "stateMutability": "view",
      "type": "function",
      "constant": true
    }
  ],
  "bytecode": "0x60806040526000600455600060075560006009556000600b556000600d556000600f5534801561002e57600080fd5b506155208061003e6000396000f3fe608060405234801561001057600080fd5b506004361061030c5760003560e01c806387c6e18e1161019d578063ba98b952116100e9578063d445d494116100a2578063ea23c76e1161007c578063ea23c76e1461071b578063ea2cb76714610724578063f0df312b14610737578063f1f2b6421461074057600080fd5b8063d445d494146106e0578063dbe66ac3146106e8578063ddf8d9f01461070857600080fd5b8063ba98b95214610680578063bd0e9d0514610693578063bdee9e7d146106a6578063c0562168146106af578063c69a2042146106b8578063d24cc136146106c057600080fd5b80639faacfc911610156578063a65f2d9611610130578063a65f2d9614610632578063a9f71b3114610647578063b5a6ce681461065a578063b9bad0971461066d57600080fd5b80639faacfc91461060e578063a2b0923c14610621578063a386c04c1461062957600080fd5b806387c6e18e146105935780638a72ea6a146105a65780638be26e0a146105cd5780638d1c5e77146105e05780639377d711146105e85780639c9720cd146105fb57600080fd5b80636184dc571161025c578063751c373311610215578063847ced23116101ef578063847ced2314610518578063849cd8d0146105585780638607d56d1461056b5780638651190e1461058057600080fd5b8063751c3733146104ce5780637a66ff0d146104f25780637c2b69e31461050557600080fd5b80636184dc57146104585780636380e3851461046b57806366a447801461047e5780636861dc9f146104915780636f84d66b146104b25780637287dd9e146104bb57600080fd5b806334b3824d116102c95780634a263730116102a35780634a263730146104175780634a50237c1461042a57806352602afb146104325780635f102fba1461044557600080fd5b806334b3824d146103c65780633636e2f8146103d95780633bb280be146103ec57600080fd5b80630d22a6af146103115780631d4e82f9146103395780631ed39a6e1461034e5780632880de27146103715780632ec8b9bb1461039357806334171df6146103b3575b600080fd5b61032461031f366004614a5a565b610753565b60405190151581526020015b60405180910390f35b61034c610347366004614b1f565b6107bd565b005b61036161035c366004614b5c565b610833565b6040516103309493929190614bde565b61038461037f366004614c36565b610bac565b60405161033093929190614c4f565b6103a66103a1366004614c36565b610c6e565b6040516103309190614c77565b6103616103c1366004614a5a565b610eab565b61034c6103d4366004614c36565b6110f3565b61034c6103e7366004614b1f565b611287565b6103ff6103fa366004614c36565b6112f6565b6040516001600160a01b039091168152602001610330565b61034c610425366004614b1f565b611320565b61034c61138d565b61034c610440366004614c8a565b61141d565b610324610453366004614a5a565b611549565b61034c610466366004614c36565b6115aa565b61034c610479366004614b1f565b61163e565b61034c61048c366004614d5c565b6116a7565b6104a461049f366004614a5a565b611820565b604051908152602001610330565b6104a4600b5481565b61034c6104c9366004614c36565b6118c7565b6104e16104dc366004614a5a565b611b4a565b604051610330959493929190614da3565b61034c610500366004614c36565b611e53565b61034c610513366004614d5c565b61211b565b61052b610526366004614c36565b6122c3565b6040805182516001600160a01b031681526020808401519082015291810151151590820152606001610330565b61034c610566366004614e10565b612378565b610573612570565b6040516103309190614e60565b61034c61058e366004614c36565b612675565b61034c6105a1366004614b1f565b6126c8565b6105b96105b4366004614c36565b612735565b604051610330989796959493929190614edf565b6104e16105db366004614a5a565b612812565b61034c612ae8565b6103846105f6366004614c36565b612b4e565b61034c610609366004614c36565b612b5e565b61034c61061c366004614f36565b612e19565b6001546104a4565b6104a460075481565b61063a612f18565b6040516103309190614fe3565b61034c610655366004614b1f565b612f7a565b61034c610668366004614c36565b612fe7565b61034c61067b366004615030565b6130bf565b61034c61068e366004614b1f565b613116565b61034c6106a136600461509c565b613185565b6104a4600f5481565b6104a4600d5481565b6003546104a4565b6106d36106ce366004614c36565b613201565b604051610330919061510e565b61063a61341f565b6106fb6106f6366004614c36565b61347f565b60405161033091906151d4565b61034c610716366004614b1f565b6135e6565b6104a460045481565b6103ff610732366004614c36565b613655565b6104a460095481565b61034c61074e366004614b1f565b613665565b6000805b6003548110156107b457826001600160a01b03166003828154811061077e5761077e615243565b6000918252602090912001546001600160a01b031614156107a25750600192915050565b806107ac8161526f565b915050610757565b50600092915050565b336107c781611549565b6107ec5760405162461bcd60e51b81526004016107e39061528a565b60405180910390fd5b8180516000141561080f5760405162461bcd60e51b81526004016107e3906152cf565b33600090815260208181526040909120845161082d92860190614892565b50505050565b6060808080336001600160a01b038716148061090657506000858152601060205260409020600101546001600160a01b03878116911614801561088c57506000858152601060205260409020546001600160a01b031633145b806108d457506000858152601060205260409020546001600160a01b0387811691161480156108d457506000858152601060205260409020600101546001600160a01b031633145b80156109065750600460008681526010602052604090206007015460ff166004811115610903576109036150e4565b14155b6109435760405162461bcd60e51b815260206004820152600e60248201526d139bdd08185d5d1a1bdc9a5e995960921b60448201526064016107e3565b6001600160a01b038616600090815260208190526040902080546001820190600283019060038401908490610977906152fd565b80601f01602080910402602001604051908101604052809291908181526020018280546109a3906152fd565b80156109f05780601f106109c5576101008083540402835291602001916109f0565b820191906000526020600020905b8154815290600101906020018083116109d357829003601f168201915b50505050509350828054610a03906152fd565b80601f0160208091040260200160405190810160405280929190818152602001828054610a2f906152fd565b8015610a7c5780601f10610a5157610100808354040283529160200191610a7c565b820191906000526020600020905b815481529060010190602001808311610a5f57829003601f168201915b50505050509250818054610a8f906152fd565b80601f0160208091040260200160405190810160405280929190818152602001828054610abb906152fd565b8015610b085780601f10610add57610100808354040283529160200191610b08565b820191906000526020600020905b815481529060010190602001808311610aeb57829003601f168201915b50505050509150808054610b1b906152fd565b80601f0160208091040260200160405190810160405280929190818152602001828054610b47906152fd565b8015610b945780601f10610b6957610100808354040283529160200191610b94565b820191906000526020600020905b815481529060010190602001808311610b7757829003601f168201915b50505050509050935093509350935092959194509250565b60068181548110610bbc57600080fd5b9060005260206000209060030201600091509050806000015490806001015490806002018054610beb906152fd565b80601f0160208091040260200160405190810160405280929190818152602001828054610c17906152fd565b8015610c645780601f10610c3957610100808354040283529160200191610c64565b820191906000526020600020905b815481529060010190602001808311610c4757829003601f168201915b5050505050905083565b600081815260106020526040902060010154606090339083906001600160a01b0316821480610cb657506000818152601060205260409020546001600160a01b038381169116145b610cd25760405162461bcd60e51b81526004016107e390615338565b60008481526010602052604081206007015460ff166004811115610cf857610cf86150e4565b1415610d29576040518060400160405280600b81526020016a139bdd0814dd185c9d195960aa1b8152509250610ea4565b600160008581526010602052604090206007015460ff166004811115610d5157610d516150e4565b1415610d7e576040518060400160405280600781526020016614dd185c9d195960ca1b8152509250610ea4565b600260008581526010602052604090206007015460ff166004811115610da657610da66150e4565b1415610dd5576040518060400160405280600981526020016810d85b98d95b1b195960ba1b8152509250610ea4565b600460008581526010602052604090206007015460ff166004811115610dfd57610dfd6150e4565b1415610e285760405180604001604052806005815260200164115b99195960da1b8152509250610ea4565b600360008581526010602052604090206007015460ff166004811115610e5057610e506150e4565b1415610e84576040518060400160405280600e81526020016d5375726574792050656e64696e6760901b8152509250610ea4565b604051806040016040528060048152602001634e6f6e6560e01b81525092505b5050919050565b600060208190529081526040902080548190610ec6906152fd565b80601f0160208091040260200160405190810160405280929190818152602001828054610ef2906152fd565b8015610f3f5780601f10610f1457610100808354040283529160200191610f3f565b820191906000526020600020905b815481529060010190602001808311610f2257829003601f168201915b505050505090806001018054610f54906152fd565b80601f0160208091040260200160405190810160405280929190818152602001828054610f80906152fd565b8015610fcd5780601f10610fa257610100808354040283529160200191610fcd565b820191906000526020600020905b815481529060010190602001808311610fb057829003601f168201915b505050505090806002018054610fe2906152fd565b80601f016020809104026020016040519081016040528092919081815260200182805461100e906152fd565b801561105b5780601f106110305761010080835404028352916020019161105b565b820191906000526020600020905b81548152906001019060200180831161103e57829003601f168201915b505050505090806003018054611070906152fd565b80601f016020809104026020016040519081016040528092919081815260200182805461109c906152fd565b80156110e95780601f106110be576101008083540402835291602001916110e9565b820191906000526020600020905b8154815290600101906020018083116110cc57829003601f168201915b5050505050905084565b600081815260106020526040902054339082906001600160a01b0316821461112d5760405162461bcd60e51b81526004016107e39061536f565b6000838152601060205260409020600281015460039091015484919061115390426153bb565b116111a05760405162461bcd60e51b815260206004820152601760248201527f5061796d656e7420686173206e6f74206578706972656400000000000000000060448201526064016107e3565b604080516060810182526007548152602081018681526000928201838152600880546001808201835591909552835160039095027ff3f7a9fe364faab93b216da50a3214154f22a0a2b415b23a84c8169e8b636ee3810195865592517ff3f7a9fe364faab93b216da50a3214154f22a0a2b415b23a84c8169e8b636ee484015590517ff3f7a9fe364faab93b216da50a3214154f22a0a2b415b23a84c8169e8b636ee59092018054939493909160ff19909116908381811115611265576112656150e4565b021790555050600780549150600061127c8361526f565b919050555050505050565b3361129181610753565b6112ad5760405162461bcd60e51b81526004016107e39061528a565b818051600014156112d05760405162461bcd60e51b81526004016107e3906152cf565b336000908152600260208181526040909220855161082d93919092019190860190614892565b6003818154811061130657600080fd5b6000918252602090912001546001600160a01b0316905081565b3361132a81611549565b6113465760405162461bcd60e51b81526004016107e39061528a565b818051600014156113695760405162461bcd60e51b81526004016107e3906152cf565b33600090815260208181526040909120845161082d92600290920191860190614892565b336000908152600260205260408120906113a78282614916565b6113b5600183016000614916565b6113c3600283016000614916565b6113d1600383016000614916565b6113df600483016000614916565b505060006113ec336136d4565b90506003818154811061140157611401615243565b600091825260209091200180546001600160a01b031916905550565b61144f6040518060a0016040528060608152602001606081526020016060815260200160608152602001606081525090565b858152602080820186905260408083018690526060830185905260808301849052336000908152600283522082518051849361148f928492910190614892565b5060208281015180516114a89260018501920190614892565b50604082015180516114c4916002840191602090910190614892565b50606082015180516114e0916003840191602090910190614892565b50608082015180516114fc916004840191602090910190614892565b5050600380546001810182556000919091527fc2575a0e9e593c00f959f8c92f12db2869c3395a3b0502d05e2516446f71f85b0180546001600160a01b0319163317905550505050505050565b6000805b6001548110156107b457826001600160a01b03166001828154811061157457611574615243565b6000918252602090912001546001600160a01b031614156115985750600192915050565b806115a28161526f565b91505061154d565b6000818152600a6020526040902060020154600160008281526010602052604090206007015460ff1660048111156115e4576115e46150e4565b14806116155750600260008281526010602052604090206007015460ff166004811115611613576116136150e4565b145b6116315760405162461bcd60e51b81526004016107e3906153d2565b61163a82613732565b5050565b3361164881610753565b6116645760405162461bcd60e51b81526004016107e39061528a565b818051600014156116875760405162461bcd60e51b81526004016107e3906152cf565b336000908152600260209081526040909120845161082d92860190614892565b600082815260106020526040902060010154339083906001600160a01b031682146116e45760405162461bcd60e51b81526004016107e3906153ff565b836000808281526010602052604090206007015460ff16600481111561170c5761170c6150e4565b1461176c5760405162461bcd60e51b815260206004820152602a60248201527f52656e7420697320616c726561647920737461727465642c206f7220646f6573604482015269081b9bdd08195e1a5cdd60b21b60648201526084016107e3565b6000858152601060209081526040918290206006810154815460019092015484518a8152938401919091526001600160a01b039182168385015216606082015290517fb367e76c20a0025552c4120aea2506555be82e604557645930c356021c5750c69181900360800190a16000858152601060205260409020600a01546117f690869086613841565b600085815260106020526040902060070180546001919060ff191682805b02179055505050505050565b6000805b60015481101561187e57826001600160a01b03166001828154811061184b5761184b615243565b6000918252602090912001546001600160a01b0316141561186c5792915050565b806118768161526f565b915050611824565b5060405162461bcd60e51b815260206004820152601960248201527f4e6f20757365722077697468207468617420616464726573730000000000000060448201526064016107e3565b6000818152600e60209081526040808320600101548352600c9091529020546001600160a01b0316331461193d5760405162461bcd60e51b815260206004820152601760248201527f55736572206973206e6f7420746865206f66666572657200000000000000000060448201526064016107e3565b6000818152600e602090815260408083206001908101548452600c835281842082516101008101845281546001600160a01b0316815291810154938201939093526002830154918101919091526003820154606082015260048201546080820152600582015460ff16151560a0820152600682015460c082015260078201805491929160e0840191906119cf906152fd565b80601f01602080910402602001604051908101604052809291908181526020018280546119fb906152fd565b8015611a485780601f10611a1d57610100808354040283529160200191611a48565b820191906000526020600020905b815481529060010190602001808311611a2b57829003601f168201915b505050919092525050506000838152600e60209081526040808320815160608101835281546001600160a01b03168152600182015481850181905260029092015460ff16151581840152908452600c909252909120600501805460ff191690559091508151815160408401516080850151611ae893929190611aca9042615449565b8660200151876060015187604001518960c001518a60e00151613956565b8151815160408085015160208087015183516001600160a01b03968716815295909416908501529083015260608201527f5c6efb4566e42c66d85b971c67653ded738f8754d5af3ad6e9a6241c0538059e9060800160405180910390a1505050565b6001600160a01b038116600090815260026020819052604090912080546060928392839283928392916001830191830190600384019060048501908590611b90906152fd565b80601f0160208091040260200160405190810160405280929190818152602001828054611bbc906152fd565b8015611c095780601f10611bde57610100808354040283529160200191611c09565b820191906000526020600020905b815481529060010190602001808311611bec57829003601f168201915b50505050509450838054611c1c906152fd565b80601f0160208091040260200160405190810160405280929190818152602001828054611c48906152fd565b8015611c955780601f10611c6a57610100808354040283529160200191611c95565b820191906000526020600020905b815481529060010190602001808311611c7857829003601f168201915b50505050509350828054611ca8906152fd565b80601f0160208091040260200160405190810160405280929190818152602001828054611cd4906152fd565b8015611d215780601f10611cf657610100808354040283529160200191611d21565b820191906000526020600020905b815481529060010190602001808311611d0457829003601f168201915b50505050509250818054611d34906152fd565b80601f0160208091040260200160405190810160405280929190818152602001828054611d60906152fd565b8015611dad5780601f10611d8257610100808354040283529160200191611dad565b820191906000526020600020905b815481529060010190602001808311611d9057829003601f168201915b50505050509150808054611dc0906152fd565b80601f0160208091040260200160405190810160405280929190818152602001828054611dec906152fd565b8015611e395780601f10611e0e57610100808354040283529160200191611e39565b820191906000526020600020905b815481529060010190602001808311611e1c57829003601f168201915b505050505090509450945094509450945091939590929450565b600081815260106020526040902060010154339082906001600160a01b0316821480611e9857506000818152601060205260409020546001600160a01b038381169116145b611eb45760405162461bcd60e51b81526004016107e390615338565b82600160008281526010602052604090206007015460ff166004811115611edd57611edd6150e4565b1480611f0e5750600260008281526010602052604090206007015460ff166004811115611f0c57611f0c6150e4565b145b611f2a5760405162461bcd60e51b81526004016107e3906153d2565b600084815260106020908152604080832081516101808101835281546001600160a01b03908116825260018301541693810193909352600281015491830191909152600381015460608301526004808201546080840152600582015460a0840152600682015460c0840152600782015460e084019160ff90911690811115611fb457611fb46150e4565b6004811115611fc557611fc56150e4565b815260088201546020820152600982015460ff1615156040820152600a8201546060820152600b82018054608090920191611fff906152fd565b80601f016020809104026020016040519081016040528092919081815260200182805461202b906152fd565b80156120785780601f1061204d57610100808354040283529160200191612078565b820191906000526020600020905b81548152906001019060200180831161205b57829003601f168201915b50505050508152505090507fb4d13f90fbce7f7fa5ba9b609e10a68274ce3289de492880e616c0b3d130314a85826000015183602001518461010001516040516120e594939291909384526001600160a01b03928316602085015291166040830152606082015260800190565b60405180910390a150505060009182525060106020526040902060078101805460ff191660021790556008810154600590910155565b600082815260106020526040902060038101546002909101548061213f83426153bb565b101561218d5760405162461bcd60e51b815260206004820152601b60248201527f546f206561726c7920746f207265616c697a65207061796d656e74000000000060448201526064016107e3565b600084815260106020526040902060010154339085906001600160a01b031682146121ca5760405162461bcd60e51b81526004016107e3906153ff565b85600160008281526010602052604090206007015460ff1660048111156121f3576121f36150e4565b14806122245750600260008281526010602052604090206007015460ff166004811115612222576122226150e4565b145b6122405760405162461bcd60e51b81526004016107e3906153d2565b60008781526010602052604090204260038201556006015461226490889088613841565b60008781526010602052604090206005015442106122855761228587613c1e565b6000878152601060205260409020600401546122b1576000878152601060205260409020426004909101555b6122ba87612fe7565b50505050505050565b6040805160608101825260008082526020820181905291810191909152600d5482106123315760405162461bcd60e51b815260206004820152601b60248201527f54686973206f6666657220646f6573206e6f742065786973742e20000000000060448201526064016107e3565b506000908152600e6020908152604091829020825160608101845281546001600160a01b031681526001820154928101929092526002015460ff1615159181019190915290565b82600160008281526010602052604090206007015460ff1660048111156123a1576123a16150e4565b14806123d25750600260008281526010602052604090206007015460ff1660048111156123d0576123d06150e4565b145b6123ee5760405162461bcd60e51b81526004016107e3906153d2565b600084815260106020526040902060010154339085906001600160a01b031682148061243357506000818152601060205260409020546001600160a01b038381169116145b61244f5760405162461bcd60e51b81526004016107e390615338565b600061245b8733613e6a565b905080156124c8576000878152601060205260409020600101546001600160a01b031633146124c35760405162461bcd60e51b815260206004820152601460248201527302ab9b2b91034b9903737ba103a32b730b73a17160651b60448201526064016107e3565b612527565b6000878152601060205260409020546001600160a01b031633146125275760405162461bcd60e51b815260206004820152601660248201527502ab9b2b91034b9903737ba103630b7323637b93217160551b60448201526064016107e3565b600061253286613f0f565b60008981526010602052604090208054600190910154919250612566918a916001600160a01b039081169116858b866140da565b5050505050505050565b60606005805480602002602001604051908101604052809291908181526020016000905b8282101561266c578382906000526020600020906003020160405180606001604052908160008201548152602001600182015481526020016002820180546125db906152fd565b80601f0160208091040260200160405190810160405280929190818152602001828054612607906152fd565b80156126545780601f1061262957610100808354040283529160200191612654565b820191906000526020600020905b81548152906001019060200180831161263757829003601f168201915b50505050508152505081526020019060010190612594565b50505050905090565b3361267f81611549565b8061268e575061268e81610753565b80156126a257506001600160a01b03811615155b6126be5760405162461bcd60e51b81526004016107e390615461565b61163a8233614145565b336126d281611549565b6126ee5760405162461bcd60e51b81526004016107e39061528a565b818051600014156127115760405162461bcd60e51b81526004016107e3906152cf565b33600090815260208181526040909120845161082d92600390920191860190614892565b600c60205260009081526040902080546001820154600283015460038401546004850154600586015460068701546007880180546001600160a01b0390981698969795969495939460ff9093169391929161278f906152fd565b80601f01602080910402602001604051908101604052809291908181526020018280546127bb906152fd565b80156128085780601f106127dd57610100808354040283529160200191612808565b820191906000526020600020905b8154815290600101906020018083116127eb57829003601f168201915b5050505050905088565b60026020526000908152604090208054819061282d906152fd565b80601f0160208091040260200160405190810160405280929190818152602001828054612859906152fd565b80156128a65780601f1061287b576101008083540402835291602001916128a6565b820191906000526020600020905b81548152906001019060200180831161288957829003601f168201915b5050505050908060010180546128bb906152fd565b80601f01602080910402602001604051908101604052809291908181526020018280546128e7906152fd565b80156129345780601f1061290957610100808354040283529160200191612934565b820191906000526020600020905b81548152906001019060200180831161291757829003601f168201915b505050505090806002018054612949906152fd565b80601f0160208091040260200160405190810160405280929190818152602001828054612975906152fd565b80156129c25780601f10612997576101008083540402835291602001916129c2565b820191906000526020600020905b8154815290600101906020018083116129a557829003601f168201915b5050505050908060030180546129d7906152fd565b80601f0160208091040260200160405190810160405280929190818152602001828054612a03906152fd565b8015612a505780601f10612a2557610100808354040283529160200191612a50565b820191906000526020600020905b815481529060010190602001808311612a3357829003601f168201915b505050505090806004018054612a65906152fd565b80601f0160208091040260200160405190810160405280929190818152602001828054612a91906152fd565b8015612ade5780601f10612ab357610100808354040283529160200191612ade565b820191906000526020600020905b815481529060010190602001808311612ac157829003601f168201915b5050505050905085565b33600090815260208190526040812090612b028282614916565b612b10600183016000614916565b612b1e600283016000614916565b612b2c600383016000614916565b50506000612b3933611820565b90506001818154811061140157611401615243565b60058181548110610bbc57600080fd5b6000818152600a6020526040902060020154600160008281526010602052604090206007015460ff166004811115612b9857612b986150e4565b1480612bc95750600260008281526010602052604090206007015460ff166004811115612bc757612bc76150e4565b145b612be55760405162461bcd60e51b81526004016107e3906153d2565b6000828152600a602052604081205460ff166002811115612c0857612c086150e4565b1415612c645760405162461bcd60e51b815260206004820152602560248201527f43616e6e6f74206368616e676520612076616c756520746861742069732061706044820152641c1b1a595960da1b60648201526084016107e3565b612c6d82614343565b6000828152600a6020526040812060039081015460ff1690811115612c9457612c946150e4565b1415612cc8576000828152600a60209081526040808320600481015460029182015485526010909352922090910155612ddc565b60016000838152600a6020526040902060039081015460ff1690811115612cf157612cf16150e4565b1415612d26576000828152600a6020908152604080832060048101546002909101548452601090925290912060060155612ddc565b60026000838152600a6020526040902060039081015460ff1690811115612d4f57612d4f6150e4565b1415612d84576000828152600a6020908152604080832060048101546002909101548452601090925290912060050155612ddc565b6000828152600a6020526040902060039081015460ff1681811115612dab57612dab6150e4565b1415612ddc576000828152600a60209081526040808320600481015460029091015484526010909252909120600801555b60405162461bcd60e51b81526020600482015260126024820152714e6f20706f737369626c652075706461746560701b60448201526064016107e3565b612e446040518060800160405280606081526020016060815260200160608152602001606081525090565b848152602080820185905260408083018590526060830184905233600090815280835220825180518493612e7c928492910190614892565b506020828101518051612e959260018501920190614892565b5060408201518051612eb1916002840191602090910190614892565b5060608201518051612ecd916003840191602090910190614892565b50506001805480820182556000919091527fb10e2d527612073b26eecdfd717e6a320cf44b4afac2b0732d9fcbe2b7fa0cf60180546001600160a01b03191633179055505050505050565b60606003805480602002602001604051908101604052809291908181526020018280548015612f7057602002820191906000526020600020905b81546001600160a01b03168152600190910190602001808311612f52575b5050505050905090565b33612f8481611549565b612fa05760405162461bcd60e51b81526004016107e39061528a565b81805160001415612fc35760405162461bcd60e51b81526004016107e3906152cf565b33600090815260208181526040909120845161082d92600190920191860190614892565b60005b60085481111561163a57816008828154811061300857613008615243565b906000526020600020906003020160010154148015613061575060006008828154811061303757613037615243565b600091825260209091206002600390920201015460ff16600181111561305f5761305f6150e4565b145b156130ad5760016008828154811061307b5761307b615243565b60009182526020909120600260039092020101805460ff1916600183818111156130a7576130a76150e4565b02179055505b806130b78161526f565b915050612fea565b336130c981611549565b806130d857506130d881610753565b80156130ec57506001600160a01b03811615155b6131085760405162461bcd60e51b81526004016107e390615461565b6122ba878787878787614448565b3361312081610753565b61313c5760405162461bcd60e51b81526004016107e39061528a565b8180516000141561315f5760405162461bcd60e51b81526004016107e3906152cf565b336000908152600260209081526040909120845161082d92600490920191860190614892565b600083815260106020526040902054339084906001600160a01b031682146131bf5760405162461bcd60e51b81526004016107e39061536f565b6000858152601060205260409020600601546131de908690858761457f565b600085815260106020526040902060070180546004919060ff1916600183611814565b613209614953565b600082815260106020526040902060010154339083906001600160a01b031682148061324e57506000818152601060205260409020546001600160a01b038381169116145b61326a5760405162461bcd60e51b81526004016107e390615338565b600f5484106132bb5760405162461bcd60e51b815260206004820152601a60248201527f546869732072656e7420646f6573206e6f742065786973742e2000000000000060448201526064016107e3565b60008481526010602090815260409182902082516101808101845281546001600160a01b03908116825260018301541692810192909252600281015492820192909252600382015460608201526004808301546080830152600583015460a0830152600683015460c0830152600783015491929160e084019160ff90911690811115613349576133496150e4565b600481111561335a5761335a6150e4565b815260088201546020820152600982015460ff1615156040820152600a8201546060820152600b82018054608090920191613394906152fd565b80601f01602080910402602001604051908101604052809291908181526020018280546133c0906152fd565b801561340d5780601f106133e25761010080835404028352916020019161340d565b820191906000526020600020905b8154815290600101906020018083116133f057829003601f168201915b50505050508152505092505050919050565b60606001805480602002602001604051908101604052809291908181526020018280548015612f70576020028201919060005260206000209081546001600160a01b03168152600190910190602001808311612f52575050505050905090565b6134876149d9565b600b5482106134d85760405162461bcd60e51b815260206004820152601b60248201527f54686973206f6666657220646f6573206e6f742065786973742e20000000000060448201526064016107e3565b6000828152600c602090815260409182902082516101008101845281546001600160a01b031681526001820154928101929092526002810154928201929092526003820154606082015260048201546080820152600582015460ff16151560a0820152600682015460c082015260078201805491929160e08401919061355d906152fd565b80601f0160208091040260200160405190810160405280929190818152602001828054613589906152fd565b80156135d65780601f106135ab576101008083540402835291602001916135d6565b820191906000526020600020905b8154815290600101906020018083116135b957829003601f168201915b5050505050815250509050919050565b336135f081610753565b61360c5760405162461bcd60e51b81526004016107e39061528a565b8180516000141561362f5760405162461bcd60e51b81526004016107e3906152cf565b336000908152600260209081526040909120845161082d92600190920191860190614892565b6001818154811061130657600080fd5b3361366f81610753565b61368b5760405162461bcd60e51b81526004016107e39061528a565b818051600014156136ae5760405162461bcd60e51b81526004016107e3906152cf565b336000908152600260209081526040909120845161082d92600390920191860190614892565b6000805b60035481101561187e57826001600160a01b0316600382815481106136ff576136ff615243565b6000918252602090912001546001600160a01b031614156137205792915050565b8061372a8161526f565b9150506136d8565b6000818152600a60205260409020600101546001600160a01b0316331461379b5760405162461bcd60e51b815260206004820152601a60248201527f55736572206973206e6f742074686520626964646564206f6e6500000000000060448201526064016107e3565b6000818152600a602052604081205460ff1660028111156137be576137be6150e4565b146137c857600080fd5b6000818152600a602052604090819020805460ff1916600217808255600182015460039092015492517f4502eb4480075d2fdfb5549aab8f9230c12abc3d254c300b6c4f1cacabcf8ae493613836936101009093046001600160a01b0390811693169160ff90911690615498565b60405180910390a150565b600083815260106020526040902060010154339084906001600160a01b0316821461387e5760405162461bcd60e51b81526004016107e3906153ff565b60408051606081018252868152602080820187815292820186815260058054600181018255600091909152835160039091027f036b6384b5eca791c62761152d0c79bb0604c104a5fb6f4eb0703f3154bb3db0810191825594517f036b6384b5eca791c62761152d0c79bb0604c104a5fb6f4eb0703f3154bb3db18601559051805193949193613937937f036b6384b5eca791c62761152d0c79bb0604c104a5fb6f4eb0703f3154bb3db2909301929190910190614892565b5050600480549150600061394a8361526f565b91905055505050505050565b8861396081611549565b8061396f575061396f81610753565b801561398357506001600160a01b03811615155b61399f5760405162461bcd60e51b81526004016107e390615461565b886139a981611549565b806139b857506139b881610753565b80156139cc57506001600160a01b03811615155b6139e85760405162461bcd60e51b81526004016107e390615461565b8660008111613a395760405162461bcd60e51b815260206004820152601e60248201527f416d6f756e74206d757374206e6f74206265206c657373207468616e2030000060448201526064016107e3565b8960008111613a945760405162461bcd60e51b815260206004820152602160248201527f4672657175656e6379206d757374206e6f74206265206c657373207468616e206044820152600360fc1b60648201526084016107e3565b613a9c614953565b6001600160a01b038e811682528d166020820152604081018c90526000606082018190526080820181905260a082018c905260c082018b905261010082018a90528815156101208301526101408201889052610160820187905260e0820181905250600f54600090815260106020908152604091829020835181546001600160a01b039182166001600160a01b03199182161783559285015160018084018054929093169190941617905591830151600283015560608301516003830155608083015160048084019190915560a0840151600584015560c0840151600684015560e08401516007840180548695949293919260ff19909116918490811115613ba657613ba66150e4565b0217905550610100820151600882015561012082015160098201805460ff1916911515919091179055610140820151600a8201556101608201518051613bf691600b840191602090910190614892565b5050600f805491506000613c098361526f565b91905055505050505050505050505050505050565b80600160008281526010602052604090206007015460ff166004811115613c4757613c476150e4565b1480613c785750600260008281526010602052604090206007015460ff166004811115613c7657613c766150e4565b145b613c945760405162461bcd60e51b81526004016107e3906153d2565b600082815260106020908152604080832081516101808101835281546001600160a01b03908116825260018301541693810193909352600281015491830191909152600381015460608301526004808201546080840152600582015460a0840152600682015460c0840152600782015460e084019160ff90911690811115613d1e57613d1e6150e4565b6004811115613d2f57613d2f6150e4565b815260088201546020820152600982015460ff1615156040820152600a8201546060820152600b82018054608090920191613d69906152fd565b80601f0160208091040260200160405190810160405280929190818152602001828054613d95906152fd565b8015613de25780601f10613db757610100808354040283529160200191613de2565b820191906000526020600020905b815481529060010190602001808311613dc557829003601f168201915b50505050508152505090507f16adc1b7459c231f5959ebe9700eecc180d2e525d4fc985913699c18df82a24f8382600001518360200151604051613e42939291909283526001600160a01b03918216602084015216604082015260600190565b60405180910390a150506000908152601060205260409020600701805460ff19166003179055565b6000828152601060205260408120546001600160a01b0383811691161415613e9457506000613f09565b6000838152601060205260409020600101546001600160a01b0383811691161415613ec157506001613f09565b60405162461bcd60e51b815260206004820152601b60248201527f4e6f206164647265737320696e207468697320636f6e7472616374000000000060448201526064016107e3565b92915050565b604051686672657175656e637960b81b60208201526000906029016040516020818303038152906040528051906020012082604051602001613f5191906154ce565b604051602081830303815290604052805190602001201415613f7557506000919050565b60405165185b5bdd5b9d60d21b60208201526026016040516020818303038152906040528051906020012082604051602001613fb191906154ce565b604051602081830303815290604052805190602001201415613fd557506001919050565b6040516b18dbdb9d1c9858dd08195b9960a21b6020820152602c01604051602081830303815290604052805190602001208260405160200161401791906154ce565b60405160208183030381529060405280519060200120141561403b57506002919050565b6040516832bc3a32b739b4b7b760b91b6020820152602901604051602081830303815290604052805190602001208260405160200161407a91906154ce565b60405160208183030381529060405280519060200120141561409e57506003919050565b60405162461bcd60e51b815260206004820152601160248201527023b7ba103130b2103830b930b6b2ba32b960791b60448201526064016107e3565b82156140f2576140ed8685878486614755565b614104565b82614104576141048686868486614755565b60405162461bcd60e51b81526020600482015260166024820152754e6f20636c617269666965642061646472657373657360501b60448201526064016107e3565b3361414f81611549565b8061415e575061415e81610753565b6141a05760405162461bcd60e51b815260206004820152601360248201527202ab9b2b91034b9903737ba1030b23232b2171606d1b60448201526064016107e3565b6000838152600c6020526040902054339084906001600160a01b031682141561420b5760405162461bcd60e51b815260206004820152601c60248201527f557365722063616e6e6f742061636365707420697473206f666665720000000060448201526064016107e3565b6000858152600c6020526040902060050154859060ff1615156001146142695760405162461bcd60e51b81526020600482015260136024820152724f66666572206973206e6f742061637469766560681b60448201526064016107e3565b6040805160608101825260008183018190526001600160a01b03888116835260208084018b90528a8352600e8152918490205484518b815291169181019190915290917ffda9ac54069bb066debdc05afc39e260f270fcfb0ce45a42e94b6615a4514fbc910160405180910390a1600d80546000908152600e60209081526040808320855181546001600160a01b0319166001600160a01b039091161781559185015160018301558401516002909101805460ff1916911515919091179055815491906143358361526f565b919050555050505050505050565b6000818152600a60205260409020600101546001600160a01b031633146143ac5760405162461bcd60e51b815260206004820152601a60248201527f55736572206973206e6f742074686520626964646564206f6e6500000000000060448201526064016107e3565b6000818152600a602052604081205460ff1660028111156143cf576143cf6150e4565b146143d957600080fd5b6000818152600a602052604090819020805460ff191660019081178083559082015460039092015492517f18c44eb16e48f6869a458babcedec359c0ba49a6bb042b6dc99a28eff6ce02d693613836936101009093046001600160a01b0390811693169160ff90911690615498565b3361445281611549565b80614461575061446181610753565b6144a35760405162461bcd60e51b815260206004820152601360248201527202ab9b2b91034b9903737ba1030b23232b2171606d1b60448201526064016107e3565b6144ab6149d9565b338152602080820189815260408084018a8152606085018a8152608086018a815260c087018a8152600160a0890181815260e08a018c8152600b546000908152600c8b52979097208a5181546001600160a01b0319166001600160a01b039091161781559751918801919091559351600287015591516003860155516004850155905160058401805460ff1916911515919091179055516006830155518051849361455d926007850192910190614892565b5050600b8054915060006145708361526f565b91905055505050505050505050565b600084815260106020526040902054339085906001600160a01b031682146145b95760405162461bcd60e51b81526004016107e39061536f565b82156146805760408051606081018252878152602080820188815292820187815260058054600181018255600091909152835160039091027f036b6384b5eca791c62761152d0c79bb0604c104a5fb6f4eb0703f3154bb3db0810191825594517f036b6384b5eca791c62761152d0c79bb0604c104a5fb6f4eb0703f3154bb3db18601559051805193949193614678937f036b6384b5eca791c62761152d0c79bb0604c104a5fb6f4eb0703f3154bb3db2909301929190910190614892565b505050614738565b6040805160608101825287815260006020808301828152938301888152600580546001810182559352835160039093027f036b6384b5eca791c62761152d0c79bb0604c104a5fb6f4eb0703f3154bb3db0810193845594517f036b6384b5eca791c62761152d0c79bb0604c104a5fb6f4eb0703f3154bb3db186015551805193949293614734937f036b6384b5eca791c62761152d0c79bb0604c104a5fb6f4eb0703f3154bb3db201929190910190614892565b5050505b600480549060006147488361526f565b9190505550505050505050565b6040805160c08101825260008082526080820181815260a0830191909152606082018890526001600160a01b038781166020840152861692820192909252908360038111156147a6576147a66150e4565b908160038111156147b9576147b96150e4565b90525060a081018290526009546000908152600a602052604090208151815483929190829060ff191660018360028111156147f6576147f66150e4565b021790555060208201518154610100600160a81b0319166101006001600160a01b03928316021782556040830151600180840180546001600160a01b0319169290931691909117909155606083015160028301556080830151600380840180549293909260ff1916918490811115614870576148706150e4565b021790555060a09190910151600490910155600980549060006147488361526f565b82805461489e906152fd565b90600052602060002090601f0160209004810192826148c05760008555614906565b82601f106148d957805160ff1916838001178555614906565b82800160010185558215614906579182015b828111156149065782518255916020019190600101906148eb565b50614912929150614a29565b5090565b508054614922906152fd565b6000825580601f10614932575050565b601f0160209004906000526020600020908101906149509190614a29565b50565b60405180610180016040528060006001600160a01b0316815260200160006001600160a01b031681526020016000815260200160008152602001600081526020016000815260200160008152602001600060048111156149b5576149b56150e4565b81526020016000815260200160001515815260200160008152602001606081525090565b60405180610100016040528060006001600160a01b031681526020016000815260200160008152602001600081526020016000815260200160001515815260200160008152602001606081525090565b5b808211156149125760008155600101614a2a565b80356001600160a01b0381168114614a5557600080fd5b919050565b600060208284031215614a6c57600080fd5b614a7582614a3e565b9392505050565b634e487b7160e01b600052604160045260246000fd5b600082601f830112614aa357600080fd5b813567ffffffffffffffff80821115614abe57614abe614a7c565b604051601f8301601f19908116603f01168101908282118183101715614ae657614ae6614a7c565b81604052838152866020858801011115614aff57600080fd5b836020870160208301376000602085830101528094505050505092915050565b600060208284031215614b3157600080fd5b813567ffffffffffffffff811115614b4857600080fd5b614b5484828501614a92565b949350505050565b60008060408385031215614b6f57600080fd5b614b7883614a3e565b946020939093013593505050565b60005b83811015614ba1578181015183820152602001614b89565b8381111561082d5750506000910152565b60008151808452614bca816020860160208601614b86565b601f01601f19169290920160200192915050565b608081526000614bf16080830187614bb2565b8281036020840152614c038187614bb2565b90508281036040840152614c178186614bb2565b90508281036060840152614c2b8185614bb2565b979650505050505050565b600060208284031215614c4857600080fd5b5035919050565b838152826020820152606060408201526000614c6e6060830184614bb2565b95945050505050565b602081526000614a756020830184614bb2565b600080600080600060a08688031215614ca257600080fd5b853567ffffffffffffffff80821115614cba57600080fd5b614cc689838a01614a92565b96506020880135915080821115614cdc57600080fd5b614ce889838a01614a92565b95506040880135915080821115614cfe57600080fd5b614d0a89838a01614a92565b94506060880135915080821115614d2057600080fd5b614d2c89838a01614a92565b93506080880135915080821115614d4257600080fd5b50614d4f88828901614a92565b9150509295509295909350565b60008060408385031215614d6f57600080fd5b82359150602083013567ffffffffffffffff811115614d8d57600080fd5b614d9985828601614a92565b9150509250929050565b60a081526000614db660a0830188614bb2565b8281036020840152614dc88188614bb2565b90508281036040840152614ddc8187614bb2565b90508281036060840152614df08186614bb2565b90508281036080840152614e048185614bb2565b98975050505050505050565b600080600060608486031215614e2557600080fd5b8335925060208401359150604084013567ffffffffffffffff811115614e4a57600080fd5b614e5686828701614a92565b9150509250925092565b60006020808301818452808551808352604092508286019150828160051b87010184880160005b83811015614ed157888303603f1901855281518051845287810151888501528601516060878501819052614ebd81860183614bb2565b968901969450505090860190600101614e87565b509098975050505050505050565b600061010060018060a01b038b16835289602084015288604084015287606084015286608084015285151560a08401528460c08401528060e0840152614f2781840185614bb2565b9b9a5050505050505050505050565b60008060008060808587031215614f4c57600080fd5b843567ffffffffffffffff80821115614f6457600080fd5b614f7088838901614a92565b95506020870135915080821115614f8657600080fd5b614f9288838901614a92565b94506040870135915080821115614fa857600080fd5b614fb488838901614a92565b93506060870135915080821115614fca57600080fd5b50614fd787828801614a92565b91505092959194509250565b6020808252825182820181905260009190848201906040850190845b818110156150245783516001600160a01b031683529284019291840191600101614fff565b50909695505050505050565b60008060008060008060c0878903121561504957600080fd5b863595506020870135945060408701359350606087013592506080870135915060a087013567ffffffffffffffff81111561508357600080fd5b61508f89828a01614a92565b9150509295509295509295565b6000806000606084860312156150b157600080fd5b83359250602084013580151581146150c857600080fd5b9150604084013567ffffffffffffffff811115614e4a57600080fd5b634e487b7160e01b600052602160045260246000fd5b6005811061510a5761510a6150e4565b9052565b602081526151286020820183516001600160a01b03169052565b6000602083015161514460408401826001600160a01b03169052565b506040830151606083015260608301516080830152608083015160a083015260a083015160c083015260c083015160e083015260e083015161010061518b818501836150fa565b8401516101208481019190915284015190506101406151ad8185018315159052565b84015161016084810191909152840151610180808501529050614b546101a0840182614bb2565b6020815260018060a01b038251166020820152602082015160408201526040820151606082015260608201516080820152608082015160a082015260a0820151151560c082015260c082015160e0820152600060e0830151610100808185015250614b54610120840182614bb2565b634e487b7160e01b600052603260045260246000fd5b634e487b7160e01b600052601160045260246000fd5b600060001982141561528357615283615259565b5060010190565b60208082526025908201527f4f6e6c79207573657220616464726573732063616e207570646174652076616c60408201526403ab2b997160dd1b606082015260800190565b60208082526014908201527302737ba1030903b30b634b21039ba3934b73397160651b604082015260600190565b600181811c9082168061531157607f821691505b6020821081141561533257634e487b7160e01b600052602260045260246000fd5b50919050565b6020808252601d908201527f53656e646572206973206e6f7420696e2074686520636f6e7472616374000000604082015260600190565b6020808252602c908201527f546869732061646472657373206973206e6f7420746865206c616e646c6f726460408201526b081bd9881d1a19481c995b9d60a21b606082015260800190565b6000828210156153cd576153cd615259565b500390565b60208082526013908201527214995b9d081a5cc81b9bdd081cdd185c9d1959606a1b604082015260600190565b6020808252602a908201527f546869732061646472657373206973206e6f74207468652074656e616e74206f60408201526919881d1a19481c995b9d60b21b606082015260800190565b6000821982111561545c5761545c615259565b500190565b6020808252601f908201527f5573657220646f6573206e6f7420657869737420696e20646174616261736500604082015260600190565b6001600160a01b0384811682528316602082015260608101600483106154c0576154c06150e4565b826040830152949350505050565b600082516154e0818460208701614b86565b919091019291505056fea2646970667358221220e3267756d2c5463fd7dc777fe7ac6385533fe3f9bec8bd1a6577af088531b76864736f6c634300080c0033",
  "immutableReferences": {},
  "source": "// SPDX-License-Identifier: MIT\npragma solidity >=0.7.0 <0.9.0;\n\n/*\n * \n * El pagament es fa a partir de dues adreces que consten en l'estructura del contracte de lloguer. Juntament amb frequencia de pagament i quantitat. \n * Es comprova si el contracte s per vivenda, ja que en cas de que sigui cert el reglament de contractaci s ms estricte. \n*/\n\nimport \"./Persona_Fisica.sol\";\nimport \"./Persona_Juridica.sol\";\nimport \"./Transfer.sol\";\nimport \"./Payment_Request.sol\";\nimport \"./Up_Conditions.sol\";\nimport \"./Offers.sol\";\n\ncontract Rent is Persona_Fisica, Persona_Juridica, Transfer, Payment_Request, Up_Conditions, Offers {\n\n    enum rent_state {\n        not_started,\n        started,\n        cancelled,\n        surety_pending,\n        ended \n    } // when cancelled the end of contract is modified to now + extension. Then is set to ended\n\n    struct Rent_t {\n        address landlord;\n        address tenant;\n        uint frequency;  // -> To block.timestamp\n        uint last_payment; // Time units in seconds\n        uint contract_started;\n        uint contract_end;\n        uint256 amount;\n        rent_state state;\n        uint extension;\n        bool housing;\n        uint surety;\n        string registre_cadastral;\n    }\n\n    uint public rent_count = 0;\n    mapping(uint => Rent_t) rents;\n\n    /* ------------- Events ------------- */\n    \n    event Surety_Paid(\n        uint id_rent,\n        uint amount,\n        address landlord,\n        address tenant\n    );\n\n    event Rent_Transfer (\n        uint id_rent,\n        address landlord,\n        address tenant,\n        uint amount\n    );\n\n    event Cancel_Rent(\n        uint id_rent,\n        address landlord, \n        address tenant,\n        uint extension\n    );\n\n    event Contract_End(\n        uint id_rent,\n        address landlord,\n        address tenant\n    );\n\n    event Offer_Accepted(\n        address landlord,\n        address tenant,\n        uint frequency,\n        uint amount\n    );\n\n    /* ---------------------------------- */\n\n    /* ------------ Requires ------------ */\n\n    modifier user_exists(address _address) {\n        // Check if user is persona fisica or juridica, and see if it is not null\n        require(\n            (is_persona_fisica(_address) || is_persona_juridica(_address)) && _address != address(0),\n            \"User does not exist in database\"\n        );\n        _;\n    }\n\n    modifier not_null_amount(uint amount) {\n        // Not null amount\n        require(\n            amount > 0,\n            \"Amount must not be less than 0\"\n        );\n        _;\n    }\n\n    modifier not_null_frequency(uint frequency) {\n        require(\n            frequency > 0,\n            \"Frequency must not be less than 0\"\n        );\n        _;\n    }\n\n    modifier rent_exists(uint id_rent) {\n        require(\n            id_rent >= 0 && rents[id_rent].state == rent_state.started,\n            \"Rent must exist and it has to be started\"\n        );\n        _;\n    }\n\n    modifier payment_frequency(uint last_payment, uint frequency) {  // El pagament s'ha de fer en el temps pactat\n        // Check time between payments\n        require(\n            block.timestamp - last_payment >= frequency, // Tal i com est agafar frequency en s\n            \"To early to realize payment\"\n        );\n        _;\n    }\n\n    modifier is_tenant(address _address, uint id_rent) {\n        require(\n            _address == rents[id_rent].tenant,\n            \"This address is not the tenant of the rent\"\n        );\n        _;\n    }\n\n    modifier is_landlord(address _address, uint id_rent) {\n        require(\n            _address == rents[id_rent].landlord,\n            \"This address is not the landlord of the rent\"\n        );\n        _;\n    }\n\n    modifier valid_sender(address _address, uint id_rent) {\n        require(\n            _address == rents[id_rent].tenant || _address == rents[id_rent].landlord,\n            \"Sender is not in the contract\"\n        );\n        _;\n    }\n\n    modifier valid_payment_request(uint id_rent) {\n        require(\n            block.timestamp - rents[id_rent].last_payment > rents[id_rent].frequency,\n            \"Payment has not expired\"\n        );\n        _;\n    }\n\n    modifier rent_started(uint id_rent) {\n        require(\n            rents[id_rent].state == rent_state.started || rents[id_rent].state == rent_state.cancelled,            \n            \"Rent is not started\"\n        );\n        _;\n    }\n\n    modifier rent_not_started(uint id_rent) {\n        require(\n            rents[id_rent].state == rent_state.not_started,\n            \"Rent is already started, or does not exist\"\n        );\n        _;\n    }\n \n    /* ---------------------------------- */\n\n    /* -------- Rent Contract Offers ---------- */\n\n    function new_offer(uint _amount, uint _frequency, uint _extension, uint _contract_duration, uint surety, string memory registre_cadastral) public user_exists(msg.sender) {\n        set_offer(_amount, _frequency, _extension, _contract_duration, surety, registre_cadastral);\n    }\n\n    function pick_offer(uint offer_id) public user_exists(msg.sender) {\n        accept_offer(offer_id, msg.sender);\n    }\n\n    function accept_rent_request(uint id_request) public {\n        require(msg.sender == offers[requests[id_request].offer_id].user, \"User is not the offerer\");\n        \n        Offer memory offer = offers[requests[id_request].offer_id];\n        RequestOffer memory request = requests[id_request];\n\n        set_inactive(requests[id_request].offer_id); \n\n        create_rent(offer.user, request.requester, offer.frequency, block.timestamp + offer.contract_duration, offer.amount, offer.extension, request.housing, offer.surety, offer.registre_cadastral);\n        emit Offer_Accepted(offer.user, request.requester, offer.frequency, offer.amount);\n \n    }\n\n    /* --------- Contract functions ----------- */\n    function create_rent(address _landlord, address _tenant, uint _frequency, uint _contract_end, uint _amount, uint _extension, bool _housing, uint _surety, string memory _registre_cadastral) private \n        user_exists(_landlord)\n        user_exists(_tenant)\n        not_null_amount(_amount) \n        not_null_frequency(_frequency)\n    {\n        // rents.push(Rent_t(rent_count, landlord, tenant, frequency, next_payment, contract_end, amount, rent_state.started, extension, vivenda));\n        Rent_t memory aux_rent;\n\n        aux_rent.landlord = _landlord;\n        aux_rent.tenant = _tenant;\n        aux_rent.frequency = _frequency;\n        aux_rent.last_payment = 0;\n        aux_rent.contract_started = 0;\n        aux_rent.contract_end = _contract_end;\n        aux_rent.amount = _amount;\n        aux_rent.extension = _extension;\n        aux_rent.housing = _housing;\n        aux_rent.surety = _surety;\n        aux_rent.registre_cadastral = _registre_cadastral;\n\n        aux_rent.state = rent_state.not_started; // Surety Needs to be paid\n\n        rents[rent_count] = aux_rent;\n\n        rent_count++;\n    }\n\n    function pay_surety(uint id_rent, string memory message) public \n        is_tenant(msg.sender, id_rent) \n        rent_not_started(id_rent)\n    {        \n        emit Surety_Paid(id_rent, rents[id_rent].amount, rents[id_rent].landlord, rents[id_rent].tenant);\n        \n        add_transfer(id_rent, rents[id_rent].surety, message);    \n\n        rents[id_rent].state = rent_state.started;\n    }\n\n    function pay_rent(uint id_rent, string memory message) public\n        payment_frequency(rents[id_rent].last_payment, rents[id_rent].frequency) \n        is_tenant(msg.sender, id_rent) \n        rent_started(id_rent)\n    {                                                              // This function can only be executed by the tenant of the rent id_rent\n        rents[id_rent].last_payment = block.timestamp; \n        // In this function the payment would be realized\n\n        add_transfer(id_rent, rents[id_rent].amount, message);\n\n        if (rents[id_rent].contract_end <= block.timestamp) {\n            contract_end(id_rent);\n        } \n\n        if(rents[id_rent].contract_started == 0) {\n            rents[id_rent].contract_started = block.timestamp;\n        }\n\n        rent_paid(id_rent);\n    }\n\n    function cancel_rent(uint id_rent) public \n        valid_sender(msg.sender, id_rent) \n        rent_started(id_rent)\n    {\n        Rent_t memory aux_rent = rents[id_rent];\n\n        emit Cancel_Rent(id_rent, aux_rent.landlord, aux_rent.tenant, aux_rent.extension);\n        \n        rents[id_rent].state = rent_state.cancelled;\n\n        // Here we change the value of the end of the contract, which is going to be now + extension\n        rents[id_rent].contract_end = \n        rents[id_rent].extension;\n    }\n\n    function contract_end(uint id_rent) internal \n        rent_started(id_rent)\n    {\n        Rent_t memory aux_rent = rents[id_rent];\n\n        emit Contract_End(id_rent, aux_rent.landlord, aux_rent.tenant);\n\n        rents[id_rent].state = rent_state.surety_pending;\n    }\n\n    function surety_back(uint id_rent, bool accept, string memory message) public\n        is_landlord(msg.sender, id_rent)\n    {\n        return_surety(id_rent, rents[id_rent].amount, message, accept);\n\n        rents[id_rent].state = rent_state.ended;\n    }\n\n    /* ------------- Up_Conditions ------------------- */\n    \n    function tenant_proposes(uint id_rent, address _address) view private returns(bool) {\n        if (_address == rents[id_rent].landlord) {\n            return false;\n        } \n        else if (_address == rents[id_rent].tenant) {\n            return true;\n        }\n        revert(\"No address in this contract\");\n    }\n\n    function get_parameter(string memory p) pure private returns(update_comps) {\n        if (keccak256(abi.encodePacked(p)) == keccak256(abi.encodePacked(\"frequency\"))) {\n            return(update_comps.frequency);\n        } else if(keccak256(abi.encodePacked(p)) == keccak256(abi.encodePacked(\"amount\"))) {\n            return(update_comps.amount);\n        } else if(keccak256(abi.encodePacked(p)) == keccak256(abi.encodePacked(\"contract end\"))) {\n            return(update_comps.contract_end);\n        } else if(keccak256(abi.encodePacked(p)) == keccak256(abi.encodePacked(\"extension\"))) {\n            return(update_comps.extension);\n        } \n        revert(\"Got bad parameter\");\n    }\n\n    function set_request(uint id_rent, uint value, string memory p) public \n        rent_started(id_rent) \n        valid_sender(msg.sender, id_rent) \n    {   \n        bool tenant = tenant_proposes(id_rent, msg.sender);\n\n        if(tenant) {\n            require(\n                msg.sender == rents[id_rent].tenant,\n                \"User is not tenant. \"\n            );\n        }\n        else {\n            require(\n                msg.sender == rents[id_rent].landlord,\n                \"User is not landlord. \"\n            );\n        }\n\n        update_comps parameter = get_parameter(p);\n\n        assign_request(id_rent, rents[id_rent].landlord, rents[id_rent].tenant, tenant, value, parameter);\n    }\n\n    function request_accepted(uint id_req) public rent_started(reqs[id_req].id_rent) {\n        require(reqs[id_req].state != req_state.pending, \"Cannot change a value that is applied\");\n\n        accept_request(id_req);\n        \n        if (reqs[id_req].parameter == update_comps.frequency) {\n            rents[reqs[id_req].id_rent].frequency = reqs[id_req].value;\n        }\n        else if (reqs[id_req].parameter == update_comps.amount) {\n            rents[reqs[id_req].id_rent].amount = reqs[id_req].value;\n        }\n        else if (reqs[id_req].parameter == update_comps.contract_end) {\n            rents[reqs[id_req].id_rent].contract_end = reqs[id_req].value;\n        }\n        else if (reqs[id_req].parameter == update_comps.extension) {\n            rents[reqs[id_req].id_rent].extension = reqs[id_req].value;\n        }\n        revert(\"No possible update\");\n    }\n\n    function request_refused(uint id_req) public rent_started(reqs[id_req].id_rent) {\n        refuse_request(id_req);\n    }\n\n    /* ------ Payment Request ------- */\n    function create_payment_request(uint _id_rent) public \n        is_landlord(msg.sender, _id_rent)\n        valid_payment_request(_id_rent)\n    { // valid payment request means in time\n        \n        payment_reqs.push(Request_Payment(req_payment_count, _id_rent, payment_req_state.not_payed));\n\n        req_payment_count++;\n    }\n\n    function rent_paid(uint _id_rent) public {  \n        for (uint i = 0; payment_reqs.length < i; i++) {\n            if (payment_reqs[i].id_rent == _id_rent && payment_reqs[i].state == payment_req_state.not_payed) {\n                payment_reqs[i].state = payment_req_state.payed;\n            }\n        }\n    }\n\n    /* ----------- Transfers ---------- */\n    function add_transfer(uint _id_rent, uint _amount, string memory _message) private is_tenant(msg.sender, _id_rent) {\n\n        transfers.push(Transfer_t(_id_rent, _amount, _message));\n        \n        transfer_count++;\n    }\n\n    function return_surety(uint _id_rent, uint _amount, string memory _message, bool accept) private is_landlord(msg.sender, _id_rent) {\n        // If accept is true, means that the property is in a good condition\n\n        if(accept) {\n            transfers.push(Transfer_t(_id_rent, _amount, _message));\n        } else {\n            transfers.push(Transfer_t(_id_rent, 0, _message));\n        }\n        transfer_count++;\n    }\n\n    /* ------ GETTERS ------ */\n    function get_rent_state(uint id_rent) view public valid_sender(msg.sender, id_rent) returns(string memory) \n    {\n        if(rents[id_rent].state == rent_state.not_started) {\n            return(\"Not Started\"); \n        } else if(rents[id_rent].state == rent_state.started) {\n            return(\"Started\"); \n        } else if(rents[id_rent].state == rent_state.cancelled) {\n            return(\"Cancelled\"); \n        } else if(rents[id_rent].state == rent_state.ended) {\n            return(\"Ended\"); \n        } else if(rents[id_rent].state == rent_state.surety_pending) {\n            return(\"Surety Pending\"); \n        } else {\n            return(\"None\");            \n        } \n    }\n\n    function get_rent(uint id_rent) view public valid_sender(msg.sender, id_rent) returns(Rent_t memory) {\n        require(id_rent < rent_count, \"This rent does not exist. \");\n        return(rents[id_rent]);\n    }\n\n    function get_pfisica(address _address, uint id_rent) view public returns(string memory, string memory, string memory, string memory) {  // X testeig es pblica!!!!!!!!!!!!!\n        require(\n            msg.sender == _address || \n            (\n                ((rents[id_rent].tenant == _address && rents[id_rent].landlord == msg.sender) || \n                (rents[id_rent].landlord == _address && rents[id_rent].tenant == msg.sender)) && \n                rents[id_rent].state != rent_state.ended\n            ),\n                \"Not authorized\"\n            );\n        return(pfisiques[_address].dni, pfisiques[_address].nom, pfisiques[_address].adreca, pfisiques[_address].correu);\n    }\n\n    /* \n     * \n     *  Explicaci de funcionament de la modularitat dels smart contracts inheritance\n     *\n     */\n\n    // function get_fisiques() view public returns(address[] memory) {\n    //     //Persona_Fisica pf = new Persona_Fisica();\n    //     return get_pfisiques();\n    // }\n\n    // function pf(address _address) view public returns(bool) {\n    //     return(pf.is_persona_fisica(_address));\n    // }\n\n    // function get_address() view public returns(address) {\n    //     return(msg.sender);\n    // }\n\n    // function get_rent_addresses(uint id_rent) view public returns(address, address) {\n    //     return(rents[id_rent].landlord, rents[id_rent].tenant);\n    // }\n}",
  "sourcePath": "/home/sergi/term/grmnt/grmnt/smart_contracts/contracts/Rent.sol",
  "compiler": {
    "name": "solc",
    "version": "0.8.12+commit.f00d7308.Emscripten.clang"
  },
  "schemaVersion": "3.4.6",
  "updatedAt": "2022-10-17T20:39:43.050Z",
  "networkType": "ethereum",
  "devdoc": {
    "kind": "dev",
    "methods": {},
    "version": 1
  },
  "userdoc": {
    "kind": "user",
    "methods": {},
    "version": 1
  }
}