{
  "contractName": "Rent",
  "abi": [
    {
      "anonymous": false,
      "inputs": [
        {
          "indexed": false,
          "internalType": "address",
          "name": "bidder",
          "type": "address"
        },
        {
          "indexed": false,
          "internalType": "address",
          "name": "bidded",
          "type": "address"
        },
        {
          "indexed": false,
          "internalType": "enum Up_Conditions.update_comps",
          "name": "parameter",
          "type": "uint8"
        }
      ],
      "name": "Accepted_request",
      "type": "event"
    },
    {
      "anonymous": false,
      "inputs": [
        {
          "indexed": false,
          "internalType": "uint256",
          "name": "id_rent",
          "type": "uint256"
        },
        {
          "indexed": false,
          "internalType": "address",
          "name": "landlord",
          "type": "address"
        },
        {
          "indexed": false,
          "internalType": "address",
          "name": "tenant",
          "type": "address"
        },
        {
          "indexed": false,
          "internalType": "uint256",
          "name": "extension",
          "type": "uint256"
        }
      ],
      "name": "Cancel_Rent",
      "type": "event"
    },
    {
      "anonymous": false,
      "inputs": [
        {
          "indexed": false,
          "internalType": "uint256",
          "name": "id_rent",
          "type": "uint256"
        },
        {
          "indexed": false,
          "internalType": "address",
          "name": "landlord",
          "type": "address"
        },
        {
          "indexed": false,
          "internalType": "address",
          "name": "tenant",
          "type": "address"
        }
      ],
      "name": "Contract_End",
      "type": "event"
    },
    {
      "anonymous": false,
      "inputs": [
        {
          "indexed": false,
          "internalType": "address",
          "name": "landlord",
          "type": "address"
        },
        {
          "indexed": false,
          "internalType": "address",
          "name": "tenant",
          "type": "address"
        },
        {
          "indexed": false,
          "internalType": "uint256",
          "name": "frequency",
          "type": "uint256"
        },
        {
          "indexed": false,
          "internalType": "uint256",
          "name": "amount",
          "type": "uint256"
        }
      ],
      "name": "Offer_Accepted",
      "type": "event"
    },
    {
      "anonymous": false,
      "inputs": [
        {
          "indexed": false,
          "internalType": "address",
          "name": "bidder",
          "type": "address"
        },
        {
          "indexed": false,
          "internalType": "address",
          "name": "bidded",
          "type": "address"
        },
        {
          "indexed": false,
          "internalType": "enum Up_Conditions.update_comps",
          "name": "parameter",
          "type": "uint8"
        }
      ],
      "name": "Refused_request",
      "type": "event"
    },
    {
      "anonymous": false,
      "inputs": [
        {
          "indexed": false,
          "internalType": "uint256",
          "name": "id_rent",
          "type": "uint256"
        },
        {
          "indexed": false,
          "internalType": "address",
          "name": "landlord",
          "type": "address"
        },
        {
          "indexed": false,
          "internalType": "address",
          "name": "tenant",
          "type": "address"
        },
        {
          "indexed": false,
          "internalType": "uint256",
          "name": "amount",
          "type": "uint256"
        }
      ],
      "name": "Rent_Transfer",
      "type": "event"
    },
    {
      "anonymous": false,
      "inputs": [
        {
          "indexed": false,
          "internalType": "uint256",
          "name": "offer_id",
          "type": "uint256"
        },
        {
          "indexed": false,
          "internalType": "address",
          "name": "requestant",
          "type": "address"
        }
      ],
      "name": "Requested",
      "type": "event"
    },
    {
      "anonymous": false,
      "inputs": [
        {
          "indexed": false,
          "internalType": "uint256",
          "name": "id_rent",
          "type": "uint256"
        },
        {
          "indexed": false,
          "internalType": "uint256",
          "name": "amount",
          "type": "uint256"
        },
        {
          "indexed": false,
          "internalType": "address",
          "name": "landlord",
          "type": "address"
        },
        {
          "indexed": false,
          "internalType": "address",
          "name": "tenant",
          "type": "address"
        }
      ],
      "name": "Surety_Paid",
      "type": "event"
    },
    {
      "anonymous": false,
      "inputs": [
        {
          "indexed": false,
          "internalType": "string",
          "name": "dni",
          "type": "string"
        },
        {
          "indexed": false,
          "internalType": "string",
          "name": "nom",
          "type": "string"
        },
        {
          "indexed": false,
          "internalType": "string",
          "name": "adreca",
          "type": "string"
        },
        {
          "indexed": false,
          "internalType": "string",
          "name": "correu",
          "type": "string"
        }
      ],
      "name": "UserCreated",
      "type": "event"
    },
    {
      "inputs": [
        {
          "internalType": "uint256",
          "name": "",
          "type": "uint256"
        }
      ],
      "name": "aux_transfers",
      "outputs": [
        {
          "internalType": "uint256",
          "name": "id_rent",
          "type": "uint256"
        },
        {
          "internalType": "uint256",
          "name": "amount",
          "type": "uint256"
        },
        {
          "internalType": "string",
          "name": "message",
          "type": "string"
        }
      ],
      "stateMutability": "view",
      "type": "function",
      "constant": true
    },
    {
      "inputs": [],
      "name": "del_persona_fisica",
      "outputs": [],
      "stateMutability": "nonpayable",
      "type": "function"
    },
    {
      "inputs": [],
      "name": "del_persona_juridica",
      "outputs": [],
      "stateMutability": "nonpayable",
      "type": "function"
    },
    {
      "inputs": [
        {
          "internalType": "address",
          "name": "_address",
          "type": "address"
        }
      ],
      "name": "get_addr_fisica",
      "outputs": [
        {
          "internalType": "uint256",
          "name": "",
          "type": "uint256"
        }
      ],
      "stateMutability": "view",
      "type": "function",
      "constant": true
    },
    {
      "inputs": [],
      "name": "get_length_fisiques",
      "outputs": [
        {
          "internalType": "uint256",
          "name": "",
          "type": "uint256"
        }
      ],
      "stateMutability": "view",
      "type": "function",
      "constant": true
    },
    {
      "inputs": [],
      "name": "get_length_juridiques",
      "outputs": [
        {
          "internalType": "uint256",
          "name": "",
          "type": "uint256"
        }
      ],
      "stateMutability": "view",
      "type": "function",
      "constant": true
    },
    {
      "inputs": [
        {
          "internalType": "uint256",
          "name": "offer_id",
          "type": "uint256"
        }
      ],
      "name": "get_offer",
      "outputs": [
        {
          "components": [
            {
              "internalType": "address",
              "name": "user",
              "type": "address"
            },
            {
              "internalType": "bool",
              "name": "is_landlord",
              "type": "bool"
            },
            {
              "internalType": "uint256",
              "name": "amount",
              "type": "uint256"
            },
            {
              "internalType": "uint256",
              "name": "frequency",
              "type": "uint256"
            },
            {
              "internalType": "uint256",
              "name": "extension",
              "type": "uint256"
            },
            {
              "internalType": "uint256",
              "name": "contract_duration",
              "type": "uint256"
            },
            {
              "internalType": "bool",
              "name": "active",
              "type": "bool"
            },
            {
              "internalType": "uint256",
              "name": "surety",
              "type": "uint256"
            }
          ],
          "internalType": "struct Offers.Offer",
          "name": "",
          "type": "tuple"
        }
      ],
      "stateMutability": "view",
      "type": "function",
      "constant": true
    },
    {
      "inputs": [
        {
          "internalType": "address",
          "name": "_address",
          "type": "address"
        }
      ],
      "name": "get_pfisica",
      "outputs": [
        {
          "internalType": "string",
          "name": "",
          "type": "string"
        },
        {
          "internalType": "string",
          "name": "",
          "type": "string"
        },
        {
          "internalType": "string",
          "name": "",
          "type": "string"
        },
        {
          "internalType": "string",
          "name": "",
          "type": "string"
        }
      ],
      "stateMutability": "view",
      "type": "function",
      "constant": true
    },
    {
      "inputs": [],
      "name": "get_pfisiques",
      "outputs": [
        {
          "internalType": "address[]",
          "name": "",
          "type": "address[]"
        }
      ],
      "stateMutability": "view",
      "type": "function",
      "constant": true
    },
    {
      "inputs": [
        {
          "internalType": "address",
          "name": "_address",
          "type": "address"
        }
      ],
      "name": "get_pjuridica",
      "outputs": [
        {
          "internalType": "string",
          "name": "",
          "type": "string"
        },
        {
          "internalType": "string",
          "name": "",
          "type": "string"
        },
        {
          "internalType": "string",
          "name": "",
          "type": "string"
        },
        {
          "internalType": "string",
          "name": "",
          "type": "string"
        },
        {
          "internalType": "string",
          "name": "",
          "type": "string"
        }
      ],
      "stateMutability": "view",
      "type": "function",
      "constant": true
    },
    {
      "inputs": [],
      "name": "get_pjuridiques",
      "outputs": [
        {
          "internalType": "address[]",
          "name": "",
          "type": "address[]"
        }
      ],
      "stateMutability": "view",
      "type": "function",
      "constant": true
    },
    {
      "inputs": [
        {
          "internalType": "uint256",
          "name": "request_id",
          "type": "uint256"
        }
      ],
      "name": "get_request",
      "outputs": [
        {
          "components": [
            {
              "internalType": "address",
              "name": "requester",
              "type": "address"
            },
            {
              "internalType": "uint256",
              "name": "offer_id",
              "type": "uint256"
            },
            {
              "internalType": "bool",
              "name": "housing",
              "type": "bool"
            }
          ],
          "internalType": "struct Offers.RequestOffer",
          "name": "",
          "type": "tuple"
        }
      ],
      "stateMutability": "view",
      "type": "function",
      "constant": true
    },
    {
      "inputs": [],
      "name": "get_transfers",
      "outputs": [
        {
          "components": [
            {
              "internalType": "uint256",
              "name": "id_rent",
              "type": "uint256"
            },
            {
              "internalType": "uint256",
              "name": "amount",
              "type": "uint256"
            },
            {
              "internalType": "string",
              "name": "message",
              "type": "string"
            }
          ],
          "internalType": "struct Transfer.Transfer_t[]",
          "name": "",
          "type": "tuple[]"
        }
      ],
      "stateMutability": "view",
      "type": "function",
      "constant": true
    },
    {
      "inputs": [
        {
          "internalType": "address",
          "name": "_address",
          "type": "address"
        }
      ],
      "name": "is_persona_fisica",
      "outputs": [
        {
          "internalType": "bool",
          "name": "",
          "type": "bool"
        }
      ],
      "stateMutability": "view",
      "type": "function",
      "constant": true
    },
    {
      "inputs": [
        {
          "internalType": "address",
          "name": "_address",
          "type": "address"
        }
      ],
      "name": "is_persona_juridica",
      "outputs": [
        {
          "internalType": "bool",
          "name": "",
          "type": "bool"
        }
      ],
      "stateMutability": "view",
      "type": "function",
      "constant": true
    },
    {
      "inputs": [],
      "name": "offer_count",
      "outputs": [
        {
          "internalType": "uint256",
          "name": "",
          "type": "uint256"
        }
      ],
      "stateMutability": "view",
      "type": "function",
      "constant": true
    },
    {
      "inputs": [
        {
          "internalType": "uint256",
          "name": "",
          "type": "uint256"
        }
      ],
      "name": "offers",
      "outputs": [
        {
          "internalType": "address",
          "name": "user",
          "type": "address"
        },
        {
          "internalType": "bool",
          "name": "is_landlord",
          "type": "bool"
        },
        {
          "internalType": "uint256",
          "name": "amount",
          "type": "uint256"
        },
        {
          "internalType": "uint256",
          "name": "frequency",
          "type": "uint256"
        },
        {
          "internalType": "uint256",
          "name": "extension",
          "type": "uint256"
        },
        {
          "internalType": "uint256",
          "name": "contract_duration",
          "type": "uint256"
        },
        {
          "internalType": "bool",
          "name": "active",
          "type": "bool"
        },
        {
          "internalType": "uint256",
          "name": "surety",
          "type": "uint256"
        }
      ],
      "stateMutability": "view",
      "type": "function",
      "constant": true
    },
    {
      "inputs": [
        {
          "internalType": "address",
          "name": "",
          "type": "address"
        }
      ],
      "name": "pfisiques",
      "outputs": [
        {
          "internalType": "string",
          "name": "dni",
          "type": "string"
        },
        {
          "internalType": "string",
          "name": "nom",
          "type": "string"
        },
        {
          "internalType": "string",
          "name": "adreca",
          "type": "string"
        },
        {
          "internalType": "string",
          "name": "correu",
          "type": "string"
        }
      ],
      "stateMutability": "view",
      "type": "function",
      "constant": true
    },
    {
      "inputs": [
        {
          "internalType": "uint256",
          "name": "",
          "type": "uint256"
        }
      ],
      "name": "pfisiques_addr",
      "outputs": [
        {
          "internalType": "address",
          "name": "",
          "type": "address"
        }
      ],
      "stateMutability": "view",
      "type": "function",
      "constant": true
    },
    {
      "inputs": [
        {
          "internalType": "address",
          "name": "",
          "type": "address"
        }
      ],
      "name": "pjuridiques",
      "outputs": [
        {
          "internalType": "string",
          "name": "nif",
          "type": "string"
        },
        {
          "internalType": "string",
          "name": "den_social",
          "type": "string"
        },
        {
          "internalType": "string",
          "name": "adreca",
          "type": "string"
        },
        {
          "internalType": "string",
          "name": "dades_constitucio",
          "type": "string"
        },
        {
          "internalType": "string",
          "name": "apoderat",
          "type": "string"
        }
      ],
      "stateMutability": "view",
      "type": "function",
      "constant": true
    },
    {
      "inputs": [
        {
          "internalType": "uint256",
          "name": "",
          "type": "uint256"
        }
      ],
      "name": "pjuridiques_addr",
      "outputs": [
        {
          "internalType": "address",
          "name": "",
          "type": "address"
        }
      ],
      "stateMutability": "view",
      "type": "function",
      "constant": true
    },
    {
      "inputs": [],
      "name": "rent_count",
      "outputs": [
        {
          "internalType": "uint256",
          "name": "",
          "type": "uint256"
        }
      ],
      "stateMutability": "view",
      "type": "function",
      "constant": true
    },
    {
      "inputs": [],
      "name": "req_count",
      "outputs": [
        {
          "internalType": "uint256",
          "name": "",
          "type": "uint256"
        }
      ],
      "stateMutability": "view",
      "type": "function",
      "constant": true
    },
    {
      "inputs": [],
      "name": "req_payment_count",
      "outputs": [
        {
          "internalType": "uint256",
          "name": "",
          "type": "uint256"
        }
      ],
      "stateMutability": "view",
      "type": "function",
      "constant": true
    },
    {
      "inputs": [],
      "name": "request_count",
      "outputs": [
        {
          "internalType": "uint256",
          "name": "",
          "type": "uint256"
        }
      ],
      "stateMutability": "view",
      "type": "function",
      "constant": true
    },
    {
      "inputs": [
        {
          "internalType": "string",
          "name": "_dni",
          "type": "string"
        },
        {
          "internalType": "string",
          "name": "_nom",
          "type": "string"
        },
        {
          "internalType": "string",
          "name": "_adreca",
          "type": "string"
        },
        {
          "internalType": "string",
          "name": "_correu",
          "type": "string"
        }
      ],
      "name": "set_persona_fisica",
      "outputs": [],
      "stateMutability": "nonpayable",
      "type": "function"
    },
    {
      "inputs": [
        {
          "internalType": "string",
          "name": "_nif",
          "type": "string"
        },
        {
          "internalType": "string",
          "name": "_den_social",
          "type": "string"
        },
        {
          "internalType": "string",
          "name": "_adreca",
          "type": "string"
        },
        {
          "internalType": "string",
          "name": "_dades_constitucio",
          "type": "string"
        },
        {
          "internalType": "string",
          "name": "_apoderat",
          "type": "string"
        }
      ],
      "name": "set_persona_juridica",
      "outputs": [],
      "stateMutability": "nonpayable",
      "type": "function"
    },
    {
      "inputs": [],
      "name": "transfer_count",
      "outputs": [
        {
          "internalType": "uint256",
          "name": "",
          "type": "uint256"
        }
      ],
      "stateMutability": "view",
      "type": "function",
      "constant": true
    },
    {
      "inputs": [
        {
          "internalType": "uint256",
          "name": "",
          "type": "uint256"
        }
      ],
      "name": "transfers",
      "outputs": [
        {
          "internalType": "uint256",
          "name": "id_rent",
          "type": "uint256"
        },
        {
          "internalType": "uint256",
          "name": "amount",
          "type": "uint256"
        },
        {
          "internalType": "string",
          "name": "message",
          "type": "string"
        }
      ],
      "stateMutability": "view",
      "type": "function",
      "constant": true
    },
    {
      "inputs": [
        {
          "internalType": "string",
          "name": "new_adreca",
          "type": "string"
        }
      ],
      "name": "up_adreca_fisica",
      "outputs": [],
      "stateMutability": "nonpayable",
      "type": "function"
    },
    {
      "inputs": [
        {
          "internalType": "string",
          "name": "new_adreca",
          "type": "string"
        }
      ],
      "name": "up_adreca_juridica",
      "outputs": [],
      "stateMutability": "nonpayable",
      "type": "function"
    },
    {
      "inputs": [
        {
          "internalType": "string",
          "name": "new_apoderat",
          "type": "string"
        }
      ],
      "name": "up_apoderat",
      "outputs": [],
      "stateMutability": "nonpayable",
      "type": "function"
    },
    {
      "inputs": [
        {
          "internalType": "string",
          "name": "new_correu",
          "type": "string"
        }
      ],
      "name": "up_correu",
      "outputs": [],
      "stateMutability": "nonpayable",
      "type": "function"
    },
    {
      "inputs": [
        {
          "internalType": "string",
          "name": "new_dc",
          "type": "string"
        }
      ],
      "name": "up_dades_constitucio",
      "outputs": [],
      "stateMutability": "nonpayable",
      "type": "function"
    },
    {
      "inputs": [
        {
          "internalType": "string",
          "name": "new_den_social",
          "type": "string"
        }
      ],
      "name": "up_den_social",
      "outputs": [],
      "stateMutability": "nonpayable",
      "type": "function"
    },
    {
      "inputs": [
        {
          "internalType": "string",
          "name": "new_dni",
          "type": "string"
        }
      ],
      "name": "up_dni",
      "outputs": [],
      "stateMutability": "nonpayable",
      "type": "function"
    },
    {
      "inputs": [
        {
          "internalType": "string",
          "name": "new_nif",
          "type": "string"
        }
      ],
      "name": "up_nif",
      "outputs": [],
      "stateMutability": "nonpayable",
      "type": "function"
    },
    {
      "inputs": [
        {
          "internalType": "string",
          "name": "new_nom",
          "type": "string"
        }
      ],
      "name": "up_nom",
      "outputs": [],
      "stateMutability": "nonpayable",
      "type": "function"
    },
    {
      "inputs": [
        {
          "internalType": "bool",
          "name": "_is_landlord",
          "type": "bool"
        },
        {
          "internalType": "uint256",
          "name": "_amount",
          "type": "uint256"
        },
        {
          "internalType": "uint256",
          "name": "_frequency",
          "type": "uint256"
        },
        {
          "internalType": "uint256",
          "name": "_extension",
          "type": "uint256"
        },
        {
          "internalType": "uint256",
          "name": "_contract_duration",
          "type": "uint256"
        },
        {
          "internalType": "uint256",
          "name": "surety",
          "type": "uint256"
        }
      ],
      "name": "new_offer",
      "outputs": [],
      "stateMutability": "nonpayable",
      "type": "function"
    },
    {
      "inputs": [
        {
          "internalType": "uint256",
          "name": "offer_id",
          "type": "uint256"
        }
      ],
      "name": "pick_offer",
      "outputs": [],
      "stateMutability": "nonpayable",
      "type": "function"
    },
    {
      "inputs": [
        {
          "internalType": "uint256",
          "name": "id_request",
          "type": "uint256"
        }
      ],
      "name": "accept_rent_request",
      "outputs": [],
      "stateMutability": "nonpayable",
      "type": "function"
    },
    {
      "inputs": [
        {
          "internalType": "uint256",
          "name": "id_rent",
          "type": "uint256"
        },
        {
          "internalType": "string",
          "name": "message",
          "type": "string"
        }
      ],
      "name": "pay_surety",
      "outputs": [],
      "stateMutability": "nonpayable",
      "type": "function"
    },
    {
      "inputs": [
        {
          "internalType": "uint256",
          "name": "id_rent",
          "type": "uint256"
        },
        {
          "internalType": "string",
          "name": "message",
          "type": "string"
        }
      ],
      "name": "pay_rent",
      "outputs": [],
      "stateMutability": "nonpayable",
      "type": "function"
    },
    {
      "inputs": [
        {
          "internalType": "uint256",
          "name": "id_rent",
          "type": "uint256"
        }
      ],
      "name": "cancel_rent",
      "outputs": [],
      "stateMutability": "nonpayable",
      "type": "function"
    },
    {
      "inputs": [
        {
          "internalType": "uint256",
          "name": "id_rent",
          "type": "uint256"
        },
        {
          "internalType": "bool",
          "name": "accept",
          "type": "bool"
        },
        {
          "internalType": "string",
          "name": "message",
          "type": "string"
        }
      ],
      "name": "surety_back",
      "outputs": [],
      "stateMutability": "nonpayable",
      "type": "function"
    },
    {
      "inputs": [
        {
          "internalType": "uint256",
          "name": "id_rent",
          "type": "uint256"
        },
        {
          "internalType": "uint256",
          "name": "value",
          "type": "uint256"
        },
        {
          "internalType": "string",
          "name": "p",
          "type": "string"
        }
      ],
      "name": "set_request",
      "outputs": [],
      "stateMutability": "nonpayable",
      "type": "function"
    },
    {
      "inputs": [
        {
          "internalType": "uint256",
          "name": "id_req",
          "type": "uint256"
        }
      ],
      "name": "request_accepted",
      "outputs": [],
      "stateMutability": "nonpayable",
      "type": "function"
    },
    {
      "inputs": [
        {
          "internalType": "uint256",
          "name": "id_req",
          "type": "uint256"
        }
      ],
      "name": "request_refused",
      "outputs": [],
      "stateMutability": "nonpayable",
      "type": "function"
    },
    {
      "inputs": [
        {
          "internalType": "uint256",
          "name": "_id_rent",
          "type": "uint256"
        }
      ],
      "name": "create_payment_request",
      "outputs": [],
      "stateMutability": "nonpayable",
      "type": "function"
    },
    {
      "inputs": [
        {
          "internalType": "uint256",
          "name": "_id_rent",
          "type": "uint256"
        }
      ],
      "name": "rent_paid",
      "outputs": [],
      "stateMutability": "nonpayable",
      "type": "function"
    },
    {
      "inputs": [
        {
          "internalType": "uint256",
          "name": "id_rent",
          "type": "uint256"
        }
      ],
      "name": "get_rent_state",
      "outputs": [
        {
          "internalType": "string",
          "name": "",
          "type": "string"
        }
      ],
      "stateMutability": "view",
      "type": "function",
      "constant": true
    }
  ],
  "bytecode": "0x60806040526000600455600060075560006009556000600b556000600d556000600f5534801561002e57600080fd5b50614c5a8061003e6000396000f3fe608060405234801561001057600080fd5b50600436106102f15760003560e01c80638607d56d1161019d578063b5a6ce68116100e9578063d445d494116100a2578063ea23c76e1161007c578063ea23c76e1461080a578063ea2cb76714610813578063f0df312b14610826578063f1f2b6421461082f57600080fd5b8063d445d49414610773578063dbe66ac31461077b578063ddf8d9f0146107f757600080fd5b8063b5a6ce6814610720578063ba98b95214610733578063bd0e9d0514610746578063bdee9e7d14610759578063c056216814610762578063c69a20421461076b57600080fd5b80639377d71111610156578063a2b0923c11610130578063a2b0923c146106e7578063a386c04c146106ef578063a65f2d96146106f8578063a9f71b311461070d57600080fd5b80639377d711146106ae5780639c9720cd146106c15780639faacfc9146106d457600080fd5b80638607d56d146105b75780638651190e146105cc57806387c6e18e146105df5780638a72ea6a146105f25780638be26e0a146106935780638d1c5e77146106a657600080fd5b80635f102fba1161025c5780636f84d66b116102155780637a66ff0d116101ef5780637a66ff0d146104ea5780637c2b69e3146104fd578063847ced2314610510578063849cd8d0146105a457600080fd5b80636f84d66b146104aa5780637287dd9e146104b3578063751c3733146104c657600080fd5b80635f102fba1461042a5780636184dc571461043d5780636380e3851461045057806366a44780146104635780636861dc9f146104765780636c6d6b9e1461049757600080fd5b806334b3824d116102ae57806334b3824d146103ab5780633636e2f8146103be5780633bb280be146103d15780634a263730146103fc5780634a50237c1461040f57806352602afb1461041757600080fd5b80630d22a6af146102f65780631870bc991461031e5780631d4e82f9146103335780632880de27146103465780632ec8b9bb1461036857806334171df614610388575b600080fd5b610309610304366004614356565b610842565b60405190151581526020015b60405180910390f35b61033161032c36600461439b565b6108ac565b005b610331610341366004614488565b610915565b6103596103543660046144c5565b610982565b60405161031593929190614536565b61037b6103763660046144c5565b610a44565b604051610315919061455e565b61039b610396366004614356565b610c81565b6040516103159493929190614571565b6103316103b93660046144c5565b610ec9565b6103316103cc366004614488565b61105d565b6103e46103df3660046144c5565b6110cc565b6040516001600160a01b039091168152602001610315565b61033161040a366004614488565b6110f6565b610331611163565b6103316104253660046145c9565b6111f3565b610309610438366004614356565b61131f565b61033161044b3660046144c5565b611380565b61033161045e366004614488565b611414565b61033161047136600461469b565b61147d565b610489610484366004614356565b6115f6565b604051908152602001610315565b61039b6104a5366004614356565b61169d565b610489600b5481565b6103316104c13660046144c5565b61190d565b6104d96104d4366004614356565b611b57565b6040516103159594939291906146e2565b6103316104f83660046144c5565b611e60565b61033161050b36600461469b565b6120ad565b61057761051e3660046144c5565b604080516060808201835260008083526020808401829052928401819052938452600e8252928290208251938401835280546001600160a01b031684526001810154918401919091526002015460ff1615159082015290565b6040805182516001600160a01b031681526020808401519082015291810151151590820152606001610315565b6103316105b236600461474f565b612220565b6105bf612418565b604051610315919061479f565b6103316105da3660046144c5565b61251d565b6103316105ed366004614488565b612570565b61064c6106003660046144c5565b600c6020526000908152604090208054600182015460028301546003840154600485015460058601546006909601546001600160a01b0386169660ff600160a01b909704871696169088565b604080516001600160a01b0390991689529615156020890152958701949094526060860192909252608085015260a0840152151560c083015260e082015261010001610315565b6104d96106a1366004614356565b6125dd565b6103316128b3565b6103596106bc3660046144c5565b612919565b6103316106cf3660046144c5565b612929565b6103316106e236600461481e565b612be2565b600154610489565b61048960075481565b610700612ce1565b60405161031591906148cb565b61033161071b366004614488565b612d43565b61033161072e3660046144c5565b612db0565b610331610741366004614488565b612e88565b610331610754366004614918565b612ef7565b610489600f5481565b610489600d5481565b600354610489565b610700612f73565b61078e6107893660046144c5565b612fd3565b604051610315919081516001600160a01b0316815260208083015115159082015260408083015190820152606080830151908201526080808301519082015260a0828101519082015260c08083015115159082015260e091820151918101919091526101000190565b610331610805366004614488565b61305f565b61048960045481565b6103e46108213660046144c5565b6130ce565b61048960095481565b61033161083d366004614488565b6130de565b6000805b6003548110156108a357826001600160a01b03166003828154811061086d5761086d614959565b6000918252602090912001546001600160a01b031614156108915750600192915050565b8061089b81614985565b915050610846565b50600092915050565b336108b68161131f565b806108c557506108c581610842565b80156108d957506001600160a01b03811615155b6108fe5760405162461bcd60e51b81526004016108f5906149a0565b60405180910390fd5b61090c87878787878761314d565b50505050505050565b3361091f8161131f565b61093b5760405162461bcd60e51b81526004016108f5906149d7565b8180516000141561095e5760405162461bcd60e51b81526004016108f590614a1c565b33600090815260208181526040909120845161097c928601906141b6565b50505050565b6006818154811061099257600080fd5b90600052602060002090600302016000915090508060000154908060010154908060020180546109c190614a4a565b80601f01602080910402602001604051908101604052809291908181526020018280546109ed90614a4a565b8015610a3a5780601f10610a0f57610100808354040283529160200191610a3a565b820191906000526020600020905b815481529060010190602001808311610a1d57829003601f168201915b5050505050905083565b600081815260106020526040902060010154606090339083906001600160a01b0316821480610a8c57506000818152601060205260409020546001600160a01b038381169116145b610aa85760405162461bcd60e51b81526004016108f590614a85565b60008481526010602052604081206006015460ff166004811115610ace57610ace614abc565b1415610aff576040518060400160405280600b81526020016a139bdd0814dd185c9d195960aa1b8152509250610c7a565b600160008581526010602052604090206006015460ff166004811115610b2757610b27614abc565b1415610b54576040518060400160405280600781526020016614dd185c9d195960ca1b8152509250610c7a565b600260008581526010602052604090206006015460ff166004811115610b7c57610b7c614abc565b1415610bab576040518060400160405280600981526020016810d85b98d95b1b195960ba1b8152509250610c7a565b600460008581526010602052604090206006015460ff166004811115610bd357610bd3614abc565b1415610bfe5760405180604001604052806005815260200164115b99195960da1b8152509250610c7a565b600360008581526010602052604090206006015460ff166004811115610c2657610c26614abc565b1415610c5a576040518060400160405280600e81526020016d5375726574792050656e64696e6760901b8152509250610c7a565b604051806040016040528060048152602001634e6f6e6560e01b81525092505b5050919050565b600060208190529081526040902080548190610c9c90614a4a565b80601f0160208091040260200160405190810160405280929190818152602001828054610cc890614a4a565b8015610d155780601f10610cea57610100808354040283529160200191610d15565b820191906000526020600020905b815481529060010190602001808311610cf857829003601f168201915b505050505090806001018054610d2a90614a4a565b80601f0160208091040260200160405190810160405280929190818152602001828054610d5690614a4a565b8015610da35780601f10610d7857610100808354040283529160200191610da3565b820191906000526020600020905b815481529060010190602001808311610d8657829003601f168201915b505050505090806002018054610db890614a4a565b80601f0160208091040260200160405190810160405280929190818152602001828054610de490614a4a565b8015610e315780601f10610e0657610100808354040283529160200191610e31565b820191906000526020600020905b815481529060010190602001808311610e1457829003601f168201915b505050505090806003018054610e4690614a4a565b80601f0160208091040260200160405190810160405280929190818152602001828054610e7290614a4a565b8015610ebf5780601f10610e9457610100808354040283529160200191610ebf565b820191906000526020600020905b815481529060010190602001808311610ea257829003601f168201915b5050505050905084565b600081815260106020526040902054339082906001600160a01b03168214610f035760405162461bcd60e51b81526004016108f590614ad2565b60008381526010602052604090206002810154600390910154849190610f299042614b1e565b11610f765760405162461bcd60e51b815260206004820152601760248201527f5061796d656e7420686173206e6f74206578706972656400000000000000000060448201526064016108f5565b604080516060810182526007548152602081018681526000928201838152600880546001808201835591909552835160039095027ff3f7a9fe364faab93b216da50a3214154f22a0a2b415b23a84c8169e8b636ee3810195865592517ff3f7a9fe364faab93b216da50a3214154f22a0a2b415b23a84c8169e8b636ee484015590517ff3f7a9fe364faab93b216da50a3214154f22a0a2b415b23a84c8169e8b636ee59092018054939493909160ff1990911690838181111561103b5761103b614abc565b021790555050600780549150600061105283614985565b919050555050505050565b3361106781610842565b6110835760405162461bcd60e51b81526004016108f5906149d7565b818051600014156110a65760405162461bcd60e51b81526004016108f590614a1c565b336000908152600260208181526040909220855161097c939190920191908601906141b6565b600381815481106110dc57600080fd5b6000918252602090912001546001600160a01b0316905081565b336111008161131f565b61111c5760405162461bcd60e51b81526004016108f5906149d7565b8180516000141561113f5760405162461bcd60e51b81526004016108f590614a1c565b33600090815260208181526040909120845161097c926002909201918601906141b6565b3360009081526002602052604081209061117d828261423a565b61118b60018301600061423a565b61119960028301600061423a565b6111a760038301600061423a565b6111b560048301600061423a565b505060006111c23361327a565b9050600381815481106111d7576111d7614959565b600091825260209091200180546001600160a01b031916905550565b6112256040518060a0016040528060608152602001606081526020016060815260200160608152602001606081525090565b85815260208082018690526040808301869052606083018590526080830184905233600090815260028352208251805184936112659284929101906141b6565b50602082810151805161127e92600185019201906141b6565b506040820151805161129a9160028401916020909101906141b6565b50606082015180516112b69160038401916020909101906141b6565b50608082015180516112d29160048401916020909101906141b6565b5050600380546001810182556000919091527fc2575a0e9e593c00f959f8c92f12db2869c3395a3b0502d05e2516446f71f85b0180546001600160a01b0319163317905550505050505050565b6000805b6001548110156108a357826001600160a01b03166001828154811061134a5761134a614959565b6000918252602090912001546001600160a01b0316141561136e5750600192915050565b8061137881614985565b915050611323565b6000818152600a6020526040902060020154600160008281526010602052604090206006015460ff1660048111156113ba576113ba614abc565b14806113eb5750600260008281526010602052604090206006015460ff1660048111156113e9576113e9614abc565b145b6114075760405162461bcd60e51b81526004016108f590614b35565b611410826132d8565b5050565b3361141e81610842565b61143a5760405162461bcd60e51b81526004016108f5906149d7565b8180516000141561145d5760405162461bcd60e51b81526004016108f590614a1c565b336000908152600260209081526040909120845161097c928601906141b6565b600082815260106020526040902060010154339083906001600160a01b031682146114ba5760405162461bcd60e51b81526004016108f590614b62565b836000808281526010602052604090206006015460ff1660048111156114e2576114e2614abc565b146115425760405162461bcd60e51b815260206004820152602a60248201527f52656e7420697320616c726561647920737461727465642c206f7220646f6573604482015269081b9bdd08195e1a5cdd60b21b60648201526084016108f5565b6000858152601060209081526040918290206005810154815460019092015484518a8152938401919091526001600160a01b039182168385015216606082015290517fb367e76c20a0025552c4120aea2506555be82e604557645930c356021c5750c69181900360800190a16000858152601060205260409020600901546115cc908690866133e7565b600085815260106020526040902060060180546001919060ff191682805b02179055505050505050565b6000805b60015481101561165457826001600160a01b03166001828154811061162157611621614959565b6000918252602090912001546001600160a01b031614156116425792915050565b8061164c81614985565b9150506115fa565b5060405162461bcd60e51b815260206004820152601960248201527f4e6f20757365722077697468207468617420616464726573730000000000000060448201526064016108f5565b6001600160a01b0381166000908152602081905260409020805460609182918291829160018201906002830190600384019084906116da90614a4a565b80601f016020809104026020016040519081016040528092919081815260200182805461170690614a4a565b80156117535780601f1061172857610100808354040283529160200191611753565b820191906000526020600020905b81548152906001019060200180831161173657829003601f168201915b5050505050935082805461176690614a4a565b80601f016020809104026020016040519081016040528092919081815260200182805461179290614a4a565b80156117df5780601f106117b4576101008083540402835291602001916117df565b820191906000526020600020905b8154815290600101906020018083116117c257829003601f168201915b505050505092508180546117f290614a4a565b80601f016020809104026020016040519081016040528092919081815260200182805461181e90614a4a565b801561186b5780601f106118405761010080835404028352916020019161186b565b820191906000526020600020905b81548152906001019060200180831161184e57829003601f168201915b5050505050915080805461187e90614a4a565b80601f01602080910402602001604051908101604052809291908181526020018280546118aa90614a4a565b80156118f75780601f106118cc576101008083540402835291602001916118f7565b820191906000526020600020905b8154815290600101906020018083116118da57829003601f168201915b5050505050905093509350935093509193509193565b6000818152600e60209081526040808320600101548352600c9091529020546001600160a01b031633146119835760405162461bcd60e51b815260206004820152601760248201527f55736572206973206e6f7420746865206f66666572657200000000000000000060448201526064016108f5565b6000818152600e60208181526040808420600180820154808752600c855283872084516101008101865281546001600160a01b038082168352600160a01b90910460ff9081161515838a01908152958401548389015260028085015460608086019190915260038601546080860152600486015460a086015260058601548316151560c086015260069095015460e08501529a8c9052988852865192830187528554168252958101919091529590910154909316151590840152905190919015611ae05781518151606084015160a0850151611a7f93929190611a669042614bac565b8660400151876080015187604001518960e001516134fc565b8151815160608085015160408087015181516001600160a01b0396871681529590941660208601528401528201527f5c6efb4566e42c66d85b971c67653ded738f8754d5af3ad6e9a6241c0538059e906080015b60405180910390a1505050565b80518251606084015160a0850151611aff93929190611a669042614bac565b8051825160608085015160408087015181516001600160a01b0396871681529590941660208601528401528201527f5c6efb4566e42c66d85b971c67653ded738f8754d5af3ad6e9a6241c0538059e90608001611ad3565b6001600160a01b038116600090815260026020819052604090912080546060928392839283928392916001830191830190600384019060048501908590611b9d90614a4a565b80601f0160208091040260200160405190810160405280929190818152602001828054611bc990614a4a565b8015611c165780601f10611beb57610100808354040283529160200191611c16565b820191906000526020600020905b815481529060010190602001808311611bf957829003601f168201915b50505050509450838054611c2990614a4a565b80601f0160208091040260200160405190810160405280929190818152602001828054611c5590614a4a565b8015611ca25780601f10611c7757610100808354040283529160200191611ca2565b820191906000526020600020905b815481529060010190602001808311611c8557829003601f168201915b50505050509350828054611cb590614a4a565b80601f0160208091040260200160405190810160405280929190818152602001828054611ce190614a4a565b8015611d2e5780601f10611d0357610100808354040283529160200191611d2e565b820191906000526020600020905b815481529060010190602001808311611d1157829003601f168201915b50505050509250818054611d4190614a4a565b80601f0160208091040260200160405190810160405280929190818152602001828054611d6d90614a4a565b8015611dba5780601f10611d8f57610100808354040283529160200191611dba565b820191906000526020600020905b815481529060010190602001808311611d9d57829003601f168201915b50505050509150808054611dcd90614a4a565b80601f0160208091040260200160405190810160405280929190818152602001828054611df990614a4a565b8015611e465780601f10611e1b57610100808354040283529160200191611e46565b820191906000526020600020905b815481529060010190602001808311611e2957829003601f168201915b505050505090509450945094509450945091939590929450565b600081815260106020526040902060010154339082906001600160a01b0316821480611ea557506000818152601060205260409020546001600160a01b038381169116145b611ec15760405162461bcd60e51b81526004016108f590614a85565b82600160008281526010602052604090206006015460ff166004811115611eea57611eea614abc565b1480611f1b5750600260008281526010602052604090206006015460ff166004811115611f1957611f19614abc565b145b611f375760405162461bcd60e51b81526004016108f590614b35565b600084815260106020908152604080832081516101408101835281546001600160a01b03908116825260018301541693810193909352600281015491830191909152600381015460608301526004808201546080840152600582015460a0840152600682015460c084019160ff90911690811115611fb757611fb7614abc565b6004811115611fc857611fc8614abc565b8152602001600782015481526020016008820160009054906101000a900460ff1615151515815260200160098201548152505090507fb4d13f90fbce7f7fa5ba9b609e10a68274ce3289de492880e616c0b3d130314a85826000015183602001518460e0015160405161205e94939291909384526001600160a01b03928316602085015291166040830152606082015260800190565b60405180910390a1600085815260106020526040902060068101805460ff19166002179055600701546120919042614bac565b6000958652601060205260409095206004019490945550505050565b60008281526010602052604090206003810154600290910154806120d18342614b1e565b101561211f5760405162461bcd60e51b815260206004820152601b60248201527f546f206561726c7920746f207265616c697a65207061796d656e74000000000060448201526064016108f5565b600084815260106020526040902060010154339085906001600160a01b0316821461215c5760405162461bcd60e51b81526004016108f590614b62565b85600160008281526010602052604090206006015460ff16600481111561218557612185614abc565b14806121b65750600260008281526010602052604090206006015460ff1660048111156121b4576121b4614abc565b145b6121d25760405162461bcd60e51b81526004016108f590614b35565b6000878152601060205260409020426003820155600501546121f6908890886133e7565b6000878152601060205260409020600401544210612217576122178761378b565b61090c87612db0565b82600160008281526010602052604090206006015460ff16600481111561224957612249614abc565b148061227a5750600260008281526010602052604090206006015460ff16600481111561227857612278614abc565b145b6122965760405162461bcd60e51b81526004016108f590614b35565b600084815260106020526040902060010154339085906001600160a01b03168214806122db57506000818152601060205260409020546001600160a01b038381169116145b6122f75760405162461bcd60e51b81526004016108f590614a85565b60006123038733613931565b90508015612370576000878152601060205260409020600101546001600160a01b0316331461236b5760405162461bcd60e51b815260206004820152601460248201527302ab9b2b91034b9903737ba103a32b730b73a17160651b60448201526064016108f5565b6123cf565b6000878152601060205260409020546001600160a01b031633146123cf5760405162461bcd60e51b815260206004820152601660248201527502ab9b2b91034b9903737ba103630b7323637b93217160551b60448201526064016108f5565b60006123da866139d6565b6000898152601060205260409020805460019091015491925061240e918a916001600160a01b039081169116858b86613ba1565b5050505050505050565b60606005805480602002602001604051908101604052809291908181526020016000905b828210156125145783829060005260206000209060030201604051806060016040529081600082015481526020016001820154815260200160028201805461248390614a4a565b80601f01602080910402602001604051908101604052809291908181526020018280546124af90614a4a565b80156124fc5780601f106124d1576101008083540402835291602001916124fc565b820191906000526020600020905b8154815290600101906020018083116124df57829003601f168201915b5050505050815250508152602001906001019061243c565b50505050905090565b336125278161131f565b80612536575061253681610842565b801561254a57506001600160a01b03811615155b6125665760405162461bcd60e51b81526004016108f5906149a0565b6114108233613c0c565b3361257a8161131f565b6125965760405162461bcd60e51b81526004016108f5906149d7565b818051600014156125b95760405162461bcd60e51b81526004016108f590614a1c565b33600090815260208181526040909120845161097c926003909201918601906141b6565b6002602052600090815260409020805481906125f890614a4a565b80601f016020809104026020016040519081016040528092919081815260200182805461262490614a4a565b80156126715780601f1061264657610100808354040283529160200191612671565b820191906000526020600020905b81548152906001019060200180831161265457829003601f168201915b50505050509080600101805461268690614a4a565b80601f01602080910402602001604051908101604052809291908181526020018280546126b290614a4a565b80156126ff5780601f106126d4576101008083540402835291602001916126ff565b820191906000526020600020905b8154815290600101906020018083116126e257829003601f168201915b50505050509080600201805461271490614a4a565b80601f016020809104026020016040519081016040528092919081815260200182805461274090614a4a565b801561278d5780601f106127625761010080835404028352916020019161278d565b820191906000526020600020905b81548152906001019060200180831161277057829003601f168201915b5050505050908060030180546127a290614a4a565b80601f01602080910402602001604051908101604052809291908181526020018280546127ce90614a4a565b801561281b5780601f106127f05761010080835404028352916020019161281b565b820191906000526020600020905b8154815290600101906020018083116127fe57829003601f168201915b50505050509080600401805461283090614a4a565b80601f016020809104026020016040519081016040528092919081815260200182805461285c90614a4a565b80156128a95780601f1061287e576101008083540402835291602001916128a9565b820191906000526020600020905b81548152906001019060200180831161288c57829003601f168201915b5050505050905085565b336000908152602081905260408120906128cd828261423a565b6128db60018301600061423a565b6128e960028301600061423a565b6128f760038301600061423a565b50506000612904336115f6565b9050600181815481106111d7576111d7614959565b6005818154811061099257600080fd5b6000818152600a6020526040902060020154600160008281526010602052604090206006015460ff16600481111561296357612963614abc565b14806129945750600260008281526010602052604090206006015460ff16600481111561299257612992614abc565b145b6129b05760405162461bcd60e51b81526004016108f590614b35565b6000828152600a602052604081205460ff1660028111156129d3576129d3614abc565b1415612a2f5760405162461bcd60e51b815260206004820152602560248201527f43616e6e6f74206368616e676520612076616c756520746861742069732061706044820152641c1b1a595960da1b60648201526084016108f5565b612a3882613dab565b6000828152600a6020526040812060039081015460ff1690811115612a5f57612a5f614abc565b1415612a93576000828152600a60209081526040808320600481015460029182015485526010909352922090910155612ba5565b60016000838152600a6020526040902060039081015460ff1690811115612abc57612abc614abc565b1415612af1576000828152600a6020908152604080832060048101546002909101548452601090925290912060050155612ba5565b60026000838152600a6020526040902060039081015460ff1690811115612b1a57612b1a614abc565b1415612b4d576000828152600a602090815260408083206004808201546002909201548552601090935292200155612ba5565b6000828152600a6020526040902060039081015460ff1681811115612b7457612b74614abc565b1415612ba5576000828152600a60209081526040808320600481015460029091015484526010909252909120600701555b60405162461bcd60e51b81526020600482015260126024820152714e6f20706f737369626c652075706461746560701b60448201526064016108f5565b612c0d6040518060800160405280606081526020016060815260200160608152602001606081525090565b848152602080820185905260408083018590526060830184905233600090815280835220825180518493612c459284929101906141b6565b506020828101518051612c5e92600185019201906141b6565b5060408201518051612c7a9160028401916020909101906141b6565b5060608201518051612c969160038401916020909101906141b6565b50506001805480820182556000919091527fb10e2d527612073b26eecdfd717e6a320cf44b4afac2b0732d9fcbe2b7fa0cf60180546001600160a01b03191633179055505050505050565b60606003805480602002602001604051908101604052809291908181526020018280548015612d3957602002820191906000526020600020905b81546001600160a01b03168152600190910190602001808311612d1b575b5050505050905090565b33612d4d8161131f565b612d695760405162461bcd60e51b81526004016108f5906149d7565b81805160001415612d8c5760405162461bcd60e51b81526004016108f590614a1c565b33600090815260208181526040909120845161097c926001909201918601906141b6565b60005b600854811115611410578160088281548110612dd157612dd1614959565b906000526020600020906003020160010154148015612e2a5750600060088281548110612e0057612e00614959565b600091825260209091206002600390920201015460ff166001811115612e2857612e28614abc565b145b15612e7657600160088281548110612e4457612e44614959565b60009182526020909120600260039092020101805460ff191660018381811115612e7057612e70614abc565b02179055505b80612e8081614985565b915050612db3565b33612e9281610842565b612eae5760405162461bcd60e51b81526004016108f5906149d7565b81805160001415612ed15760405162461bcd60e51b81526004016108f590614a1c565b336000908152600260209081526040909120845161097c926004909201918601906141b6565b600083815260106020526040902054339084906001600160a01b03168214612f315760405162461bcd60e51b81526004016108f590614ad2565b600085815260106020526040902060050154612f509086908587613eb0565b600085815260106020526040902060060180546004919060ff19166001836115ea565b60606001805480602002602001604051908101604052809291908181526020018280548015612d39576020028201919060005260206000209081546001600160a01b03168152600190910190602001808311612d1b575050505050905090565b612fdb614277565b506000908152600c602090815260409182902082516101008101845281546001600160a01b038116825260ff600160a01b90910481161515938201939093526001820154938101939093526002810154606084015260038101546080840152600481015460a08401526005810154909116151560c08301526006015460e082015290565b3361306981610842565b6130855760405162461bcd60e51b81526004016108f5906149d7565b818051600014156130a85760405162461bcd60e51b81526004016108f590614a1c565b336000908152600260209081526040909120845161097c926001909201918601906141b6565b600181815481106110dc57600080fd5b336130e881610842565b6131045760405162461bcd60e51b81526004016108f5906149d7565b818051600014156131275760405162461bcd60e51b81526004016108f590614a1c565b336000908152600260209081526040909120845161097c926003909201918601906141b6565b336131578161131f565b80613166575061316681610842565b6131a85760405162461bcd60e51b815260206004820152601360248201527202ab9b2b91034b9903737ba1030b23232b2171606d1b60448201526064016108f5565b6131b0614277565b338152871515602080830191825260408084018a8152606085018a8152608086018a815260a087018a815260e088018a8152600b80546000908152600c9098529587208951815499511515600160a01b026001600160a81b0319909a166001600160a01b039190911617989098178855935160018801559151600287015551600386015551600485015560c085015160058501805491151560ff19909216919091179055516006909301929092558154919061326b83614985565b91905055505050505050505050565b6000805b60035481101561165457826001600160a01b0316600382815481106132a5576132a5614959565b6000918252602090912001546001600160a01b031614156132c65792915050565b806132d081614985565b91505061327e565b6000818152600a60205260409020600101546001600160a01b031633146133415760405162461bcd60e51b815260206004820152601a60248201527f55736572206973206e6f742074686520626964646564206f6e6500000000000060448201526064016108f5565b6000818152600a602052604081205460ff16600281111561336457613364614abc565b1461336e57600080fd5b6000818152600a602052604090819020805460ff1916600217808255600182015460039092015492517f4502eb4480075d2fdfb5549aab8f9230c12abc3d254c300b6c4f1cacabcf8ae4936133dc936101009093046001600160a01b0390811693169160ff90911690614bc4565b60405180910390a150565b600083815260106020526040902060010154339084906001600160a01b031682146134245760405162461bcd60e51b81526004016108f590614b62565b60408051606081018252868152602080820187815292820186815260058054600181018255600091909152835160039091027f036b6384b5eca791c62761152d0c79bb0604c104a5fb6f4eb0703f3154bb3db0810191825594517f036b6384b5eca791c62761152d0c79bb0604c104a5fb6f4eb0703f3154bb3db186015590518051939491936134dd937f036b6384b5eca791c62761152d0c79bb0604c104a5fb6f4eb0703f3154bb3db29093019291909101906141b6565b505060048054915060006134f083614985565b91905055505050505050565b876135068161131f565b80613515575061351581610842565b801561352957506001600160a01b03811615155b6135455760405162461bcd60e51b81526004016108f5906149a0565b8761354f8161131f565b8061355e575061355e81610842565b801561357257506001600160a01b03811615155b61358e5760405162461bcd60e51b81526004016108f5906149a0565b85600081116135df5760405162461bcd60e51b815260206004820152601e60248201527f416d6f756e74206d757374206e6f74206265206c657373207468616e2030000060448201526064016108f5565b886000811161363a5760405162461bcd60e51b815260206004820152602160248201527f4672657175656e6379206d757374206e6f74206265206c657373207468616e206044820152600360fc1b60648201526084016108f5565b6136426142c9565b6001600160a01b038d811682528c166020820152604081018b9052600060608201819052608082018b905260a082018a905260e08201899052871515610100830152610120820187905260c0820181905250600f54600090815260106020908152604091829020835181546001600160a01b039182166001600160a01b03199182161783559285015160018084018054929093169190941617905591830151600283015560608301516003830155608083015160048084019190915560a0840151600584015560c08401516006840180548695949293919260ff1990911691849081111561373257613732614abc565b021790555060e0820151600782015561010082015160088201805460ff191691151591909117905561012090910151600990910155600f805490600061377783614985565b919050555050505050505050505050505050565b80600160008281526010602052604090206006015460ff1660048111156137b4576137b4614abc565b14806137e55750600260008281526010602052604090206006015460ff1660048111156137e3576137e3614abc565b145b6138015760405162461bcd60e51b81526004016108f590614b35565b600082815260106020908152604080832081516101408101835281546001600160a01b03908116825260018301541693810193909352600281015491830191909152600381015460608301526004808201546080840152600582015460a0840152600682015460c084019160ff9091169081111561388157613881614abc565b600481111561389257613892614abc565b81526007820154602080830191909152600883015460ff16151560408084019190915260099093015460609283015283518482015184518981526001600160a01b0392831693810193909352168184015291519293507f16adc1b7459c231f5959ebe9700eecc180d2e525d4fc985913699c18df82a24f92918290030190a150506000908152601060205260409020600601805460ff19166003179055565b6000828152601060205260408120546001600160a01b038381169116141561395b575060006139d0565b6000838152601060205260409020600101546001600160a01b0383811691161415613988575060016139d0565b60405162461bcd60e51b815260206004820152601b60248201527f4e6f206164647265737320696e207468697320636f6e7472616374000000000060448201526064016108f5565b92915050565b604051686672657175656e637960b81b60208201526000906029016040516020818303038152906040528051906020012082604051602001613a189190614c08565b604051602081830303815290604052805190602001201415613a3c57506000919050565b60405165185b5bdd5b9d60d21b60208201526026016040516020818303038152906040528051906020012082604051602001613a789190614c08565b604051602081830303815290604052805190602001201415613a9c57506001919050565b6040516b18dbdb9d1c9858dd08195b9960a21b6020820152602c016040516020818303038152906040528051906020012082604051602001613ade9190614c08565b604051602081830303815290604052805190602001201415613b0257506002919050565b6040516832bc3a32b739b4b7b760b91b60208201526029016040516020818303038152906040528051906020012082604051602001613b419190614c08565b604051602081830303815290604052805190602001201415613b6557506003919050565b60405162461bcd60e51b815260206004820152601160248201527023b7ba103130b2103830b930b6b2ba32b960791b60448201526064016108f5565b8215613bb957613bb48685878486614079565b613bcb565b82613bcb57613bcb8686868486614079565b60405162461bcd60e51b81526020600482015260166024820152754e6f20636c617269666965642061646472657373657360501b60448201526064016108f5565b33613c168161131f565b80613c255750613c2581610842565b613c675760405162461bcd60e51b815260206004820152601360248201527202ab9b2b91034b9903737ba1030b23232b2171606d1b60448201526064016108f5565b6000838152600c6020526040902054339084906001600160a01b0316821415613cd25760405162461bcd60e51b815260206004820152601c60248201527f557365722063616e6e6f742061636365707420697473206f666665720000000060448201526064016108f5565b6040805160608101825260008183018190526001600160a01b03878116835260208084018a9052898352600e8152918490205484518a815291169181019190915290917ffda9ac54069bb066debdc05afc39e260f270fcfb0ce45a42e94b6615a4514fbc910160405180910390a1600d80546000908152600e60209081526040808320855181546001600160a01b0319166001600160a01b039091161781559185015160018301558401516002909101805460ff191691151591909117905581549190613d9e83614985565b9190505550505050505050565b6000818152600a60205260409020600101546001600160a01b03163314613e145760405162461bcd60e51b815260206004820152601a60248201527f55736572206973206e6f742074686520626964646564206f6e6500000000000060448201526064016108f5565b6000818152600a602052604081205460ff166002811115613e3757613e37614abc565b14613e4157600080fd5b6000818152600a602052604090819020805460ff191660019081178083559082015460039092015492517f18c44eb16e48f6869a458babcedec359c0ba49a6bb042b6dc99a28eff6ce02d6936133dc936101009093046001600160a01b0390811693169160ff90911690614bc4565b600084815260106020526040902054339085906001600160a01b03168214613eea5760405162461bcd60e51b81526004016108f590614ad2565b8215613fb15760408051606081018252878152602080820188815292820187815260058054600181018255600091909152835160039091027f036b6384b5eca791c62761152d0c79bb0604c104a5fb6f4eb0703f3154bb3db0810191825594517f036b6384b5eca791c62761152d0c79bb0604c104a5fb6f4eb0703f3154bb3db18601559051805193949193613fa9937f036b6384b5eca791c62761152d0c79bb0604c104a5fb6f4eb0703f3154bb3db29093019291909101906141b6565b505050614069565b6040805160608101825287815260006020808301828152938301888152600580546001810182559352835160039093027f036b6384b5eca791c62761152d0c79bb0604c104a5fb6f4eb0703f3154bb3db0810193845594517f036b6384b5eca791c62761152d0c79bb0604c104a5fb6f4eb0703f3154bb3db186015551805193949293614065937f036b6384b5eca791c62761152d0c79bb0604c104a5fb6f4eb0703f3154bb3db2019291909101906141b6565b5050505b60048054906000613d9e83614985565b6040805160c08101825260008082526080820181815260a0830191909152606082018890526001600160a01b038781166020840152861692820192909252908360038111156140ca576140ca614abc565b908160038111156140dd576140dd614abc565b90525060a081018290526009546000908152600a602052604090208151815483929190829060ff1916600183600281111561411a5761411a614abc565b021790555060208201518154610100600160a81b0319166101006001600160a01b03928316021782556040830151600180840180546001600160a01b0319169290931691909117909155606083015160028301556080830151600380840180549293909260ff191691849081111561419457614194614abc565b021790555060a0919091015160049091015560098054906000613d9e83614985565b8280546141c290614a4a565b90600052602060002090601f0160209004810192826141e4576000855561422a565b82601f106141fd57805160ff191683800117855561422a565b8280016001018555821561422a579182015b8281111561422a57825182559160200191906001019061420f565b50614236929150614341565b5090565b50805461424690614a4a565b6000825580601f10614256575050565b601f0160209004906000526020600020908101906142749190614341565b50565b60405180610100016040528060006001600160a01b0316815260200160001515815260200160008152602001600081526020016000815260200160008152602001600015158152602001600081525090565b60405180610140016040528060006001600160a01b0316815260200160006001600160a01b03168152602001600081526020016000815260200160008152602001600081526020016000600481111561432457614324614abc565b815260200160008152602001600015158152602001600081525090565b5b808211156142365760008155600101614342565b60006020828403121561436857600080fd5b81356001600160a01b038116811461437f57600080fd5b9392505050565b8035801515811461439657600080fd5b919050565b60008060008060008060c087890312156143b457600080fd5b6143bd87614386565b9860208801359850604088013597606081013597506080810135965060a00135945092505050565b634e487b7160e01b600052604160045260246000fd5b600082601f83011261440c57600080fd5b813567ffffffffffffffff80821115614427576144276143e5565b604051601f8301601f19908116603f0116810190828211818310171561444f5761444f6143e5565b8160405283815286602085880101111561446857600080fd5b836020870160208301376000602085830101528094505050505092915050565b60006020828403121561449a57600080fd5b813567ffffffffffffffff8111156144b157600080fd5b6144bd848285016143fb565b949350505050565b6000602082840312156144d757600080fd5b5035919050565b60005b838110156144f95781810151838201526020016144e1565b8381111561097c5750506000910152565b600081518084526145228160208601602086016144de565b601f01601f19169290920160200192915050565b838152826020820152606060408201526000614555606083018461450a565b95945050505050565b60208152600061437f602083018461450a565b608081526000614584608083018761450a565b8281036020840152614596818761450a565b905082810360408401526145aa818661450a565b905082810360608401526145be818561450a565b979650505050505050565b600080600080600060a086880312156145e157600080fd5b853567ffffffffffffffff808211156145f957600080fd5b61460589838a016143fb565b9650602088013591508082111561461b57600080fd5b61462789838a016143fb565b9550604088013591508082111561463d57600080fd5b61464989838a016143fb565b9450606088013591508082111561465f57600080fd5b61466b89838a016143fb565b9350608088013591508082111561468157600080fd5b5061468e888289016143fb565b9150509295509295909350565b600080604083850312156146ae57600080fd5b82359150602083013567ffffffffffffffff8111156146cc57600080fd5b6146d8858286016143fb565b9150509250929050565b60a0815260006146f560a083018861450a565b8281036020840152614707818861450a565b9050828103604084015261471b818761450a565b9050828103606084015261472f818661450a565b90508281036080840152614743818561450a565b98975050505050505050565b60008060006060848603121561476457600080fd5b8335925060208401359150604084013567ffffffffffffffff81111561478957600080fd5b614795868287016143fb565b9150509250925092565b60006020808301818452808551808352604092508286019150828160051b87010184880160005b8381101561481057888303603f19018552815180518452878101518885015286015160608785018190526147fc8186018361450a565b9689019694505050908601906001016147c6565b509098975050505050505050565b6000806000806080858703121561483457600080fd5b843567ffffffffffffffff8082111561484c57600080fd5b614858888389016143fb565b9550602087013591508082111561486e57600080fd5b61487a888389016143fb565b9450604087013591508082111561489057600080fd5b61489c888389016143fb565b935060608701359150808211156148b257600080fd5b506148bf878288016143fb565b91505092959194509250565b6020808252825182820181905260009190848201906040850190845b8181101561490c5783516001600160a01b0316835292840192918401916001016148e7565b50909695505050505050565b60008060006060848603121561492d57600080fd5b8335925061493d60208501614386565b9150604084013567ffffffffffffffff81111561478957600080fd5b634e487b7160e01b600052603260045260246000fd5b634e487b7160e01b600052601160045260246000fd5b60006000198214156149995761499961496f565b5060010190565b6020808252601f908201527f5573657220646f6573206e6f7420657869737420696e20646174616261736500604082015260600190565b60208082526025908201527f4f6e6c79207573657220616464726573732063616e207570646174652076616c60408201526403ab2b997160dd1b606082015260800190565b60208082526014908201527302737ba1030903b30b634b21039ba3934b73397160651b604082015260600190565b600181811c90821680614a5e57607f821691505b60208210811415614a7f57634e487b7160e01b600052602260045260246000fd5b50919050565b6020808252601d908201527f53656e646572206973206e6f7420696e2074686520636f6e7472616374000000604082015260600190565b634e487b7160e01b600052602160045260246000fd5b6020808252602c908201527f546869732061646472657373206973206e6f7420746865206c616e646c6f726460408201526b081bd9881d1a19481c995b9d60a21b606082015260800190565b600082821015614b3057614b3061496f565b500390565b60208082526013908201527214995b9d081a5cc81b9bdd081cdd185c9d1959606a1b604082015260600190565b6020808252602a908201527f546869732061646472657373206973206e6f74207468652074656e616e74206f60408201526919881d1a19481c995b9d60b21b606082015260800190565b60008219821115614bbf57614bbf61496f565b500190565b6001600160a01b038481168252831660208201526060810160048310614bfa57634e487b7160e01b600052602160045260246000fd5b826040830152949350505050565b60008251614c1a8184602087016144de565b919091019291505056fea2646970667358221220e44986e4fe6921336eaacf333a7841a8958ad44937f4156c64cdbf4842512a6964736f6c634300080c0033",
  "immutableReferences": {},
  "source": "// SPDX-License-Identifier: MIT\npragma solidity >=0.7.0 <0.9.0;\n\n/*\n * \n * El pagament es fa a partir de dues adreces que consten en l'estructura del contracte de lloguer. Juntament amb frequencia de pagament i quantitat. \n * Es comprova si el contracte s per vivenda, ja que en cas de que sigui cert el reglament de contractaci s ms estricte. \n*/\n\nimport \"./Persona_Fisica.sol\";\nimport \"./Persona_Juridica.sol\";\nimport \"./Transfer.sol\";\nimport \"./Payment_Request.sol\";\nimport \"./Up_Conditions.sol\";\nimport \"./Offers.sol\";\n\ncontract Rent is Persona_Fisica, Persona_Juridica, Transfer, Payment_Request, Up_Conditions, Offers {\n\n    enum rent_state {\n        not_started,\n        started,\n        cancelled,\n        surety_pending,\n        ended \n    } // when cancelled the end of contract is modified to now + extension. Then is passed to ended\n\n    struct Rent_t {\n        address landlord;\n        address tenant;\n        uint frequency;  // -> To block.timestamp\n        uint last_payment; // Time units in seconds\n        uint contract_end;\n        uint256 amount;\n        rent_state state;\n        uint extension;\n        bool housing;\n        uint surety;\n    }\n\n    uint public rent_count = 0;\n    mapping(uint => Rent_t) rents;\n\n    /* ------------- Events ------------- */\n    \n    event Surety_Paid(\n        uint id_rent,\n        uint amount,\n        address landlord,\n        address tenant\n    );\n\n    event Rent_Transfer (\n        uint id_rent,\n        address landlord,\n        address tenant,\n        uint amount\n    );\n\n    event Cancel_Rent(\n        uint id_rent,\n        address landlord, \n        address tenant,\n        uint extension\n    );\n\n    event Contract_End(\n        uint id_rent,\n        address landlord,\n        address tenant\n    );\n\n    event Offer_Accepted(\n        address landlord,\n        address tenant,\n        uint frequency,\n        uint amount\n    );\n\n    /* ---------------------------------- */\n\n    /* ------------ Requires ------------ */\n\n    modifier user_exists(address _address) {\n        // Check if user is persona fisica or juridica, and see if it is not null\n        require(\n            (is_persona_fisica(_address) || is_persona_juridica(_address)) && _address != address(0),\n            \"User does not exist in database\"\n        );\n        _;\n    }\n\n    modifier not_null_amount(uint amount) {\n        // Not null amount\n        require(\n            amount > 0,\n            \"Amount must not be less than 0\"\n        );\n        _;\n    }\n\n    modifier not_null_frequency(uint frequency) {\n        require(\n            frequency > 0,\n            \"Frequency must not be less than 0\"\n        );\n        _;\n    }\n\n    modifier rent_exists(uint id_rent) {\n        require(\n            id_rent >= 0 && rents[id_rent].state == rent_state.started,\n            \"Rent must exist and it has to be started\"\n        );\n        _;\n    }\n\n    modifier payment_frequency(uint last_payment, uint frequency) {  // El pagament s'ha de fer en el temps pactat\n        // Check time between payments\n        require(\n            block.timestamp - last_payment >= frequency, // Tal i com est agafar frequency en s\n            \"To early to realize payment\"\n        );\n        _;\n    }\n\n    modifier is_tenant(address _address, uint id_rent) {\n        require(\n            _address == rents[id_rent].tenant,\n            \"This address is not the tenant of the rent\"\n        );\n        _;\n    }\n\n    modifier is_landlord(address _address, uint id_rent) {\n        require(\n            _address == rents[id_rent].landlord,\n            \"This address is not the landlord of the rent\"\n        );\n        _;\n    }\n\n    modifier valid_sender(address _address, uint id_rent) {\n        require(\n            _address == rents[id_rent].tenant || _address == rents[id_rent].landlord,\n            \"Sender is not in the contract\"\n        );\n        _;\n    }\n\n    modifier valid_payment_request(uint id_rent) {\n        require(\n            block.timestamp - rents[id_rent].last_payment > rents[id_rent].frequency,\n            \"Payment has not expired\"\n        );\n        _;\n    }\n\n    modifier rent_started(uint id_rent) {\n        require(\n            rents[id_rent].state == rent_state.started || rents[id_rent].state == rent_state.cancelled,            \n            \"Rent is not started\"\n        );\n        _;\n    }\n\n    modifier rent_not_started(uint id_rent) {\n        require(\n            rents[id_rent].state == rent_state.not_started,\n            \"Rent is already started, or does not exist\"\n        );\n        _;\n    }\n \n    /* ---------------------------------- */\n\n    /* -------- Rent Contract Offers ---------- */\n\n    function new_offer(bool _is_landlord, uint _amount, uint _frequency, uint _extension, uint _contract_duration, uint surety) public user_exists(msg.sender) {\n        set_offer(_is_landlord, _amount, _frequency, _extension, _contract_duration, surety);\n    }\n\n    function pick_offer(uint offer_id) public user_exists(msg.sender) {\n        accept_offer(offer_id, msg.sender);\n    }\n\n    function accept_rent_request(uint id_request) public {\n        require(msg.sender == offers[requests[id_request].offer_id].user, \"User is not the offerer\");\n        \n        Offer memory offer = offers[requests[id_request].offer_id];\n        RequestOffer memory request = requests[id_request];\n\n        if(offer.is_landlord) {\n            create_rent(offer.user, request.requester, offer.frequency, block.timestamp + offer.contract_duration, offer.amount, offer.extension, request.housing, offer.surety);\n            emit Offer_Accepted(offer.user, request.requester, offer.frequency, offer.amount);\n        } else {\n            create_rent(request.requester, offer.user, offer.frequency, block.timestamp + offer.contract_duration, offer.amount, offer.extension, request.housing, offer.surety);\n            emit Offer_Accepted(request.requester, offer.user, offer.frequency, offer.amount);\n        }   \n    }\n\n    /* --------- Contract functions ----------- */\n    function create_rent(address _landlord, address _tenant, uint _frequency, uint _contract_end, uint _amount, uint _extension, bool _housing, uint _surety) private \n        user_exists(_landlord)\n        user_exists(_tenant)\n        not_null_amount(_amount) \n        not_null_frequency(_frequency)\n    {\n        // rents.push(Rent_t(rent_count, landlord, tenant, frequency, next_payment, contract_end, amount, rent_state.started, extension, vivenda));\n        Rent_t memory aux_rent;\n\n        aux_rent.landlord = _landlord;\n        aux_rent.tenant = _tenant;\n        aux_rent.frequency = _frequency;\n        aux_rent.last_payment = 0;\n        aux_rent.contract_end = _contract_end;\n        aux_rent.amount = _amount;\n        aux_rent.extension = _extension;\n        aux_rent.housing = _housing;\n        aux_rent.surety = _surety;\n\n        aux_rent.state = rent_state.not_started; // Surety Needs to be paid\n\n        rents[rent_count] = aux_rent;\n\n        rent_count++;\n    }\n\n    function pay_surety(uint id_rent, string memory message) public \n        is_tenant(msg.sender, id_rent) \n        rent_not_started(id_rent)\n    {        \n        emit Surety_Paid(id_rent, rents[id_rent].amount, rents[id_rent].landlord, rents[id_rent].tenant);\n        \n        add_transfer(id_rent, rents[id_rent].surety, message);    \n\n        rents[id_rent].state = rent_state.started;\n    }\n\n    function pay_rent(uint id_rent, string memory message) public\n        payment_frequency(rents[id_rent].last_payment, rents[id_rent].frequency) \n        is_tenant(msg.sender, id_rent) \n        rent_started(id_rent)\n    {                                                              // This function can only be executed by the tenant of the rent id_rent\n        rents[id_rent].last_payment = block.timestamp; \n        // In this function the payment would be realized\n\n        add_transfer(id_rent, rents[id_rent].amount, message);\n\n        if (rents[id_rent].contract_end <= block.timestamp) {\n            contract_end(id_rent);\n        } \n\n        rent_paid(id_rent);\n    }\n\n    function cancel_rent(uint id_rent) public \n        valid_sender(msg.sender, id_rent) \n        rent_started(id_rent)\n    {\n        Rent_t memory aux_rent = rents[id_rent];\n\n        emit Cancel_Rent(id_rent, aux_rent.landlord, aux_rent.tenant, aux_rent.extension);\n        \n        rents[id_rent].state = rent_state.cancelled;\n\n        // Here we change the value of the end of the contract, which is going to be now + extension\n        rents[id_rent].contract_end = block.timestamp + rents[id_rent].extension;\n    }\n\n    function contract_end(uint id_rent) internal \n        rent_started(id_rent)\n    {\n        Rent_t memory aux_rent = rents[id_rent];\n\n        emit Contract_End(id_rent, aux_rent.landlord, aux_rent.tenant);\n\n        rents[id_rent].state = rent_state.surety_pending;\n    }\n\n    function surety_back(uint id_rent, bool accept, string memory message) public\n        is_landlord(msg.sender, id_rent)\n    {\n        return_surety(id_rent, rents[id_rent].amount, message, accept);\n\n        rents[id_rent].state = rent_state.ended;\n    }\n\n    /* ------------- Up_Conditions ------------------- */\n    \n    function tenant_proposes(uint id_rent, address _address) view private returns(bool) {\n        if (_address == rents[id_rent].landlord) {\n            return false;\n        } \n        else if (_address == rents[id_rent].tenant) {\n            return true;\n        }\n        revert(\"No address in this contract\");\n    }\n\n    function get_parameter(string memory p) pure private returns(update_comps) {\n        if (keccak256(abi.encodePacked(p)) == keccak256(abi.encodePacked(\"frequency\"))) {\n            return(update_comps.frequency);\n        } else if(keccak256(abi.encodePacked(p)) == keccak256(abi.encodePacked(\"amount\"))) {\n            return(update_comps.amount);\n        } else if(keccak256(abi.encodePacked(p)) == keccak256(abi.encodePacked(\"contract end\"))) {\n            return(update_comps.contract_end);\n        } else if(keccak256(abi.encodePacked(p)) == keccak256(abi.encodePacked(\"extension\"))) {\n            return(update_comps.extension);\n        } \n        revert(\"Got bad parameter\");\n    }\n\n    function set_request(uint id_rent, uint value, string memory p) public \n        rent_started(id_rent) \n        valid_sender(msg.sender, id_rent) \n    {   \n        bool tenant = tenant_proposes(id_rent, msg.sender);\n\n        if(tenant) {\n            require(\n                msg.sender == rents[id_rent].tenant,\n                \"User is not tenant. \"\n            );\n        }\n        else {\n            require(\n                msg.sender == rents[id_rent].landlord,\n                \"User is not landlord. \"\n            );\n        }\n\n        update_comps parameter = get_parameter(p);\n\n        assign_request(id_rent, rents[id_rent].landlord, rents[id_rent].tenant, tenant, value, parameter);\n    }\n\n    function request_accepted(uint id_req) public rent_started(reqs[id_req].id_rent) {\n        require(reqs[id_req].state != req_state.pending, \"Cannot change a value that is applied\");\n\n        accept_request(id_req);\n        \n        if (reqs[id_req].parameter == update_comps.frequency) {\n            rents[reqs[id_req].id_rent].frequency = reqs[id_req].value;\n        }\n        else if (reqs[id_req].parameter == update_comps.amount) {\n            rents[reqs[id_req].id_rent].amount = reqs[id_req].value;\n        }\n        else if (reqs[id_req].parameter == update_comps.contract_end) {\n            rents[reqs[id_req].id_rent].contract_end = reqs[id_req].value;\n        }\n        else if (reqs[id_req].parameter == update_comps.extension) {\n            rents[reqs[id_req].id_rent].extension = reqs[id_req].value;\n        }\n        revert(\"No possible update\");\n    }\n\n    function request_refused(uint id_req) public rent_started(reqs[id_req].id_rent) {\n        refuse_request(id_req);\n    }\n\n    /* ------ Payment Request ------- */\n    function create_payment_request(uint _id_rent) public \n        is_landlord(msg.sender, _id_rent)\n        valid_payment_request(_id_rent)\n    { // valid payment request means in time\n        \n        payment_reqs.push(Request_Payment(req_payment_count, _id_rent, payment_req_state.not_payed));\n\n        req_payment_count++;\n    }\n\n    function rent_paid(uint _id_rent) public {  \n        for (uint i = 0; payment_reqs.length < i; i++) {\n            if (payment_reqs[i].id_rent == _id_rent && payment_reqs[i].state == payment_req_state.not_payed) {\n                payment_reqs[i].state = payment_req_state.payed;\n            }\n        }\n    }\n\n    /* ----------- Transfers ---------- */\n    function add_transfer(uint _id_rent, uint _amount, string memory _message) private is_tenant(msg.sender, _id_rent) {\n\n        transfers.push(Transfer_t(_id_rent, _amount, _message));\n        \n        transfer_count++;\n    }\n\n    function return_surety(uint _id_rent, uint _amount, string memory _message, bool accept) private is_landlord(msg.sender, _id_rent) {\n        // If accept is true, means that the property is in a good condition\n\n        if(accept) {\n            transfers.push(Transfer_t(_id_rent, _amount, _message));\n        } else {\n            transfers.push(Transfer_t(_id_rent, 0, _message));\n        }\n        transfer_count++;\n    }\n\n    /* ------ GETTERS ------ */\n    function get_rent_state(uint id_rent) view public valid_sender(msg.sender, id_rent) returns(string memory) \n    {\n        if(rents[id_rent].state == rent_state.not_started) {\n            return(\"Not Started\"); \n        } else if(rents[id_rent].state == rent_state.started) {\n            return(\"Started\"); \n        } else if(rents[id_rent].state == rent_state.cancelled) {\n            return(\"Cancelled\"); \n        } else if(rents[id_rent].state == rent_state.ended) {\n            return(\"Ended\"); \n        } else if(rents[id_rent].state == rent_state.surety_pending) {\n            return(\"Surety Pending\"); \n        } else {\n            return(\"None\");            \n        } \n    }\n\n    /* \n     * \n     *  Explicaci de funcionament de la modularitat dels smart contracts inheritance\n     *\n     */\n\n    // function get_fisiques() view public returns(address[] memory) {\n    //     //Persona_Fisica pf = new Persona_Fisica();\n    //     return get_pfisiques();\n    // }\n\n    // function pf(address _address) view public returns(bool) {\n    //     return(pf.is_persona_fisica(_address));\n    // }\n\n    // function get_address() view public returns(address) {\n    //     return(msg.sender);\n    // }\n\n    // function get_rent_addresses(uint id_rent) view public returns(address, address) {\n    //     return(rents[id_rent].landlord, rents[id_rent].tenant);\n    // }\n}",
  "sourcePath": "/home/sergi/term/grmnt/grmnt/smart_contracts/contracts/Rent.sol",
  "compiler": {
    "name": "solc",
    "version": "0.8.12+commit.f00d7308.Emscripten.clang"
  },
  "schemaVersion": "3.4.6",
  "updatedAt": "2022-09-12T20:39:45.769Z",
  "networkType": "ethereum",
  "devdoc": {
    "kind": "dev",
    "methods": {},
    "version": 1
  },
  "userdoc": {
    "kind": "user",
    "methods": {},
    "version": 1
  }
}